[
    {
      "id": 0,
      "txs": [
        {
          "from": "0x617b3a3528F9cDd6630fd3301B9c8911F7Bf063D",
          "to": "0x4d5Cf5032B2a844602278b01199ED191A86c93ff",
          "nonce": 0,
          "value": "0.1",
          "gasLimit": 100000,
          "gasPrice": "1",
          "chainId": 400,
          "rawTx": "0xf86e80843b9aca00830186a0944d5cf5032b2a844602278b01199ed191a86c93ff88016345785d8a000080820344a0a9683074bcc81dba07fad2ac4015cf2eba4807c1aa1a8d291e77317a45fc2023a03d9ad247102178817ab2714984b4deb48bedd6ec06da0471745a81c60d1ab0b5",
          "reason": ""
        }
      ],
      "batchL2Data": "0xf872b870f86e80843b9aca00830186a0944d5cf5032b2a844602278b01199ed191a86c93ff88016345785d8a000080820344a0a9683074bcc81dba07fad2ac4015cf2eba4807c1aa1a8d291e77317a45fc2023a03d9ad247102178817ab2714984b4deb48bedd6ec06da0471745a81c60d1ab0b5",
      "batchHashData": "0x77de23c5eb8e4f7e544fbb4fbcaccbedc9e4d9d9d3cde881472f4678e5ffb132",
      "maticAmount": "1000000000000000000",
      "fullCallData": "0x06d6490f00000000000000000000000000000000000000000000000000000000000000400000000000000000000000000000000000000000000000000de0b6b3a76400000000000000000000000000000000000000000000000000000000000000000074f872b870f86e80843b9aca00830186a0944d5cf5032b2a844602278b01199ed191a86c93ff88016345785d8a000080820344a0a9683074bcc81dba07fad2ac4015cf2eba4807c1aa1a8d291e77317a45fc2023a03d9ad247102178817ab2714984b4deb48bedd6ec06da0471745a81c60d1ab0b5000000000000000000000000"
    },
    {
      "id": 1,
      "txs": [
        {
          "id": 0,
          "from": "0x617b3a3528F9cDd6630fd3301B9c8911F7Bf063D",
          "to": "0x4d5Cf5032B2a844602278b01199ED191A86c93ff",
          "nonce": 0,
          "value": "0.1",
          "gasLimit": 100000,
          "gasPrice": "1",
          "chainId": 400,
          "rawTx": "0xf86e80843b9aca00830186a0944d5cf5032b2a844602278b01199ed191a86c93ff88016345785d8a000080820344a0a9683074bcc81dba07fad2ac4015cf2eba4807c1aa1a8d291e77317a45fc2023a03d9ad247102178817ab2714984b4deb48bedd6ec06da0471745a81c60d1ab0b5",
          "reason": ""
        },
        {
          "id": 1,
          "from": "0xeB17ce701E9D92724AA2ABAdA7E4B28830597Dd9",
          "to": "0x187Bd40226A7073b49163b1f6c2b73d8F2aa8478",
          "nonce": 0,
          "value": "1000",
          "gasLimit": 100000,
          "gasPrice": "1",
          "chainId": 400,
          "rawTx": "0xf86f80843b9aca00830186a094187bd40226a7073b49163b1f6c2b73d8f2aa8478893635c9adc5dea0000080820343a0d0f11c506e8606f49759222a30e767212c6f6f671c6c4073664b49cc1ff3dde2a02dd180dea53b190e6053fe9c467672c5fdb299b3b2fd5e9cf7497b52d1bcd80f",
          "reason": "TX INVALID: Not enough funds to pay total transaction cost"
        },
        {
          "id": 2,
          "from": "0xeB17ce701E9D92724AA2ABAdA7E4B28830597Dd9",
          "to": "0x187Bd40226A7073b49163b1f6c2b73d8F2aa8478",
          "nonce": 0,
          "value": "1",
          "gasLimit": 100000,
          "gasPrice": "1",
          "chainId": 100000,
          "rawTx": "0xf86f80843b9aca00830186a094187bd40226a7073b49163b1f6c2b73d8f2aa8478880de0b6b3a76400008083030d63a0288e9248372d6826f93f01fa26543a84dcacd262f79a5094efb49ea4eba56084a078ab0dc58ea1775ef777fcfc0f72e016207d7f1172413f0927c1913dc05fd244",
          "reason": ""
        },
        {
          "id": 3,
          "from": "0xeB17ce701E9D92724AA2ABAdA7E4B28830597Dd9",
          "to": "0xabCcEd19d7f290B84608feC510bEe872CC8F5112",
          "nonce": 0,
          "value": "1",
          "gasLimit": 100000,
          "gasPrice": "1",
          "chainId": 400,
          "rawTx": "0xf86e80843b9aca00830186a094abcced19d7f290b84608fec510bee872cc8f5112880de0b6b3a764000080820343a0b3672951e7ad1c60799a7c5ea89eee4165b2bedce92517ca410b5efcf5471f2ba012c3894e1d00ef3ad457495e46ce38fdbbc901802ca61db9832a9a024f491e51",
          "reason": "TX INVALID: Invalid nonce"
        },
        {
          "id": 4,
          "from": "0xeB17ce701E9D92724AA2ABAdA7E4B28830597Dd9",
          "to": "0xabCcEd19d7f290B84608feC510bEe872CC8F5112",
          "nonce": 0,
          "value": "1",
          "gasLimit": 100000,
          "gasPrice": "1",
          "chainId": 0,
          "rawTx": "0xf86c80843b9aca00830186a094abcced19d7f290b84608fec510bee872cc8f5112880de0b6b3a7640000801ba02c92035bc11227e9e94ba066a6d77a65c43d29dfb4a855c9464e1b60fabd6334a07171c6dc84816ffcf025040cd6193ecef3928a0c4e4964ddba320826b76c725d",
          "reason": "TX INVALID: Chain ID does not match"
        }
      ],
      "batchL2Data": "0xf9023ab870f86e80843b9aca00830186a0944d5cf5032b2a844602278b01199ed191a86c93ff88016345785d8a000080820344a0a9683074bcc81dba07fad2ac4015cf2eba4807c1aa1a8d291e77317a45fc2023a03d9ad247102178817ab2714984b4deb48bedd6ec06da0471745a81c60d1ab0b5b871f86f80843b9aca00830186a094187bd40226a7073b49163b1f6c2b73d8f2aa8478893635c9adc5dea0000080820343a0d0f11c506e8606f49759222a30e767212c6f6f671c6c4073664b49cc1ff3dde2a02dd180dea53b190e6053fe9c467672c5fdb299b3b2fd5e9cf7497b52d1bcd80fb871f86f80843b9aca00830186a094187bd40226a7073b49163b1f6c2b73d8f2aa8478880de0b6b3a76400008083030d63a0288e9248372d6826f93f01fa26543a84dcacd262f79a5094efb49ea4eba56084a078ab0dc58ea1775ef777fcfc0f72e016207d7f1172413f0927c1913dc05fd244b870f86e80843b9aca00830186a094abcced19d7f290b84608fec510bee872cc8f5112880de0b6b3a764000080820343a0b3672951e7ad1c60799a7c5ea89eee4165b2bedce92517ca410b5efcf5471f2ba012c3894e1d00ef3ad457495e46ce38fdbbc901802ca61db9832a9a024f491e51b86ef86c80843b9aca00830186a094abcced19d7f290b84608fec510bee872cc8f5112880de0b6b3a7640000801ba02c92035bc11227e9e94ba066a6d77a65c43d29dfb4a855c9464e1b60fabd6334a07171c6dc84816ffcf025040cd6193ecef3928a0c4e4964ddba320826b76c725d",
      "batchHashData": "0x8a712cd5537d1150dcab06e3b7546c98ec00cae520308822b00eb32b0383b535",
      "maticAmount": "1000000000000000000",
      "fullCallData": "0x06d6490f00000000000000000000000000000000000000000000000000000000000000400000000000000000000000000000000000000000000000000de0b6b3a7640000000000000000000000000000000000000000000000000000000000000000023df9023ab870f86e80843b9aca00830186a0944d5cf5032b2a844602278b01199ed191a86c93ff88016345785d8a000080820344a0a9683074bcc81dba07fad2ac4015cf2eba4807c1aa1a8d291e77317a45fc2023a03d9ad247102178817ab2714984b4deb48bedd6ec06da0471745a81c60d1ab0b5b871f86f80843b9aca00830186a094187bd40226a7073b49163b1f6c2b73d8f2aa8478893635c9adc5dea0000080820343a0d0f11c506e8606f49759222a30e767212c6f6f671c6c4073664b49cc1ff3dde2a02dd180dea53b190e6053fe9c467672c5fdb299b3b2fd5e9cf7497b52d1bcd80fb871f86f80843b9aca00830186a094187bd40226a7073b49163b1f6c2b73d8f2aa8478880de0b6b3a76400008083030d63a0288e9248372d6826f93f01fa26543a84dcacd262f79a5094efb49ea4eba56084a078ab0dc58ea1775ef777fcfc0f72e016207d7f1172413f0927c1913dc05fd244b870f86e80843b9aca00830186a094abcced19d7f290b84608fec510bee872cc8f5112880de0b6b3a764000080820343a0b3672951e7ad1c60799a7c5ea89eee4165b2bedce92517ca410b5efcf5471f2ba012c3894e1d00ef3ad457495e46ce38fdbbc901802ca61db9832a9a024f491e51b86ef86c80843b9aca00830186a094abcced19d7f290b84608fec510bee872cc8f5112880de0b6b3a7640000801ba02c92035bc11227e9e94ba066a6d77a65c43d29dfb4a855c9464e1b60fabd6334a07171c6dc84816ffcf025040cd6193ecef3928a0c4e4964ddba320826b76c725d000000"
    },
    {
      "id": 2,
      "txs": [
        {
          "id": 0,
          "from": "0x617b3a3528F9cDd6630fd3301B9c8911F7Bf063D",
          "to": "0x4d5Cf5032B2a844602278b01199ED191A86c93ff",
          "nonce": 0,
          "value": "10000",
          "gasLimit": 100000,
          "gasPrice": "1",
          "chainId": 400,
          "rawTx": "0xf87080843b9aca00830186a0944d5cf5032b2a844602278b01199ed191a86c93ff8a021e19e0c9bab240000080820344a001b48d462a4d85e850d36a297d79cd78235b6aa98d0e76318a8e2c4dcd39d881a0277093ef3e6d2f2970e6386eefaac403f7575a5a7855ab0b4ccad6bc2dab081d",
          "reason": "TX INVALID: Not enough funds to pay total transaction cost"
        }
      ],
      "batchL2Data": "0xf874b872f87080843b9aca00830186a0944d5cf5032b2a844602278b01199ed191a86c93ff8a021e19e0c9bab240000080820344a001b48d462a4d85e850d36a297d79cd78235b6aa98d0e76318a8e2c4dcd39d881a0277093ef3e6d2f2970e6386eefaac403f7575a5a7855ab0b4ccad6bc2dab081d",
      "batchHashData": "0x88ae8aee6baf022982605748ec35a2b9b1d810556cee973fc30a9a8172dd8352",
      "maticAmount": "1000000000000000000",
      "fullCallData": "0x06d6490f00000000000000000000000000000000000000000000000000000000000000400000000000000000000000000000000000000000000000000de0b6b3a76400000000000000000000000000000000000000000000000000000000000000000076f874b872f87080843b9aca00830186a0944d5cf5032b2a844602278b01199ed191a86c93ff8a021e19e0c9bab240000080820344a001b48d462a4d85e850d36a297d79cd78235b6aa98d0e76318a8e2c4dcd39d881a0277093ef3e6d2f2970e6386eefaac403f7575a5a7855ab0b4ccad6bc2dab081d00000000000000000000"
    },
    {
      "id": 3,
      "txs": [
        {
          "id": 0,
          "from": "0x617b3a3528F9cDd6630fd3301B9c8911F7Bf063D",
          "to": "0x4d5Cf5032B2a844602278b01199ED191A86c93ff",
          "nonce": 0,
          "value": "0.1",
          "gasLimit": 100000,
          "gasPrice": "1",
          "chainId": 401,
          "rawTx": "0xf86e80843b9aca00830186a0944d5cf5032b2a844602278b01199ed191a86c93ff88016345785d8a000080820346a06e209c61ca92c2b980d6197e7ac9ccc3f547bf13be6455dfe682aa5dda9655efa016819a7edcc3fefec81ca97c7a6f3d10ec774440e409adbba693ce8b698d41f1",
          "reason": "TX INVALID: Chain ID does not match"
        },
        {
          "id": 1,
          "from": "0x617b3a3528F9cDd6630fd3301B9c8911F7Bf063D",
          "to": "0x4d5Cf5032B2a844602278b01199ED191A86c93f",
          "nonce": 0,
          "value": "0.1",
          "gasLimit": 100000,
          "gasPrice": "1",
          "chainId": 400,
          "reason": ""
        },
        {
          "id": 2,
          "from": "0x617b3a3528F9cDd6630fd3301B9c8911F7Bf03D",
          "to": "0x4d5Cf5032B2a844602278b01199ED191A86c93ff",
          "nonce": 0,
          "value": "0.1",
          "gasLimit": 100000,
          "gasPrice": "1",
          "chainId": 400,
          "reason": ""
        },
        {
          "id": 3,
          "from": "0x617b3a3528F9cDd6630fd3301B9c8911F7Bf063D",
          "to": "0x4d5Cf5032B2a844602278b01199ED191A86c93ff",
          "nonce": 0,
          "value": "100",
          "gasLimit": 100000,
          "gasPrice": "1",
          "chainId": 400,
          "rawTx": "0xf86f80843b9aca00830186a0944d5cf5032b2a844602278b01199ed191a86c93ff89056bc75e2d6310000080820344a04d33f299985c01a539ca9f7c04c700c49cd93ab8af32d61df807b7c66bec2af7a01fec7d7cd8ac1587fdfff9da57fca66117dc86cf264cd13bf9d7660d7f7b0ef4",
          "reason": "TX INVALID: Not enough funds to pay total transaction cost"
        }
      ],
      "batchL2Data": "0xf8e5b870f86e80843b9aca00830186a0944d5cf5032b2a844602278b01199ed191a86c93ff88016345785d8a000080820346a06e209c61ca92c2b980d6197e7ac9ccc3f547bf13be6455dfe682aa5dda9655efa016819a7edcc3fefec81ca97c7a6f3d10ec774440e409adbba693ce8b698d41f1b871f86f80843b9aca00830186a0944d5cf5032b2a844602278b01199ed191a86c93ff89056bc75e2d6310000080820344a04d33f299985c01a539ca9f7c04c700c49cd93ab8af32d61df807b7c66bec2af7a01fec7d7cd8ac1587fdfff9da57fca66117dc86cf264cd13bf9d7660d7f7b0ef4",
      "batchHashData": "0x1ff3ebb4ffef67e4fa63fd1594619bae630462204580dd729c928f19274ad2e8",
      "maticAmount": "1000000000000000000",
      "fullCallData": "0x06d6490f00000000000000000000000000000000000000000000000000000000000000400000000000000000000000000000000000000000000000000de0b6b3a764000000000000000000000000000000000000000000000000000000000000000000e7f8e5b870f86e80843b9aca00830186a0944d5cf5032b2a844602278b01199ed191a86c93ff88016345785d8a000080820346a06e209c61ca92c2b980d6197e7ac9ccc3f547bf13be6455dfe682aa5dda9655efa016819a7edcc3fefec81ca97c7a6f3d10ec774440e409adbba693ce8b698d41f1b871f86f80843b9aca00830186a0944d5cf5032b2a844602278b01199ed191a86c93ff89056bc75e2d6310000080820344a04d33f299985c01a539ca9f7c04c700c49cd93ab8af32d61df807b7c66bec2af7a01fec7d7cd8ac1587fdfff9da57fca66117dc86cf264cd13bf9d7660d7f7b0ef400000000000000000000000000000000000000000000000000"
    },
    {
      "id": 4,
      "txs": [
        {
          "encodeInvalidData": true,
          "id": 0,
          "from": "0x617b3a3528F9cDd6630fd3301B9c8911F7Bf063D",
          "to": "0x4d5Cf5032B2a844602278b01199ED191A86c93ff",
          "nonce": 0,
          "value": "0.1",
          "gasLimit": 100000,
          "gasPrice": "1",
          "chainId": 400,
          "rawTx": "0xf86e80843b9aca00830186a0944d5cf5032b2a844602278b01199ed191a86c93ff88016345785d8a000080820344a0a9683074bcc81dba07fad2ac4015cf2eba4807c1aa1a8d291e77317a45fc2023a03d9ad247102178817ab2714984b4deb48bedd6ec06da0471745a81c60d1ab0b5",
          "reason": "TX INVALID: Failed to RLP decode raw transaction"
        }
      ],
      "batchL2Data": "0xf86fb86df86e80843b9aca00830186a0944d5cf5032b2a844602278b01199ed191a86c93ff88016345785d8a000080820344a0a9683074bcc81dba07fad2ac4015cf2eba4807c1aa1a8d291e77317a45fc2023a03d9ad247102178817ab2714984b4deb48bedd6ec06da0471745a81c60d",
      "batchHashData": "0x82190fb3005ab648ee812e3ec5d3699c033e6ddf67e5b1e08b84f818a1c2b51d",
      "maticAmount": "1000000000000000000",
      "fullCallData": "0x06d6490f00000000000000000000000000000000000000000000000000000000000000400000000000000000000000000000000000000000000000000de0b6b3a76400000000000000000000000000000000000000000000000000000000000000000071f86fb86df86e80843b9aca00830186a0944d5cf5032b2a844602278b01199ed191a86c93ff88016345785d8a000080820344a0a9683074bcc81dba07fad2ac4015cf2eba4807c1aa1a8d291e77317a45fc2023a03d9ad247102178817ab2714984b4deb48bedd6ec06da0471745a81c60d000000000000000000000000000000"
    },
    {
      "id": 5,
      "txs": [
        {
          "from": "0x617b3a3528F9cDd6630fd3301B9c8911F7Bf063D",
          "to": "0x617b3a3528F9cDd6630fd3301B9c8911F7Bf063D",
          "nonce": 0,
          "value": "0.1",
          "gasLimit": 100000,
          "gasPrice": "1",
          "chainId": 400,
          "rawTx": "0xf86e80843b9aca00830186a094617b3a3528f9cdd6630fd3301b9c8911f7bf063d88016345785d8a000080820343a0a9894ddb50be38c1442cbed273caf03811c12c3d5f3c94cf73926fbb09918fdea035f8e8c0e39d93b49755c492f16361588c5964479fef75a2992fa6618e19a3e4",
          "reason": ""
        }
      ],
      "batchL2Data": "0xf872b870f86e80843b9aca00830186a094617b3a3528f9cdd6630fd3301b9c8911f7bf063d88016345785d8a000080820343a0a9894ddb50be38c1442cbed273caf03811c12c3d5f3c94cf73926fbb09918fdea035f8e8c0e39d93b49755c492f16361588c5964479fef75a2992fa6618e19a3e4",
      "batchHashData": "0x0dfe56f04279d8459ea45d1bbbf330a9cae19888213d98054ebef19262fe3865",
      "maticAmount": "1000000000000000000",
      "fullCallData": "0x06d6490f00000000000000000000000000000000000000000000000000000000000000400000000000000000000000000000000000000000000000000de0b6b3a76400000000000000000000000000000000000000000000000000000000000000000074f872b870f86e80843b9aca00830186a094617b3a3528f9cdd6630fd3301b9c8911f7bf063d88016345785d8a000080820343a0a9894ddb50be38c1442cbed273caf03811c12c3d5f3c94cf73926fbb09918fdea035f8e8c0e39d93b49755c492f16361588c5964479fef75a2992fa6618e19a3e4000000000000000000000000"
    }
  ]