[
    {
        "id": 1,
        "description": "5 accounts. 2 valid tx, 3 invalid tx (same amount as balance, invalid nonce, invalid chain id 0)",
        "arity": 4,
        "chainIdSequencer": 400,
        "defaultChainId": 1000,
        "sequencerAddress": "0x617b3a3528F9cDd6630fd3301B9c8911F7Bf063D",
        "sequencerPvtKey": "0x28b2b0318721be8c8339199172cd7cc8f5e273800a35616ec893083a4b32c02e",
        "genesis": [
            {
                "address": "0x617b3a3528F9cDd6630fd3301B9c8911F7Bf063D",
                "pvtKey": "0x28b2b0318721be8c8339199172cd7cc8f5e273800a35616ec893083a4b32c02e",
                "balance": "100000000000000000000",
                "nonce": "0"
            },
            {
                "address": "0x4d5Cf5032B2a844602278b01199ED191A86c93ff",
                "pvtKey": "0x4d27a600dce8c29b7bd080e29a26972377dbb04d7a27d919adbb602bf13cfd23",
                "balance": "200000000000000000000",
                "nonce": "0"
            },
            {
                "address": "0xeB17ce701E9D92724AA2ABAdA7E4B28830597Dd9",
                "pvtKey": "0x1d0722aff4b29780e9a78e0bf28d5e127fb276cfbb0c3eb6a0e1728401777f17",
                "balance": "100000000000000000000",
                "nonce": "0"
            },
            {
                "address": "0x187Bd40226A7073b49163b1f6c2b73d8F2aa8478",
                "pvtKey": "0xd049e68efa0d85a3824c0b79f6817a986bb0cb3a075bcc2699118eca881d70ce",
                "balance": "000000000000000000000",
                "nonce": "0"
            },
            {
                "address": "0xabCcEd19d7f290B84608feC510bEe872CC8F5112",
                "pvtKey": "0x0b929d50d7fda8155539e6befa96ff297e3e9ebce4d908f570310bdf774cb32b",
                "balance": "000000000000000000000",
                "nonce": "0"
            }
        ],
        "expectedOldRoot": "10742956179515319100591595038388130427995406579252011098325992000171378207294",
        "txs": [
            {
                "id": 0,
                "from": "0x617b3a3528F9cDd6630fd3301B9c8911F7Bf063D",
                "to": "0x4d5Cf5032B2a844602278b01199ED191A86c93ff",
                "nonce": 0,
                "value": "100000000000000000",
                "gasLimit": 100000,
                "gasPrice": "1000000000",
                "chainId": 400,
                "rawTx": "0xf86e80843b9aca00830186a0944d5cf5032b2a844602278b01199ed191a86c93ff88016345785d8a000080820344a0a9683074bcc81dba07fad2ac4015cf2eba4807c1aa1a8d291e77317a45fc2023a03d9ad247102178817ab2714984b4deb48bedd6ec06da0471745a81c60d1ab0b5"
            },
            {
                "id": 1,
                "from": "0xeB17ce701E9D92724AA2ABAdA7E4B28830597Dd9",
                "to": "0x187Bd40226A7073b49163b1f6c2b73d8F2aa8478",
                "nonce": 0,
                "value": "1000000000000000000000",
                "gasLimit": 100000,
                "gasPrice": "1000000000",
                "chainId": 400,
                "rawTx": "0xf86f80843b9aca00830186a094187bd40226a7073b49163b1f6c2b73d8f2aa8478893635c9adc5dea0000080820343a0d0f11c506e8606f49759222a30e767212c6f6f671c6c4073664b49cc1ff3dde2a02dd180dea53b190e6053fe9c467672c5fdb299b3b2fd5e9cf7497b52d1bcd80f"
            },
            {
                "id": 2,
                "from": "0xeB17ce701E9D92724AA2ABAdA7E4B28830597Dd9",
                "to": "0x187Bd40226A7073b49163b1f6c2b73d8F2aa8478",
                "nonce": 0,
                "value": "1000000000000000000",
                "gasLimit": 100000,
                "gasPrice": "1000000000",
                "chainId": 1000,
                "rawTx": "0xf86e80843b9aca00830186a094187bd40226a7073b49163b1f6c2b73d8f2aa8478880de0b6b3a7640000808207f4a074ecb6abb3d84c322a4905c60199b8f422b79b940e8a853d580869268009ae31a023fb6caa5b3afc410b79d9b68bf851df1fd46fd6923cc481b3e273aeb92ce67d"
            },
            {
                "id": 3,
                "from": "0xeB17ce701E9D92724AA2ABAdA7E4B28830597Dd9",
                "to": "0xabCcEd19d7f290B84608feC510bEe872CC8F5112",
                "nonce": 0,
                "value": "1000000000000000000",
                "gasLimit": 100000,
                "gasPrice": "1000000000",
                "chainId": 400,
                "rawTx": "0xf86e80843b9aca00830186a094abcced19d7f290b84608fec510bee872cc8f5112880de0b6b3a764000080820343a0b3672951e7ad1c60799a7c5ea89eee4165b2bedce92517ca410b5efcf5471f2ba012c3894e1d00ef3ad457495e46ce38fdbbc901802ca61db9832a9a024f491e51"
            },
            {
                "id": 4,
                "from": "0xeB17ce701E9D92724AA2ABAdA7E4B28830597Dd9",
                "to": "0xabCcEd19d7f290B84608feC510bEe872CC8F5112",
                "nonce": 0,
                "value": "1000000000000000000",
                "gasLimit": 100000,
                "gasPrice": "1000000000",
                "chainId": 3333,
                "rawTx": "0xf86e80843b9aca00830186a094abcced19d7f290b84608fec510bee872cc8f5112880de0b6b3a764000080821a2da0d78fe650ae7e2f7c909ad72f661bfe72aa2d502f9f2bbfad3880a4a7e0abf898a06b98f2a902dd06a89f948baa64f32d301d3ced92d231ccdea79f909a73aa050f"
            }
        ],
        "expectedNewRoot": "9568962050771181857833105459529305734534076689529052064550105938569302461613",
        "expectedNewLeafs": {
            "0x617b3a3528F9cDd6630fd3301B9c8911F7Bf063D": {
                "balance": "99900021000000000000",
                "nonce": "1"
            },
            "0x4d5Cf5032B2a844602278b01199ED191A86c93ff": {
                "balance": "200100000000000000000",
                "nonce": "0"
            },
            "0xeB17ce701E9D92724AA2ABAdA7E4B28830597Dd9": {
                "balance": "98999979000000000000",
                "nonce": "1"
            },
            "0x187Bd40226A7073b49163b1f6c2b73d8F2aa8478": {
                "balance": "1000000000000000000",
                "nonce": "0"
            },
            "0xabCcEd19d7f290B84608feC510bEe872CC8F5112": {
                "balance": "0",
                "nonce": "0"
            }
        }
    },
    {
        "id": 2,
        "description": "2 accounts and 1 invalid tx (tx with more value than balance). Old root equals new root.",
        "arity": 4,
        "chainIdSequencer": 400,
        "defaultChainId": 1000,
        "sequencerAddress": "0x617b3a3528F9cDd6630fd3301B9c8911F7Bf063D",
        "sequencerPvtKey": "0x28b2b0318721be8c8339199172cd7cc8f5e273800a35616ec893083a4b32c02e",
        "genesis": [
            {
                "address": "0x617b3a3528F9cDd6630fd3301B9c8911F7Bf063D",
                "pvtKey": "0x28b2b0318721be8c8339199172cd7cc8f5e273800a35616ec893083a4b32c02e",
                "balance": "100000000000000000000",
                "nonce": "0"
            },
            {
                "address": "0x4d5Cf5032B2a844602278b01199ED191A86c93ff",
                "pvtKey": "0x4d27a600dce8c29b7bd080e29a26972377dbb04d7a27d919adbb602bf13cfd23",
                "balance": "200000000000000000000",
                "nonce": "0"
            }
        ],
        "expectedOldRoot": "4091651772388093439828475955668620102367778455436412389529460210592290187513",
        "txs": [
            {
                "id": 0,
                "from": "0x617b3a3528F9cDd6630fd3301B9c8911F7Bf063D",
                "to": "0x4d5Cf5032B2a844602278b01199ED191A86c93ff",
                "nonce": 0,
                "value": "10000000000000000000000",
                "gasLimit": 100000,
                "gasPrice": "1000000000",
                "chainId": 400,
                "rawTx": "0xf87080843b9aca00830186a0944d5cf5032b2a844602278b01199ed191a86c93ff8a021e19e0c9bab240000080820344a001b48d462a4d85e850d36a297d79cd78235b6aa98d0e76318a8e2c4dcd39d881a0277093ef3e6d2f2970e6386eefaac403f7575a5a7855ab0b4ccad6bc2dab081d"
            }
        ],
        "expectedNewRoot": "4091651772388093439828475955668620102367778455436412389529460210592290187513",
        "expectedNewLeafs": {
            "0x617b3a3528F9cDd6630fd3301B9c8911F7Bf063D": {
                "balance": "100000000000000000000",
                "nonce": "0"
            },
            "0x4d5Cf5032B2a844602278b01199ED191A86c93ff": {
                "balance": "200000000000000000000",
                "nonce": "0"
            }
        }
    },
    {
        "id": 3,
        "description": "2 accounts and 4 invalid transactions. Two of the transactions have invalid from and to address so no rawTx is provided for them, can be ignored.Tx with same amount than balance and tx with invalid chain id (different chain id than sequencer). Old root equals new root",
        "arity": 4,
        "chainIdSequencer": 400,
        "defaultChainId": 1000,
        "sequencerAddress": "0x617b3a3528F9cDd6630fd3301B9c8911F7Bf063D",
        "sequencerPvtKey": "0x28b2b0318721be8c8339199172cd7cc8f5e273800a35616ec893083a4b32c02e",
        "genesis": [
            {
                "address": "0x617b3a3528F9cDd6630fd3301B9c8911F7Bf063D",
                "pvtKey": "0x28b2b0318721be8c8339199172cd7cc8f5e273800a35616ec893083a4b32c02e",
                "balance": "100000000000000000000",
                "nonce": "0"
            },
            {
                "address": "0x4d5Cf5032B2a844602278b01199ED191A86c93ff",
                "pvtKey": "0x4d27a600dce8c29b7bd080e29a26972377dbb04d7a27d919adbb602bf13cfd23",
                "balance": "200000000000000000000",
                "nonce": "0"
            }
        ],
        "expectedOldRoot": "4091651772388093439828475955668620102367778455436412389529460210592290187513",
        "txs": [
            {
                "id": 0,
                "from": "0x617b3a3528F9cDd6630fd3301B9c8911F7Bf063D",
                "to": "0x4d5Cf5032B2a844602278b01199ED191A86c93ff",
                "nonce": 0,
                "value": "100000000000000000",
                "gasLimit": 100000,
                "gasPrice": "1000000000",
                "chainId": 401,
                "rawTx": "0xf86e80843b9aca00830186a0944d5cf5032b2a844602278b01199ed191a86c93ff88016345785d8a000080820346a06e209c61ca92c2b980d6197e7ac9ccc3f547bf13be6455dfe682aa5dda9655efa016819a7edcc3fefec81ca97c7a6f3d10ec774440e409adbba693ce8b698d41f1"
            },
            {
                "id": 1,
                "from": "0x617b3a3528F9cDd6630fd3301B9c8911F7Bf063D",
                "to": "0x4d5Cf5032B2a844602278b01199ED191A86c93f",
                "nonce": 0,
                "value": "100000000000000000",
                "gasLimit": 100000,
                "gasPrice": "1000000000",
                "chainId": 400
            },
            {
                "id": 2,
                "from": "0x617b3a3528F9cDd6630fd3301B9c8911F7Bf03D",
                "to": "0x4d5Cf5032B2a844602278b01199ED191A86c93ff",
                "nonce": 0,
                "value": "100000000000000000",
                "gasLimit": 100000,
                "gasPrice": "1000000000",
                "chainId": 400
            },
            {
                "id": 3,
                "from": "0x617b3a3528F9cDd6630fd3301B9c8911F7Bf063D",
                "to": "0x4d5Cf5032B2a844602278b01199ED191A86c93ff",
                "nonce": 0,
                "value": "100000000000000000000",
                "gasLimit": 100000,
                "gasPrice": "1000000000",
                "chainId": 400,
                "rawTx": "0xf86f80843b9aca00830186a0944d5cf5032b2a844602278b01199ed191a86c93ff89056bc75e2d6310000080820344a04d33f299985c01a539ca9f7c04c700c49cd93ab8af32d61df807b7c66bec2af7a01fec7d7cd8ac1587fdfff9da57fca66117dc86cf264cd13bf9d7660d7f7b0ef4"
            }
        ],
        "expectedNewRoot": "4091651772388093439828475955668620102367778455436412389529460210592290187513",
        "expectedNewLeafs": {
            "0x617b3a3528F9cDd6630fd3301B9c8911F7Bf063D": {
                "balance": "100000000000000000000",
                "nonce": "0"
            },
            "0x4d5Cf5032B2a844602278b01199ED191A86c93ff": {
                "balance": "200000000000000000000",
                "nonce": "0"
            }
        }
    },
    {
        "id": 4,
        "description": "2 accounts and 1 invalid transaction. Wrong encode of the tx (invalid signature). Old root equals new root",
        "arity": 4,
        "chainIdSequencer": 400,
        "defaultChainId": 1000,
        "sequencerAddress": "0x617b3a3528F9cDd6630fd3301B9c8911F7Bf063D",
        "sequencerPvtKey": "0x28b2b0318721be8c8339199172cd7cc8f5e273800a35616ec893083a4b32c02e",
        "genesis": [
            {
                "address": "0x617b3a3528F9cDd6630fd3301B9c8911F7Bf063D",
                "pvtKey": "0x28b2b0318721be8c8339199172cd7cc8f5e273800a35616ec893083a4b32c02e",
                "balance": "100000000000000000000",
                "nonce": "0"
            },
            {
                "address": "0x4d5Cf5032B2a844602278b01199ED191A86c93ff",
                "pvtKey": "0x4d27a600dce8c29b7bd080e29a26972377dbb04d7a27d919adbb602bf13cfd23",
                "balance": "200000000000000000000",
                "nonce": "0"
            }
        ],
        "expectedOldRoot": "4091651772388093439828475955668620102367778455436412389529460210592290187513",
        "txs": [
            {
                "id": 0,
                "from": "0x617b3a3528F9cDd6630fd3301B9c8911F7Bf063D",
                "to": "0x4d5Cf5032B2a844602278b01199ED191A86c93ff",
                "nonce": 0,
                "value": "100000000000000000",
                "gasLimit": 100000,
                "gasPrice": "1000000000",
                "chainId": 400,
                "rawTx": "0xf86e80843b9aca00830186a0944d5cf5032b2a844602278b01199ed191a86c93ff88016345785d8a000080820344a0a9683074bcc81dba07fad2ac4015cf2eba4807c1aa1a8d291e77317a45fc2023a03d9ad247102178817ab2714984b4deb48bedd6ec06da0471745a81c60d1ab0b5",
                "overwrite": {
                    "s": "0xa9683074bcc81dba05fad2ac4015sf2eba4807c1aa1a8d291e77317a45fc2023"
                }
            }
        ],
        "expectedNewRoot": "4091651772388093439828475955668620102367778455436412389529460210592290187513",
        "expectedNewLeafs": {
            "0x617b3a3528F9cDd6630fd3301B9c8911F7Bf063D": {
                "balance": "100000000000000000000",
                "nonce": "0"
            },
            "0x4d5Cf5032B2a844602278b01199ED191A86c93ff": {
                "balance": "200000000000000000000",
                "nonce": "0"
            }
        }
    },
    {
        "id": 5,
        "description": "2 accounts and 4 valid transaction, 4 transactions from the same account",
        "arity": 4,
        "chainIdSequencer": 400,
        "defaultChainId": 1000,
        "sequencerAddress": "0x617b3a3528F9cDd6630fd3301B9c8911F7Bf063D",
        "sequencerPvtKey": "0x28b2b0318721be8c8339199172cd7cc8f5e273800a35616ec893083a4b32c02e",
        "genesis": [
            {
                "address": "0x617b3a3528F9cDd6630fd3301B9c8911F7Bf063D",
                "pvtKey": "0x28b2b0318721be8c8339199172cd7cc8f5e273800a35616ec893083a4b32c02e",
                "balance": "100000000000000000000",
                "nonce": "0"
            },
            {
                "address": "0x4d5Cf5032B2a844602278b01199ED191A86c93ff",
                "pvtKey": "0x4d27a600dce8c29b7bd080e29a26972377dbb04d7a27d919adbb602bf13cfd23",
                "balance": "200000000000000000000",
                "nonce": "0"
            }
        ],
        "expectedOldRoot": "4091651772388093439828475955668620102367778455436412389529460210592290187513",
        "txs": [
            {
                "id": 0,
                "from": "0x617b3a3528F9cDd6630fd3301B9c8911F7Bf063D",
                "to": "0x4d5Cf5032B2a844602278b01199ED191A86c93ff",
                "nonce": 0,
                "value": "100000000000000000",
                "gasLimit": 100000,
                "gasPrice": "1000000000",
                "chainId": 400,
                "customRawTx": "0xee80843b9aca00830186a0944d5cf5032b2a844602278b01199ed191a86c93ff88016345785d8a0000808201908080a9683074bcc81dba07fad2ac4015cf2eba4807c1aa1a8d291e77317a45fc20233d9ad247102178817ab2714984b4deb48bedd6ec06da0471745a81c60d1ab0b51c",
                "reason": "",
                "rawTx": "0xf86e80843b9aca00830186a0944d5cf5032b2a844602278b01199ed191a86c93ff88016345785d8a000080820344a0a9683074bcc81dba07fad2ac4015cf2eba4807c1aa1a8d291e77317a45fc2023a03d9ad247102178817ab2714984b4deb48bedd6ec06da0471745a81c60d1ab0b5"
            },
            {
                "id": 1,
                "from": "0x617b3a3528F9cDd6630fd3301B9c8911F7Bf063D",
                "to": "0x617b3a3528F9cDd6630fd3301B9c8911F7Bf063D",
                "nonce": 1,
                "value": "500000000000000000",
                "gasLimit": 100000,
                "gasPrice": "1000000000",
                "chainId": 400,
                "customRawTx": "0xee01843b9aca00830186a094617b3a3528f9cdd6630fd3301b9c8911f7bf063d8806f05b59d3b20000808201908080966daad89f2700d0a952af6c2d41253e36e0b8407be932127c8835ee22ec96cd788798458602097f91b88b27a9111bf5daab770faf9cea243ea9b308f8ee23b01c",
                "reason": "",
                "rawTx": "0xf86e01843b9aca00830186a094617b3a3528f9cdd6630fd3301b9c8911f7bf063d8806f05b59d3b2000080820344a0966daad89f2700d0a952af6c2d41253e36e0b8407be932127c8835ee22ec96cda0788798458602097f91b88b27a9111bf5daab770faf9cea243ea9b308f8ee23b0"
            },
            {
                "id": 2,
                "from": "0x617b3a3528F9cDd6630fd3301B9c8911F7Bf063D",
                "to": "0x4d5Cf5032B2a844602278b01199ED191A86c93ff",
                "nonce": 2,
                "value": "100000000000000000",
                "gasLimit": 100000,
                "gasPrice": "1000000000",
                "chainId": 400,
                "customRawTx": "0xee02843b9aca00830186a0944d5cf5032b2a844602278b01199ed191a86c93ff88016345785d8a0000808201908080154b44a51305b1b2c6d0df684c65a5750498b0f655bcde6f44f31290a518ebed0871fa358bac2968d3a86295f0db55ef9d3e47ba01427ef32debecccbd9e2b7f1c",
                "reason": "",
                "rawTx": "0xf86e02843b9aca00830186a0944d5cf5032b2a844602278b01199ed191a86c93ff88016345785d8a000080820344a0154b44a51305b1b2c6d0df684c65a5750498b0f655bcde6f44f31290a518ebeda00871fa358bac2968d3a86295f0db55ef9d3e47ba01427ef32debecccbd9e2b7f"
            },
            {
                "id": 3,
                "from": "0x617b3a3528F9cDd6630fd3301B9c8911F7Bf063D",
                "to": "0x617b3a3528F9cDd6630fd3301B9c8911F7Bf063D",
                "nonce": 3,
                "value": "500000000000000000",
                "gasLimit": 100000,
                "gasPrice": "1000000000",
                "chainId": 400,
                "customRawTx": "0xee03843b9aca00830186a094617b3a3528f9cdd6630fd3301b9c8911f7bf063d8806f05b59d3b2000080820190808064d28e3395754da8678c49820a4ded0de5450124b50a37911ad193bda88f01cd31092a88fc3ee864954be39d13e384ed9a327281707d68149476eb886621cc051b",
                "reason": "",
                "rawTx": "0xf86e03843b9aca00830186a094617b3a3528f9cdd6630fd3301b9c8911f7bf063d8806f05b59d3b2000080820343a064d28e3395754da8678c49820a4ded0de5450124b50a37911ad193bda88f01cda031092a88fc3ee864954be39d13e384ed9a327281707d68149476eb886621cc05"
            }
        ],
        "expectedNewRoot": "12216518194920633713911727006448922635203116916416617939157964855446671123831",
        "expectedNewLeafs": {
            "0x617b3a3528F9cDd6630fd3301B9c8911F7Bf063D": {
                "balance": "99800000000000000000",
                "nonce": "4"
            },
            "0x4d5Cf5032B2a844602278b01199ED191A86c93ff": {
                "balance": "200200000000000000000",
                "nonce": "0"
            }
        },
        "batchL2Data": "0xee80843b9aca00830186a0944d5cf5032b2a844602278b01199ed191a86c93ff88016345785d8a0000808201908080a9683074bcc81dba07fad2ac4015cf2eba4807c1aa1a8d291e77317a45fc20233d9ad247102178817ab2714984b4deb48bedd6ec06da0471745a81c60d1ab0b51cee01843b9aca00830186a094617b3a3528f9cdd6630fd3301b9c8911f7bf063d8806f05b59d3b20000808201908080966daad89f2700d0a952af6c2d41253e36e0b8407be932127c8835ee22ec96cd788798458602097f91b88b27a9111bf5daab770faf9cea243ea9b308f8ee23b01cee02843b9aca00830186a0944d5cf5032b2a844602278b01199ed191a86c93ff88016345785d8a0000808201908080154b44a51305b1b2c6d0df684c65a5750498b0f655bcde6f44f31290a518ebed0871fa358bac2968d3a86295f0db55ef9d3e47ba01427ef32debecccbd9e2b7f1cee03843b9aca00830186a094617b3a3528f9cdd6630fd3301b9c8911f7bf063d8806f05b59d3b2000080820190808064d28e3395754da8678c49820a4ded0de5450124b50a37911ad193bda88f01cd31092a88fc3ee864954be39d13e384ed9a327281707d68149476eb886621cc051b",
        "globalExitRoot": "0x090bcaf734c4f06c93954a827b45a6e8c67b8e0fd1e0a35a1c5982d6961828f9",
        "newLocalExitRoot": "0x17c04c3760510b48c6012742c540a81aba4bca2f78b9d14bfd2f123e2e53ea3e",
        "inputHash": "0x017f299b73c26882eadf86c2dc8e1be261db58eecd111823e9df84b7ade9daeb",
        "batchHashData": "0xe03f903f74a2ea496534c9125fdc6e7a3aeb18d7923f13aed0a8196b0d6ce15b",
        "localExitRoot": "0x17c04c3760510b48c6012742c540a81aba4bca2f78b9d14bfd2f123e2e53ea3e",
        "timestamp": 1944498031
    }
]