[
    {
        "id": 1,
        "description": "5 accounts. 2 valid tx, 3 invalid tx (same amount as balance, invalid nonce, invalid chain id 0)",
        "arity": 4,
        "chainIdSequencer": 400,
        "defaultChainId": 1000,
        "sequencerAddress": "0x617b3a3528F9cDd6630fd3301B9c8911F7Bf063D",
        "sequencerPvtKey": "0x28b2b0318721be8c8339199172cd7cc8f5e273800a35616ec893083a4b32c02e",
        "genesisSC": [
            {
                "address": "0xAb8483F64d9C6d1EcF9b849Ae677dD3315835cb2",
                "bytecode": "608060405234801561001057600080fd5b50610150806100206000396000f3fe608060405234801561001057600080fd5b50600436106100365760003560e01c80632e64cec11461003b5780636057361d14610059575b600080fd5b610043610075565b60405161005091906100d9565b60405180910390f35b610073600480360381019061006e919061009d565b61007e565b005b60008054905090565b8060008190555050565b60008135905061009781610103565b92915050565b6000602082840312156100b3576100b26100fe565b5b60006100c184828501610088565b91505092915050565b6100d3816100f4565b82525050565b60006020820190506100ee60008301846100ca565b92915050565b6000819050919050565b600080fd5b61010c816100f4565b811461011757600080fd5b5056fea2646970667358221220404e37f487a89a932dca5e77faaf6ca2de3b991f93d230604b1b8daaef64766264736f6c63430008070033"
            },
            {
                "address": "0x617F2E2fD72FD9D5503197092aC168c91465E7f2",
                "bytecode": "608060405234801561001057600080fd5b50336000806101000a81548173ffffffffffffffffffffffffffffffffffffffff021916908373ffffffffffffffffffffffffffffffffffffffff16021790555060008054906101000a900473ffffffffffffffffffffffffffffffffffffffff1673ffffffffffffffffffffffffffffffffffffffff16600073ffffffffffffffffffffffffffffffffffffffff167f342827c97908e5e2f71151c08502a66d44b6f758e3ac2f1de95f02eb95f0a73560405160405180910390a3610356806100db6000396000f3fe608060405234801561001057600080fd5b50600436106100365760003560e01c8063893d20e81461003b578063a6f9dae114610059575b600080fd5b610043610075565b604051610050919061025d565b60405180910390f35b610073600480360381019061006e91906101fe565b61009e565b005b60008060009054906101000a900473ffffffffffffffffffffffffffffffffffffffff16905090565b60008054906101000a900473ffffffffffffffffffffffffffffffffffffffff1673ffffffffffffffffffffffffffffffffffffffff163373ffffffffffffffffffffffffffffffffffffffff161461012c576040517f08c379a000000000000000000000000000000000000000000000000000000000815260040161012390610278565b60405180910390fd5b8073ffffffffffffffffffffffffffffffffffffffff1660008054906101000a900473ffffffffffffffffffffffffffffffffffffffff1673ffffffffffffffffffffffffffffffffffffffff167f342827c97908e5e2f71151c08502a66d44b6f758e3ac2f1de95f02eb95f0a73560405160405180910390a3806000806101000a81548173ffffffffffffffffffffffffffffffffffffffff021916908373ffffffffffffffffffffffffffffffffffffffff16021790555050565b6000813590506101f881610309565b92915050565b600060208284031215610214576102136102db565b5b6000610222848285016101e9565b91505092915050565b610234816102a9565b82525050565b6000610247601383610298565b9150610252826102e0565b602082019050919050565b6000602082019050610272600083018461022b565b92915050565b600060208201905081810360008301526102918161023a565b9050919050565b600082825260208201905092915050565b60006102b4826102bb565b9050919050565b600073ffffffffffffffffffffffffffffffffffffffff82169050919050565b600080fd5b7f43616c6c6572206973206e6f74206f776e657200000000000000000000000000600082015250565b610312816102a9565b811461031d57600080fd5b5056fea26469706673582212208f65d9c920a5e7c951f66594688d8b1bb886420d647e05d3e5c9ec7eeab019cd64736f6c63430008070033"
            }
        ],
        "expectedOldRoot": "10742956179515319100591595038388130427995406579252011098325992000171378207294",
        "txs": [
            {
                "id": 0,
                "from": "0x617b3a3528F9cDd6630fd3301B9c8911F7Bf063D",
                "to": "0x4d5Cf5032B2a844602278b01199ED191A86c93ff",
                "nonce": 0,
                "value": "100000000000000000",
                "gasLimit": 100000,
                "gasPrice": "1000000000",
                "chainId": 400,
                "rawTx": "0xf86e80843b9aca00830186a0944d5cf5032b2a844602278b01199ed191a86c93ff88016345785d8a000080820344a0a9683074bcc81dba07fad2ac4015cf2eba4807c1aa1a8d291e77317a45fc2023a03d9ad247102178817ab2714984b4deb48bedd6ec06da0471745a81c60d1ab0b5"
            },
            {
                "id": 1,
                "from": "0xeB17ce701E9D92724AA2ABAdA7E4B28830597Dd9",
                "to": "0x187Bd40226A7073b49163b1f6c2b73d8F2aa8478",
                "nonce": 0,
                "value": "1000000000000000000000",
                "gasLimit": 100000,
                "gasPrice": "1000000000",
                "chainId": 400,
                "rawTx": "0xf86f80843b9aca00830186a094187bd40226a7073b49163b1f6c2b73d8f2aa8478893635c9adc5dea0000080820343a0d0f11c506e8606f49759222a30e767212c6f6f671c6c4073664b49cc1ff3dde2a02dd180dea53b190e6053fe9c467672c5fdb299b3b2fd5e9cf7497b52d1bcd80f"
            },
            {
                "id": 2,
                "from": "0xeB17ce701E9D92724AA2ABAdA7E4B28830597Dd9",
                "to": "0x187Bd40226A7073b49163b1f6c2b73d8F2aa8478",
                "nonce": 0,
                "value": "1000000000000000000",
                "gasLimit": 100000,
                "gasPrice": "1000000000",
                "chainId": 1000,
                "rawTx": "0xf86e80843b9aca00830186a094187bd40226a7073b49163b1f6c2b73d8f2aa8478880de0b6b3a7640000808207f4a074ecb6abb3d84c322a4905c60199b8f422b79b940e8a853d580869268009ae31a023fb6caa5b3afc410b79d9b68bf851df1fd46fd6923cc481b3e273aeb92ce67d"
            },
            {
                "id": 3,
                "from": "0xeB17ce701E9D92724AA2ABAdA7E4B28830597Dd9",
                "to": "0xabCcEd19d7f290B84608feC510bEe872CC8F5112",
                "nonce": 0,
                "value": "1000000000000000000",
                "gasLimit": 100000,
                "gasPrice": "1000000000",
                "chainId": 400,
                "rawTx": "0xf86e80843b9aca00830186a094abcced19d7f290b84608fec510bee872cc8f5112880de0b6b3a764000080820343a0b3672951e7ad1c60799a7c5ea89eee4165b2bedce92517ca410b5efcf5471f2ba012c3894e1d00ef3ad457495e46ce38fdbbc901802ca61db9832a9a024f491e51"
            },
            {
                "id": 4,
                "from": "0xeB17ce701E9D92724AA2ABAdA7E4B28830597Dd9",
                "to": "0xabCcEd19d7f290B84608feC510bEe872CC8F5112",
                "nonce": 0,
                "value": "1000000000000000000",
                "gasLimit": 100000,
                "gasPrice": "1000000000",
                "chainId": 3333,
                "rawTx": "0xf86e80843b9aca00830186a094abcced19d7f290b84608fec510bee872cc8f5112880de0b6b3a764000080821a2da0d78fe650ae7e2f7c909ad72f661bfe72aa2d502f9f2bbfad3880a4a7e0abf898a06b98f2a902dd06a89f948baa64f32d301d3ced92d231ccdea79f909a73aa050f"
            }
        ],
        "expectedNewRoot": "9568962050771181857833105459529305734534076689529052064550105938569302461613",
        "expectedNewLeafs": {
            "0x617b3a3528F9cDd6630fd3301B9c8911F7Bf063D": {
                "balance": "99900021000000000000",
                "nonce": "1"
            },
            "0x4d5Cf5032B2a844602278b01199ED191A86c93ff": {
                "balance": "200100000000000000000",
                "nonce": "0"
            },
            "0xeB17ce701E9D92724AA2ABAdA7E4B28830597Dd9": {
                "balance": "98999979000000000000",
                "nonce": "1"
            },
            "0x187Bd40226A7073b49163b1f6c2b73d8F2aa8478": {
                "balance": "1000000000000000000",
                "nonce": "0"
            },
            "0xabCcEd19d7f290B84608feC510bEe872CC8F5112": {
                "balance": "0",
                "nonce": "0"
            }
        }
    },
    {
        "id": 2,
        "description": "2 accounts and 1 invalid tx (tx with more value than balance). Old root equals new root.",
        "arity": 4,
        "chainIdSequencer": 400,
        "defaultChainId": 1000,
        "sequencerAddress": "0x617b3a3528F9cDd6630fd3301B9c8911F7Bf063D",
        "sequencerPvtKey": "0x28b2b0318721be8c8339199172cd7cc8f5e273800a35616ec893083a4b32c02e",
        "genesisSC": [
            {
                "address": "0xAb8483F64d9C6d1EcF9b849Ae677dD3315835cb2",
                "bytecode": "608060405234801561001057600080fd5b50610150806100206000396000f3fe608060405234801561001057600080fd5b50600436106100365760003560e01c80632e64cec11461003b5780636057361d14610059575b600080fd5b610043610075565b60405161005091906100d9565b60405180910390f35b610073600480360381019061006e919061009d565b61007e565b005b60008054905090565b8060008190555050565b60008135905061009781610103565b92915050565b6000602082840312156100b3576100b26100fe565b5b60006100c184828501610088565b91505092915050565b6100d3816100f4565b82525050565b60006020820190506100ee60008301846100ca565b92915050565b6000819050919050565b600080fd5b61010c816100f4565b811461011757600080fd5b5056fea2646970667358221220404e37f487a89a932dca5e77faaf6ca2de3b991f93d230604b1b8daaef64766264736f6c63430008070033"
            },
            {
                "address": "0x617F2E2fD72FD9D5503197092aC168c91465E7f2",
                "bytecode": "608060405234801561001057600080fd5b50336000806101000a81548173ffffffffffffffffffffffffffffffffffffffff021916908373ffffffffffffffffffffffffffffffffffffffff16021790555060008054906101000a900473ffffffffffffffffffffffffffffffffffffffff1673ffffffffffffffffffffffffffffffffffffffff16600073ffffffffffffffffffffffffffffffffffffffff167f342827c97908e5e2f71151c08502a66d44b6f758e3ac2f1de95f02eb95f0a73560405160405180910390a3610356806100db6000396000f3fe608060405234801561001057600080fd5b50600436106100365760003560e01c8063893d20e81461003b578063a6f9dae114610059575b600080fd5b610043610075565b604051610050919061025d565b60405180910390f35b610073600480360381019061006e91906101fe565b61009e565b005b60008060009054906101000a900473ffffffffffffffffffffffffffffffffffffffff16905090565b60008054906101000a900473ffffffffffffffffffffffffffffffffffffffff1673ffffffffffffffffffffffffffffffffffffffff163373ffffffffffffffffffffffffffffffffffffffff161461012c576040517f08c379a000000000000000000000000000000000000000000000000000000000815260040161012390610278565b60405180910390fd5b8073ffffffffffffffffffffffffffffffffffffffff1660008054906101000a900473ffffffffffffffffffffffffffffffffffffffff1673ffffffffffffffffffffffffffffffffffffffff167f342827c97908e5e2f71151c08502a66d44b6f758e3ac2f1de95f02eb95f0a73560405160405180910390a3806000806101000a81548173ffffffffffffffffffffffffffffffffffffffff021916908373ffffffffffffffffffffffffffffffffffffffff16021790555050565b6000813590506101f881610309565b92915050565b600060208284031215610214576102136102db565b5b6000610222848285016101e9565b91505092915050565b610234816102a9565b82525050565b6000610247601383610298565b9150610252826102e0565b602082019050919050565b6000602082019050610272600083018461022b565b92915050565b600060208201905081810360008301526102918161023a565b9050919050565b600082825260208201905092915050565b60006102b4826102bb565b9050919050565b600073ffffffffffffffffffffffffffffffffffffffff82169050919050565b600080fd5b7f43616c6c6572206973206e6f74206f776e657200000000000000000000000000600082015250565b610312816102a9565b811461031d57600080fd5b5056fea26469706673582212208f65d9c920a5e7c951f66594688d8b1bb886420d647e05d3e5c9ec7eeab019cd64736f6c63430008070033"
            }
        ],
        "expectedOldRoot": "4091651772388093439828475955668620102367778455436412389529460210592290187513",
        "txs": [
            {
                "id": 0,
                "from": "0x617b3a3528F9cDd6630fd3301B9c8911F7Bf063D",
                "to": "0x4d5Cf5032B2a844602278b01199ED191A86c93ff",
                "nonce": 0,
                "value": "10000000000000000000000",
                "gasLimit": 100000,
                "gasPrice": "1000000000",
                "chainId": 400,
                "rawTx": "0xf87080843b9aca00830186a0944d5cf5032b2a844602278b01199ed191a86c93ff8a021e19e0c9bab240000080820344a001b48d462a4d85e850d36a297d79cd78235b6aa98d0e76318a8e2c4dcd39d881a0277093ef3e6d2f2970e6386eefaac403f7575a5a7855ab0b4ccad6bc2dab081d"
            }
        ],
        "expectedNewRoot": "4091651772388093439828475955668620102367778455436412389529460210592290187513",
        "expectedNewLeafs": {
            "0x617b3a3528F9cDd6630fd3301B9c8911F7Bf063D": {
                "balance": "100000000000000000000",
                "nonce": "0"
            },
            "0x4d5Cf5032B2a844602278b01199ED191A86c93ff": {
                "balance": "200000000000000000000",
                "nonce": "0"
            }
        }
    },
    {
        "id": 3,
        "description": "2 accounts and 4 invalid transactions. Two of the transactions have invalid from and to address so no rawTx is provided for them, can be ignored.Tx with same amount than balance and tx with invalid chain id (different chain id than sequencer). Old root equals new root",
        "arity": 4,
        "chainIdSequencer": 400,
        "defaultChainId": 1000,
        "sequencerAddress": "0x617b3a3528F9cDd6630fd3301B9c8911F7Bf063D",
        "sequencerPvtKey": "0x28b2b0318721be8c8339199172cd7cc8f5e273800a35616ec893083a4b32c02e",
        "genesisSC": [
            {
                "address": "0xAb8483F64d9C6d1EcF9b849Ae677dD3315835cb2",
                "bytecode": "608060405234801561001057600080fd5b50610150806100206000396000f3fe608060405234801561001057600080fd5b50600436106100365760003560e01c80632e64cec11461003b5780636057361d14610059575b600080fd5b610043610075565b60405161005091906100d9565b60405180910390f35b610073600480360381019061006e919061009d565b61007e565b005b60008054905090565b8060008190555050565b60008135905061009781610103565b92915050565b6000602082840312156100b3576100b26100fe565b5b60006100c184828501610088565b91505092915050565b6100d3816100f4565b82525050565b60006020820190506100ee60008301846100ca565b92915050565b6000819050919050565b600080fd5b61010c816100f4565b811461011757600080fd5b5056fea2646970667358221220404e37f487a89a932dca5e77faaf6ca2de3b991f93d230604b1b8daaef64766264736f6c63430008070033"
            },
            {
                "address": "0x617F2E2fD72FD9D5503197092aC168c91465E7f2",
                "bytecode": "608060405234801561001057600080fd5b50336000806101000a81548173ffffffffffffffffffffffffffffffffffffffff021916908373ffffffffffffffffffffffffffffffffffffffff16021790555060008054906101000a900473ffffffffffffffffffffffffffffffffffffffff1673ffffffffffffffffffffffffffffffffffffffff16600073ffffffffffffffffffffffffffffffffffffffff167f342827c97908e5e2f71151c08502a66d44b6f758e3ac2f1de95f02eb95f0a73560405160405180910390a3610356806100db6000396000f3fe608060405234801561001057600080fd5b50600436106100365760003560e01c8063893d20e81461003b578063a6f9dae114610059575b600080fd5b610043610075565b604051610050919061025d565b60405180910390f35b610073600480360381019061006e91906101fe565b61009e565b005b60008060009054906101000a900473ffffffffffffffffffffffffffffffffffffffff16905090565b60008054906101000a900473ffffffffffffffffffffffffffffffffffffffff1673ffffffffffffffffffffffffffffffffffffffff163373ffffffffffffffffffffffffffffffffffffffff161461012c576040517f08c379a000000000000000000000000000000000000000000000000000000000815260040161012390610278565b60405180910390fd5b8073ffffffffffffffffffffffffffffffffffffffff1660008054906101000a900473ffffffffffffffffffffffffffffffffffffffff1673ffffffffffffffffffffffffffffffffffffffff167f342827c97908e5e2f71151c08502a66d44b6f758e3ac2f1de95f02eb95f0a73560405160405180910390a3806000806101000a81548173ffffffffffffffffffffffffffffffffffffffff021916908373ffffffffffffffffffffffffffffffffffffffff16021790555050565b6000813590506101f881610309565b92915050565b600060208284031215610214576102136102db565b5b6000610222848285016101e9565b91505092915050565b610234816102a9565b82525050565b6000610247601383610298565b9150610252826102e0565b602082019050919050565b6000602082019050610272600083018461022b565b92915050565b600060208201905081810360008301526102918161023a565b9050919050565b600082825260208201905092915050565b60006102b4826102bb565b9050919050565b600073ffffffffffffffffffffffffffffffffffffffff82169050919050565b600080fd5b7f43616c6c6572206973206e6f74206f776e657200000000000000000000000000600082015250565b610312816102a9565b811461031d57600080fd5b5056fea26469706673582212208f65d9c920a5e7c951f66594688d8b1bb886420d647e05d3e5c9ec7eeab019cd64736f6c63430008070033"
            }
        ],
        "expectedOldRoot": "4091651772388093439828475955668620102367778455436412389529460210592290187513",
        "txs": [
            {
                "id": 0,
                "from": "0x617b3a3528F9cDd6630fd3301B9c8911F7Bf063D",
                "to": "0x4d5Cf5032B2a844602278b01199ED191A86c93ff",
                "nonce": 0,
                "value": "100000000000000000",
                "gasLimit": 100000,
                "gasPrice": "1000000000",
                "chainId": 401,
                "rawTx": "0xf86e80843b9aca00830186a0944d5cf5032b2a844602278b01199ed191a86c93ff88016345785d8a000080820346a06e209c61ca92c2b980d6197e7ac9ccc3f547bf13be6455dfe682aa5dda9655efa016819a7edcc3fefec81ca97c7a6f3d10ec774440e409adbba693ce8b698d41f1"
            },
            {
                "id": 1,
                "from": "0x617b3a3528F9cDd6630fd3301B9c8911F7Bf063D",
                "to": "0x4d5Cf5032B2a844602278b01199ED191A86c93f",
                "nonce": 0,
                "value": "100000000000000000",
                "gasLimit": 100000,
                "gasPrice": "1000000000",
                "chainId": 400
            },
            {
                "id": 2,
                "from": "0x617b3a3528F9cDd6630fd3301B9c8911F7Bf03D",
                "to": "0x4d5Cf5032B2a844602278b01199ED191A86c93ff",
                "nonce": 0,
                "value": "100000000000000000",
                "gasLimit": 100000,
                "gasPrice": "1000000000",
                "chainId": 400
            },
            {
                "id": 3,
                "from": "0x617b3a3528F9cDd6630fd3301B9c8911F7Bf063D",
                "to": "0x4d5Cf5032B2a844602278b01199ED191A86c93ff",
                "nonce": 0,
                "value": "100000000000000000000",
                "gasLimit": 100000,
                "gasPrice": "1000000000",
                "chainId": 400,
                "rawTx": "0xf86f80843b9aca00830186a0944d5cf5032b2a844602278b01199ed191a86c93ff89056bc75e2d6310000080820344a04d33f299985c01a539ca9f7c04c700c49cd93ab8af32d61df807b7c66bec2af7a01fec7d7cd8ac1587fdfff9da57fca66117dc86cf264cd13bf9d7660d7f7b0ef4"
            }
        ],
        "expectedNewRoot": "4091651772388093439828475955668620102367778455436412389529460210592290187513",
        "expectedNewLeafs": {
            "0x617b3a3528F9cDd6630fd3301B9c8911F7Bf063D": {
                "balance": "100000000000000000000",
                "nonce": "0"
            },
            "0x4d5Cf5032B2a844602278b01199ED191A86c93ff": {
                "balance": "200000000000000000000",
                "nonce": "0"
            }
        }
    },
    {
        "id": 4,
        "description": "2 accounts and 1 invalid transaction. Wrong encode of the tx (invalid signature). Old root equals new root",
        "arity": 4,
        "chainIdSequencer": 400,
        "defaultChainId": 1000,
        "sequencerAddress": "0x617b3a3528F9cDd6630fd3301B9c8911F7Bf063D",
        "sequencerPvtKey": "0x28b2b0318721be8c8339199172cd7cc8f5e273800a35616ec893083a4b32c02e",
        "genesisSC": [
            {
                "address": "0xAb8483F64d9C6d1EcF9b849Ae677dD3315835cb2",
                "bytecode": "608060405234801561001057600080fd5b50610150806100206000396000f3fe608060405234801561001057600080fd5b50600436106100365760003560e01c80632e64cec11461003b5780636057361d14610059575b600080fd5b610043610075565b60405161005091906100d9565b60405180910390f35b610073600480360381019061006e919061009d565b61007e565b005b60008054905090565b8060008190555050565b60008135905061009781610103565b92915050565b6000602082840312156100b3576100b26100fe565b5b60006100c184828501610088565b91505092915050565b6100d3816100f4565b82525050565b60006020820190506100ee60008301846100ca565b92915050565b6000819050919050565b600080fd5b61010c816100f4565b811461011757600080fd5b5056fea2646970667358221220404e37f487a89a932dca5e77faaf6ca2de3b991f93d230604b1b8daaef64766264736f6c63430008070033"
            },
            {
                "address": "0x617F2E2fD72FD9D5503197092aC168c91465E7f2",
                "bytecode": "608060405234801561001057600080fd5b50336000806101000a81548173ffffffffffffffffffffffffffffffffffffffff021916908373ffffffffffffffffffffffffffffffffffffffff16021790555060008054906101000a900473ffffffffffffffffffffffffffffffffffffffff1673ffffffffffffffffffffffffffffffffffffffff16600073ffffffffffffffffffffffffffffffffffffffff167f342827c97908e5e2f71151c08502a66d44b6f758e3ac2f1de95f02eb95f0a73560405160405180910390a3610356806100db6000396000f3fe608060405234801561001057600080fd5b50600436106100365760003560e01c8063893d20e81461003b578063a6f9dae114610059575b600080fd5b610043610075565b604051610050919061025d565b60405180910390f35b610073600480360381019061006e91906101fe565b61009e565b005b60008060009054906101000a900473ffffffffffffffffffffffffffffffffffffffff16905090565b60008054906101000a900473ffffffffffffffffffffffffffffffffffffffff1673ffffffffffffffffffffffffffffffffffffffff163373ffffffffffffffffffffffffffffffffffffffff161461012c576040517f08c379a000000000000000000000000000000000000000000000000000000000815260040161012390610278565b60405180910390fd5b8073ffffffffffffffffffffffffffffffffffffffff1660008054906101000a900473ffffffffffffffffffffffffffffffffffffffff1673ffffffffffffffffffffffffffffffffffffffff167f342827c97908e5e2f71151c08502a66d44b6f758e3ac2f1de95f02eb95f0a73560405160405180910390a3806000806101000a81548173ffffffffffffffffffffffffffffffffffffffff021916908373ffffffffffffffffffffffffffffffffffffffff16021790555050565b6000813590506101f881610309565b92915050565b600060208284031215610214576102136102db565b5b6000610222848285016101e9565b91505092915050565b610234816102a9565b82525050565b6000610247601383610298565b9150610252826102e0565b602082019050919050565b6000602082019050610272600083018461022b565b92915050565b600060208201905081810360008301526102918161023a565b9050919050565b600082825260208201905092915050565b60006102b4826102bb565b9050919050565b600073ffffffffffffffffffffffffffffffffffffffff82169050919050565b600080fd5b7f43616c6c6572206973206e6f74206f776e657200000000000000000000000000600082015250565b610312816102a9565b811461031d57600080fd5b5056fea26469706673582212208f65d9c920a5e7c951f66594688d8b1bb886420d647e05d3e5c9ec7eeab019cd64736f6c63430008070033"
            }
        ],
        "expectedOldRoot": "4091651772388093439828475955668620102367778455436412389529460210592290187513",
        "txs": [
            {
                "id": 0,
                "from": "0x617b3a3528F9cDd6630fd3301B9c8911F7Bf063D",
                "to": "0x4d5Cf5032B2a844602278b01199ED191A86c93ff",
                "nonce": 0,
                "value": "100000000000000000",
                "gasLimit": 100000,
                "gasPrice": "1000000000",
                "chainId": 400,
                "rawTx": "0xf86e80843b9aca00830186a0944d5cf5032b2a844602278b01199ed191a86c93ff88016345785d8a000080820344a0a9683074bcc81dba07fad2ac4015cf2eba4807c1aa1a8d291e77317a45fc2023a03d9ad247102178817ab2714984b4deb48bedd6ec06da0471745a81c60d1ab0b5",
                "overwrite": {
                    "s": "0xa9683074bcc81dba05fad2ac4015sf2eba4807c1aa1a8d291e77317a45fc2023"
                }
            }
        ],
        "expectedNewRoot": "4091651772388093439828475955668620102367778455436412389529460210592290187513",
        "expectedNewLeafs": {
            "0x617b3a3528F9cDd6630fd3301B9c8911F7Bf063D": {
                "balance": "100000000000000000000",
                "nonce": "0"
            },
            "0x4d5Cf5032B2a844602278b01199ED191A86c93ff": {
                "balance": "200000000000000000000",
                "nonce": "0"
            }
        }
    }
]