[
  {
    "id": 0,
    "txs": [
      {
        "id": 0,
        "from": "0x617b3a3528F9cDd6630fd3301B9c8911F7Bf063D",
        "to": "0x4d5Cf5032B2a844602278b01199ED191A86c93ff",
        "nonce": 0,
        "value": "100000000000000000",
        "gasLimit": 100000,
        "gasPrice": "1000000000",
        "chainId": 1001,
        "rawTx": "0xf86d80843b9aca00830186a0944d5cf5032b2a844602278b01199ed191a86c93ff88016345785d8a0000808207f5a01186622d03b6b8da7cf111d1ccba5bb185c56deae6a322cebc6dda0556f3cb979f910c26408b64b51c5da36ba2f38ef55ba1cee719d5a6c01225968799907432",
        "reason": "",
        "customRawTx": "0xee80843b9aca00830186a0944d5cf5032b2a844602278b01199ed191a86c93ff88016345785d8a0000808203e980801186622d03b6b8da7cf111d1ccba5bb185c56deae6a322cebc6dda0556f3cb9700910c26408b64b51c5da36ba2f38ef55ba1cee719d5a6c012259687999074321b"
      }
    ],
    "batchL2Data": "0xee80843b9aca00830186a0944d5cf5032b2a844602278b01199ed191a86c93ff88016345785d8a0000808203e980801186622d03b6b8da7cf111d1ccba5bb185c56deae6a322cebc6dda0556f3cb9700910c26408b64b51c5da36ba2f38ef55ba1cee719d5a6c012259687999074321b",
    "polAmount": "1000000000000000000",
    "fullCallData": "0x06d6490f00000000000000000000000000000000000000000000000000000000000000400000000000000000000000000000000000000000000000000de0b6b3a76400000000000000000000000000000000000000000000000000000000000000000070ee80843b9aca00830186a0944d5cf5032b2a844602278b01199ed191a86c93ff88016345785d8a0000808203e980801186622d03b6b8da7cf111d1ccba5bb185c56deae6a322cebc6dda0556f3cb9700910c26408b64b51c5da36ba2f38ef55ba1cee719d5a6c012259687999074321b00000000000000000000000000000000"
  },
  {
    "id": 1,
    "txs": [
      {
        "id": 0,
        "from": "0x617b3a3528F9cDd6630fd3301B9c8911F7Bf063D",
        "to": "0x4d5Cf5032B2a844602278b01199ED191A86c93ff",
        "nonce": 0,
        "value": "100000000000000000",
        "gasLimit": 100000,
        "gasPrice": "1000000000",
        "chainId": 1001,
        "rawTx": "0xf86d80843b9aca00830186a0944d5cf5032b2a844602278b01199ed191a86c93ff88016345785d8a0000808207f5a01186622d03b6b8da7cf111d1ccba5bb185c56deae6a322cebc6dda0556f3cb979f910c26408b64b51c5da36ba2f38ef55ba1cee719d5a6c01225968799907432",
        "reason": "",
        "customRawTx": "0xee80843b9aca00830186a0944d5cf5032b2a844602278b01199ed191a86c93ff88016345785d8a0000808203e980801186622d03b6b8da7cf111d1ccba5bb185c56deae6a322cebc6dda0556f3cb9700910c26408b64b51c5da36ba2f38ef55ba1cee719d5a6c012259687999074321b"
      },
      {
        "id": 1,
        "from": "0xeB17ce701E9D92724AA2ABAdA7E4B28830597Dd9",
        "to": "0x187Bd40226A7073b49163b1f6c2b73d8F2aa8478",
        "nonce": 0,
        "value": "1000000000000000000000",
        "gasLimit": 100000,
        "gasPrice": "1000000000",
        "chainId": 1001,
        "rawTx": "0xf86f80843b9aca00830186a094187bd40226a7073b49163b1f6c2b73d8f2aa8478893635c9adc5dea00000808207f5a04c4fbe884ee8912360f4d00199fd189f11b27fa25eca1b9dcfd3ea686e88042ea0113432240c9e7be8de1e8fc0894b68ff4d37528d820814527b5fa2bd034ef38f",
        "reason": "TX INVALID: Not enough funds to pay total transaction cost",
        "customRawTx": "0xef80843b9aca00830186a094187bd40226a7073b49163b1f6c2b73d8f2aa8478893635c9adc5dea00000808203e980804c4fbe884ee8912360f4d00199fd189f11b27fa25eca1b9dcfd3ea686e88042e113432240c9e7be8de1e8fc0894b68ff4d37528d820814527b5fa2bd034ef38f1b"
      },
      {
        "id": 2,
        "from": "0xeB17ce701E9D92724AA2ABAdA7E4B28830597Dd9",
        "to": "0x187Bd40226A7073b49163b1f6c2b73d8F2aa8478",
        "nonce": 0,
        "value": "1000000000000000000",
        "gasLimit": 100000,
        "gasPrice": "1000000000",
        "chainId": 1000,
        "rawTx": "0xf86e80843b9aca00830186a094187bd40226a7073b49163b1f6c2b73d8f2aa8478880de0b6b3a7640000808207f4a074ecb6abb3d84c322a4905c60199b8f422b79b940e8a853d580869268009ae31a023fb6caa5b3afc410b79d9b68bf851df1fd46fd6923cc481b3e273aeb92ce67d",
        "reason": "",
        "customRawTx": "0xee80843b9aca00830186a094187bd40226a7073b49163b1f6c2b73d8f2aa8478880de0b6b3a7640000808203e8808074ecb6abb3d84c322a4905c60199b8f422b79b940e8a853d580869268009ae3123fb6caa5b3afc410b79d9b68bf851df1fd46fd6923cc481b3e273aeb92ce67d1c"
      },
      {
        "id": 3,
        "from": "0xeB17ce701E9D92724AA2ABAdA7E4B28830597Dd9",
        "to": "0xabCcEd19d7f290B84608feC510bEe872CC8F5112",
        "nonce": 0,
        "value": "1000000000000000000",
        "gasLimit": 100000,
        "gasPrice": "1000000000",
        "chainId": 1001,
        "rawTx": "0xf86e80843b9aca00830186a094abcced19d7f290b84608fec510bee872cc8f5112880de0b6b3a7640000808207f5a0980717290b2314a735dc00db207c20d5a6461f73761c2022986fd78efa7e774da057de08eada05ec67eb78cceaa7be257cb12b5449aa0d7347dca655f94375c967",
        "reason": "TX INVALID: Invalid nonce",
        "customRawTx": "0xee80843b9aca00830186a094abcced19d7f290b84608fec510bee872cc8f5112880de0b6b3a7640000808203e98080980717290b2314a735dc00db207c20d5a6461f73761c2022986fd78efa7e774d57de08eada05ec67eb78cceaa7be257cb12b5449aa0d7347dca655f94375c9671b"
      },
      {
        "id": 4,
        "from": "0xeB17ce701E9D92724AA2ABAdA7E4B28830597Dd9",
        "to": "0xabCcEd19d7f290B84608feC510bEe872CC8F5112",
        "nonce": 0,
        "value": "1000000000000000000",
        "gasLimit": 100000,
        "gasPrice": "1000000000",
        "chainId": 0,
        "reason": "TX INVALID: Chain ID does not match",
        "customRawTx": "0xec80843b9aca00830186a094abcced19d7f290b84608fec510bee872cc8f5112880de0b6b3a764000080808080c58f68d4c65a9a131d17a426ab83da163a43e21f8811a70cd4ca79eb5d26f25d169e8e50ee8483669b2aef296e6dc68464e5af0dc582a54751ef50c2c9207b6b1c",
        "rawTx": "0xf86c80843b9aca00830186a094abcced19d7f290b84608fec510bee872cc8f5112880de0b6b3a7640000801ba02c92035bc11227e9e94ba066a6d77a65c43d29dfb4a855c9464e1b60fabd6334a07171c6dc84816ffcf025040cd6193ecef3928a0c4e4964ddba320826b76c725d"
      }
    ],
    "batchL2Data": "0xee80843b9aca00830186a0944d5cf5032b2a844602278b01199ed191a86c93ff88016345785d8a0000808203e980801186622d03b6b8da7cf111d1ccba5bb185c56deae6a322cebc6dda0556f3cb9700910c26408b64b51c5da36ba2f38ef55ba1cee719d5a6c012259687999074321bef80843b9aca00830186a094187bd40226a7073b49163b1f6c2b73d8f2aa8478893635c9adc5dea00000808203e980804c4fbe884ee8912360f4d00199fd189f11b27fa25eca1b9dcfd3ea686e88042e113432240c9e7be8de1e8fc0894b68ff4d37528d820814527b5fa2bd034ef38f1bee80843b9aca00830186a094187bd40226a7073b49163b1f6c2b73d8f2aa8478880de0b6b3a7640000808203e8808074ecb6abb3d84c322a4905c60199b8f422b79b940e8a853d580869268009ae3123fb6caa5b3afc410b79d9b68bf851df1fd46fd6923cc481b3e273aeb92ce67d1cee80843b9aca00830186a094abcced19d7f290b84608fec510bee872cc8f5112880de0b6b3a7640000808203e98080980717290b2314a735dc00db207c20d5a6461f73761c2022986fd78efa7e774d57de08eada05ec67eb78cceaa7be257cb12b5449aa0d7347dca655f94375c9671bec80843b9aca00830186a094abcced19d7f290b84608fec510bee872cc8f5112880de0b6b3a764000080808080c58f68d4c65a9a131d17a426ab83da163a43e21f8811a70cd4ca79eb5d26f25d169e8e50ee8483669b2aef296e6dc68464e5af0dc582a54751ef50c2c9207b6b1c",
    "polAmount": "1000000000000000000",
    "fullCallData": "0x06d6490f00000000000000000000000000000000000000000000000000000000000000400000000000000000000000000000000000000000000000000de0b6b3a7640000000000000000000000000000000000000000000000000000000000000000022fee80843b9aca00830186a0944d5cf5032b2a844602278b01199ed191a86c93ff88016345785d8a0000808203e980801186622d03b6b8da7cf111d1ccba5bb185c56deae6a322cebc6dda0556f3cb9700910c26408b64b51c5da36ba2f38ef55ba1cee719d5a6c012259687999074321bef80843b9aca00830186a094187bd40226a7073b49163b1f6c2b73d8f2aa8478893635c9adc5dea00000808203e980804c4fbe884ee8912360f4d00199fd189f11b27fa25eca1b9dcfd3ea686e88042e113432240c9e7be8de1e8fc0894b68ff4d37528d820814527b5fa2bd034ef38f1bee80843b9aca00830186a094187bd40226a7073b49163b1f6c2b73d8f2aa8478880de0b6b3a7640000808203e8808074ecb6abb3d84c322a4905c60199b8f422b79b940e8a853d580869268009ae3123fb6caa5b3afc410b79d9b68bf851df1fd46fd6923cc481b3e273aeb92ce67d1cee80843b9aca00830186a094abcced19d7f290b84608fec510bee872cc8f5112880de0b6b3a7640000808203e98080980717290b2314a735dc00db207c20d5a6461f73761c2022986fd78efa7e774d57de08eada05ec67eb78cceaa7be257cb12b5449aa0d7347dca655f94375c9671bec80843b9aca00830186a094abcced19d7f290b84608fec510bee872cc8f5112880de0b6b3a764000080808080c58f68d4c65a9a131d17a426ab83da163a43e21f8811a70cd4ca79eb5d26f25d169e8e50ee8483669b2aef296e6dc68464e5af0dc582a54751ef50c2c9207b6b1c0000000000000000000000000000000000"
  },
  {
    "id": 2,
    "txs": [
      {
        "id": 0,
        "from": "0x617b3a3528F9cDd6630fd3301B9c8911F7Bf063D",
        "to": "0x4d5Cf5032B2a844602278b01199ED191A86c93ff",
        "nonce": 0,
        "value": "10000000000000000000000",
        "gasLimit": 100000,
        "gasPrice": "1000000000",
        "chainId": 1001,
        "rawTx": "0xf87080843b9aca00830186a0944d5cf5032b2a844602278b01199ed191a86c93ff8a021e19e0c9bab2400000808207f5a0510a8a10721e65bf2913889751f3b32de1cb4733a667e06b708f122965da598ea075ca7d27cb4c3846490b4c446605d0120b0720b70dfe5a07f865a161c3726322",
        "reason": "TX INVALID: Not enough funds to pay total transaction cost",
        "customRawTx": "0xf080843b9aca00830186a0944d5cf5032b2a844602278b01199ed191a86c93ff8a021e19e0c9bab2400000808203e98080510a8a10721e65bf2913889751f3b32de1cb4733a667e06b708f122965da598e75ca7d27cb4c3846490b4c446605d0120b0720b70dfe5a07f865a161c37263221b"
      }
    ],
    "batchL2Data": "0xf080843b9aca00830186a0944d5cf5032b2a844602278b01199ed191a86c93ff8a021e19e0c9bab2400000808203e98080510a8a10721e65bf2913889751f3b32de1cb4733a667e06b708f122965da598e75ca7d27cb4c3846490b4c446605d0120b0720b70dfe5a07f865a161c37263221b",
    "polAmount": "1000000000000000000",
    "fullCallData": "0x06d6490f00000000000000000000000000000000000000000000000000000000000000400000000000000000000000000000000000000000000000000de0b6b3a76400000000000000000000000000000000000000000000000000000000000000000072f080843b9aca00830186a0944d5cf5032b2a844602278b01199ed191a86c93ff8a021e19e0c9bab2400000808203e98080510a8a10721e65bf2913889751f3b32de1cb4733a667e06b708f122965da598e75ca7d27cb4c3846490b4c446605d0120b0720b70dfe5a07f865a161c37263221b0000000000000000000000000000"
  },
  {
    "id": 3,
    "txs": [
      {
        "id": 0,
        "from": "0x617b3a3528F9cDd6630fd3301B9c8911F7Bf063D",
        "to": "0x4d5Cf5032B2a844602278b01199ED191A86c93ff",
        "nonce": 0,
        "value": "100000000000000000",
        "gasLimit": 100000,
        "gasPrice": "1000000000",
        "chainId": 401,
        "rawTx": "0xf86e80843b9aca00830186a0944d5cf5032b2a844602278b01199ed191a86c93ff88016345785d8a000080820346a06e209c61ca92c2b980d6197e7ac9ccc3f547bf13be6455dfe682aa5dda9655efa016819a7edcc3fefec81ca97c7a6f3d10ec774440e409adbba693ce8b698d41f1",
        "reason": "TX INVALID: Chain ID does not match",
        "customRawTx": "0xee80843b9aca00830186a0944d5cf5032b2a844602278b01199ed191a86c93ff88016345785d8a00008082019180806e209c61ca92c2b980d6197e7ac9ccc3f547bf13be6455dfe682aa5dda9655ef16819a7edcc3fefec81ca97c7a6f3d10ec774440e409adbba693ce8b698d41f11c"
      },
      {
        "id": 1,
        "from": "0x617b3a3528F9cDd6630fd3301B9c8911F7Bf063D",
        "to": "0x4d5Cf5032B2a844602278b01199ED191A86c93f",
        "nonce": 0,
        "value": "100000000000000000",
        "gasLimit": 100000,
        "gasPrice": "1000000000",
        "chainId": 1001,
        "reason": ""
      },
      {
        "id": 2,
        "from": "0x617b3a3528F9cDd6630fd3301B9c8911F7Bf03D",
        "to": "0x4d5Cf5032B2a844602278b01199ED191A86c93ff",
        "nonce": 0,
        "value": "100000000000000000",
        "gasLimit": 100000,
        "gasPrice": "1000000000",
        "chainId": 1001,
        "reason": ""
      },
      {
        "id": 3,
        "from": "0x617b3a3528F9cDd6630fd3301B9c8911F7Bf063D",
        "to": "0x4d5Cf5032B2a844602278b01199ED191A86c93ff",
        "nonce": 0,
        "value": "100000000000000000000",
        "gasLimit": 100000,
        "gasPrice": "1000000000",
        "chainId": 1001,
        "rawTx": "0xf86f80843b9aca00830186a0944d5cf5032b2a844602278b01199ed191a86c93ff89056bc75e2d63100000808207f5a0fe1e96b35c836fbebac887681150c5fc9fdae862d747aaaf8c30373c0becf769a01ff0c900aaaac6d1565a603f69b5a45f222ed205f0a36fdc6e4e4c5a7b88d45b",
        "reason": "TX INVALID: Not enough funds to pay total transaction cost",
        "customRawTx": "0xef80843b9aca00830186a0944d5cf5032b2a844602278b01199ed191a86c93ff89056bc75e2d63100000808203e98080fe1e96b35c836fbebac887681150c5fc9fdae862d747aaaf8c30373c0becf7691ff0c900aaaac6d1565a603f69b5a45f222ed205f0a36fdc6e4e4c5a7b88d45b1b"
      }
    ],
    "batchL2Data": "0xee80843b9aca00830186a0944d5cf5032b2a844602278b01199ed191a86c93ff88016345785d8a00008082019180806e209c61ca92c2b980d6197e7ac9ccc3f547bf13be6455dfe682aa5dda9655ef16819a7edcc3fefec81ca97c7a6f3d10ec774440e409adbba693ce8b698d41f11cef80843b9aca00830186a0944d5cf5032b2a844602278b01199ed191a86c93ff89056bc75e2d63100000808203e98080fe1e96b35c836fbebac887681150c5fc9fdae862d747aaaf8c30373c0becf7691ff0c900aaaac6d1565a603f69b5a45f222ed205f0a36fdc6e4e4c5a7b88d45b1b",
    "polAmount": "1000000000000000000",
    "fullCallData": "0x06d6490f00000000000000000000000000000000000000000000000000000000000000400000000000000000000000000000000000000000000000000de0b6b3a764000000000000000000000000000000000000000000000000000000000000000000e1ee80843b9aca00830186a0944d5cf5032b2a844602278b01199ed191a86c93ff88016345785d8a00008082019180806e209c61ca92c2b980d6197e7ac9ccc3f547bf13be6455dfe682aa5dda9655ef16819a7edcc3fefec81ca97c7a6f3d10ec774440e409adbba693ce8b698d41f11cef80843b9aca00830186a0944d5cf5032b2a844602278b01199ed191a86c93ff89056bc75e2d63100000808203e98080fe1e96b35c836fbebac887681150c5fc9fdae862d747aaaf8c30373c0becf7691ff0c900aaaac6d1565a603f69b5a45f222ed205f0a36fdc6e4e4c5a7b88d45b1b00000000000000000000000000000000000000000000000000000000000000"
  },
  {
    "id": 4,
    "txs": [
      {
        "encodeInvalidData": true,
        "id": 0,
        "from": "0x617b3a3528F9cDd6630fd3301B9c8911F7Bf063D",
        "to": "0x4d5Cf5032B2a844602278b01199ED191A86c93ff",
        "nonce": 0,
        "value": "100000000000000000",
        "gasLimit": 100000,
        "gasPrice": "1000000000",
        "chainId": 1001,
        "rawTx": "0xf86d80843b9aca00830186a0944d5cf5032b2a844602278b01199ed191a86c93ff88016345785d8a0000808207f5a01186622d03b6b8da7cf111d1ccba5bb185c56deae6a322cebc6dda0556f3cb979f910c26408b64b51c5da36ba2f38ef55ba1cee719d5a6c01225968799907432",
        "reason": "TX INVALID: Failed signature",
        "customRawTx": "0xee80843b9aca00830186a0944d5cf5032b2a844602278b01199ed191a86c93ff88016345785d8a0000808203e980801186622d03b6b8da7cf111d1ccba5bb185c56deae6a322cebc6dda0556f3cb9700910c26408b64b51c5da36ba2f38ef55ba1cee719d5a6c012259687999074321b"
      }
    ],
    "batchL2Data": "0xee80843b9aca00830186a0944d5cf5032b2a844602278b01199ed191a86c93ff88016345785d8a0000808203e980801186622d03b6b8da7cf111d1ccba5bb185c56deae6a322cebc6dda0556f3cb9700910c26408b64b51c5da36ba2f38ef55ba1cee719d5a6c0122596879990",
    "polAmount": "1000000000000000000",
    "fullCallData": "0x06d6490f00000000000000000000000000000000000000000000000000000000000000400000000000000000000000000000000000000000000000000de0b6b3a7640000000000000000000000000000000000000000000000000000000000000000006dee80843b9aca00830186a0944d5cf5032b2a844602278b01199ed191a86c93ff88016345785d8a0000808203e980801186622d03b6b8da7cf111d1ccba5bb185c56deae6a322cebc6dda0556f3cb9700910c26408b64b51c5da36ba2f38ef55ba1cee719d5a6c012259687999000000000000000000000000000000000000000"
  },
  {
    "id": 5,
    "txs": [
      {
        "id": 0,
        "from": "0x617b3a3528F9cDd6630fd3301B9c8911F7Bf063D",
        "to": "0x617b3a3528F9cDd6630fd3301B9c8911F7Bf063D",
        "nonce": 0,
        "value": "100000000000000000",
        "gasLimit": 100000,
        "gasPrice": "1000000000",
        "chainId": 1001,
        "rawTx": "0xf86e80843b9aca00830186a094617b3a3528f9cdd6630fd3301b9c8911f7bf063d88016345785d8a0000808207f6a014b2304ca08457f37c4e81284398aa9c511875e47b37b1e6877a26c53c0e7a1ca07f2ed42e23e503c446213de2ce077e5cfdc58f0a672dfc0a5d0aa7c0202098c3",
        "reason": "",
        "customRawTx": "0xee80843b9aca00830186a094617b3a3528f9cdd6630fd3301b9c8911f7bf063d88016345785d8a0000808203e9808014b2304ca08457f37c4e81284398aa9c511875e47b37b1e6877a26c53c0e7a1c7f2ed42e23e503c446213de2ce077e5cfdc58f0a672dfc0a5d0aa7c0202098c31c"
      }
    ],
    "batchL2Data": "0xee80843b9aca00830186a094617b3a3528f9cdd6630fd3301b9c8911f7bf063d88016345785d8a0000808203e9808014b2304ca08457f37c4e81284398aa9c511875e47b37b1e6877a26c53c0e7a1c7f2ed42e23e503c446213de2ce077e5cfdc58f0a672dfc0a5d0aa7c0202098c31c",
    "polAmount": "1000000000000000000",
    "fullCallData": "0x06d6490f00000000000000000000000000000000000000000000000000000000000000400000000000000000000000000000000000000000000000000de0b6b3a76400000000000000000000000000000000000000000000000000000000000000000070ee80843b9aca00830186a094617b3a3528f9cdd6630fd3301b9c8911f7bf063d88016345785d8a0000808203e9808014b2304ca08457f37c4e81284398aa9c511875e47b37b1e6877a26c53c0e7a1c7f2ed42e23e503c446213de2ce077e5cfdc58f0a672dfc0a5d0aa7c0202098c31c00000000000000000000000000000000"
  },
  {
    "id": 6,
    "txs": [
      {
        "id": 0,
        "from": "0x617b3a3528F9cDd6630fd3301B9c8911F7Bf063D",
        "to": "0x4d5Cf5032B2a844602278b01199ED191A86c93ff",
        "nonce": 0,
        "value": "100000000000000000000",
        "gasLimit": 100000,
        "gasPrice": "1000000000",
        "chainId": 1001,
        "rawTx": "0xf86f80843b9aca00830186a0944d5cf5032b2a844602278b01199ed191a86c93ff89056bc75e2d63100000808207f5a0fe1e96b35c836fbebac887681150c5fc9fdae862d747aaaf8c30373c0becf769a01ff0c900aaaac6d1565a603f69b5a45f222ed205f0a36fdc6e4e4c5a7b88d45b",
        "reason": "TX INVALID: Not enough funds to pay total transaction cost",
        "customRawTx": "0xef80843b9aca00830186a0944d5cf5032b2a844602278b01199ed191a86c93ff89056bc75e2d63100000808203e98080fe1e96b35c836fbebac887681150c5fc9fdae862d747aaaf8c30373c0becf7691ff0c900aaaac6d1565a603f69b5a45f222ed205f0a36fdc6e4e4c5a7b88d45b1b"
      },
      {
        "id": 1,
        "from": "0x617b3a3528F9cDd6630fd3301B9c8911F7Bf063D",
        "to": "0x4d5Cf5032B2a844602278b01199ED191A86c93ff",
        "nonce": 0,
        "value": "100000000000000000",
        "gasLimit": 100000,
        "gasPrice": "1000000000",
        "chainId": 1001,
        "rawTx": "0xf86d80843b9aca00830186a0944d5cf5032b2a844602278b01199ed191a86c93ff88016345785d8a0000808207f5a01186622d03b6b8da7cf111d1ccba5bb185c56deae6a322cebc6dda0556f3cb979f910c26408b64b51c5da36ba2f38ef55ba1cee719d5a6c01225968799907432",
        "reason": "",
        "customRawTx": "0xee80843b9aca00830186a0944d5cf5032b2a844602278b01199ed191a86c93ff88016345785d8a0000808203e980801186622d03b6b8da7cf111d1ccba5bb185c56deae6a322cebc6dda0556f3cb9700910c26408b64b51c5da36ba2f38ef55ba1cee719d5a6c012259687999074321b"
      },
      {
        "id": 2,
        "from": "0x617b3a3528F9cDd6630fd3301B9c8911F7Bf063D",
        "to": "0x4d5Cf5032B2a844602278b01199ED191A86c93ff",
        "nonce": 0,
        "value": "1000000000000000000",
        "gasLimit": 100000,
        "gasPrice": "1000000000",
        "chainId": 1001,
        "rawTx": "0xf86e80843b9aca00830186a0944d5cf5032b2a844602278b01199ed191a86c93ff880de0b6b3a7640000808207f6a0abf2354a778c3dace42daafd85b0587941170288f5d150621453bb490cbbb897a04d0251dec50bf299922edde433982445f1245e85a61232edc2847bd571250b52",
        "reason": "TX INVALID: Invalid nonce",
        "customRawTx": "0xee80843b9aca00830186a0944d5cf5032b2a844602278b01199ed191a86c93ff880de0b6b3a7640000808203e98080abf2354a778c3dace42daafd85b0587941170288f5d150621453bb490cbbb8974d0251dec50bf299922edde433982445f1245e85a61232edc2847bd571250b521c"
      },
      {
        "id": 3,
        "from": "0x617b3a3528F9cDd6630fd3301B9c8911F7Bf063D",
        "to": "0x4d5Cf5032B2a844602278b01199ED191A86c93ff",
        "nonce": 0,
        "value": "1000000000000000000",
        "gasLimit": 100000,
        "gasPrice": "1000000000",
        "chainId": 0,
        "reason": "TX INVALID: Chain ID does not match",
        "customRawTx": "0xec80843b9aca00830186a0944d5cf5032b2a844602278b01199ed191a86c93ff880de0b6b3a764000080808080f7e1e6f3cd95d27522592e8796afa8f419a066b7172e0ac3e7826705ad608c672731e14da1b190dab8c14e79e050e31da53fdb4a0e55ca48ee4faff859606d5a1b",
        "rawTx": "0xf86c80843b9aca00830186a0944d5cf5032b2a844602278b01199ed191a86c93ff880de0b6b3a7640000801ba077f76b76aca6161db28545aa742536370e4f57f9a71651688631a423abcbe04aa0131474e130abe8bcc9ef39a44a877eb64b2d43132cb0907abe547aa605b641b8"
      }
    ],
    "batchL2Data": "0xef80843b9aca00830186a0944d5cf5032b2a844602278b01199ed191a86c93ff89056bc75e2d63100000808203e98080fe1e96b35c836fbebac887681150c5fc9fdae862d747aaaf8c30373c0becf7691ff0c900aaaac6d1565a603f69b5a45f222ed205f0a36fdc6e4e4c5a7b88d45b1bee80843b9aca00830186a0944d5cf5032b2a844602278b01199ed191a86c93ff88016345785d8a0000808203e980801186622d03b6b8da7cf111d1ccba5bb185c56deae6a322cebc6dda0556f3cb9700910c26408b64b51c5da36ba2f38ef55ba1cee719d5a6c012259687999074321bee80843b9aca00830186a0944d5cf5032b2a844602278b01199ed191a86c93ff880de0b6b3a7640000808203e98080abf2354a778c3dace42daafd85b0587941170288f5d150621453bb490cbbb8974d0251dec50bf299922edde433982445f1245e85a61232edc2847bd571250b521cec80843b9aca00830186a0944d5cf5032b2a844602278b01199ed191a86c93ff880de0b6b3a764000080808080f7e1e6f3cd95d27522592e8796afa8f419a066b7172e0ac3e7826705ad608c672731e14da1b190dab8c14e79e050e31da53fdb4a0e55ca48ee4faff859606d5a1b",
    "polAmount": "1000000000000000000",
    "fullCallData": "0x06d6490f00000000000000000000000000000000000000000000000000000000000000400000000000000000000000000000000000000000000000000de0b6b3a764000000000000000000000000000000000000000000000000000000000000000001bfef80843b9aca00830186a0944d5cf5032b2a844602278b01199ed191a86c93ff89056bc75e2d63100000808203e98080fe1e96b35c836fbebac887681150c5fc9fdae862d747aaaf8c30373c0becf7691ff0c900aaaac6d1565a603f69b5a45f222ed205f0a36fdc6e4e4c5a7b88d45b1bee80843b9aca00830186a0944d5cf5032b2a844602278b01199ed191a86c93ff88016345785d8a0000808203e980801186622d03b6b8da7cf111d1ccba5bb185c56deae6a322cebc6dda0556f3cb9700910c26408b64b51c5da36ba2f38ef55ba1cee719d5a6c012259687999074321bee80843b9aca00830186a0944d5cf5032b2a844602278b01199ed191a86c93ff880de0b6b3a7640000808203e98080abf2354a778c3dace42daafd85b0587941170288f5d150621453bb490cbbb8974d0251dec50bf299922edde433982445f1245e85a61232edc2847bd571250b521cec80843b9aca00830186a0944d5cf5032b2a844602278b01199ed191a86c93ff880de0b6b3a764000080808080f7e1e6f3cd95d27522592e8796afa8f419a066b7172e0ac3e7826705ad608c672731e14da1b190dab8c14e79e050e31da53fdb4a0e55ca48ee4faff859606d5a1b00"
  },
  {
    "id": 7,
    "txs": [
      {
        "id": 0,
        "from": "0x617b3a3528F9cDd6630fd3301B9c8911F7Bf063D",
        "to": "0x617b3a3528F9cDd6630fd3301B9c8911F7Bf063D",
        "nonce": 0,
        "value": "100000000000000000",
        "gasLimit": 100000,
        "gasPrice": "1000000000",
        "chainId": 1001,
        "rawTx": "0xf86e80843b9aca00830186a094617b3a3528f9cdd6630fd3301b9c8911f7bf063d88016345785d8a0000808207f6a014b2304ca08457f37c4e81284398aa9c511875e47b37b1e6877a26c53c0e7a1ca07f2ed42e23e503c446213de2ce077e5cfdc58f0a672dfc0a5d0aa7c0202098c3",
        "reason": "",
        "customRawTx": "0xee80843b9aca00830186a094617b3a3528f9cdd6630fd3301b9c8911f7bf063d88016345785d8a0000808203e9808014b2304ca08457f37c4e81284398aa9c511875e47b37b1e6877a26c53c0e7a1c7f2ed42e23e503c446213de2ce077e5cfdc58f0a672dfc0a5d0aa7c0202098c31c"
      }
    ],
    "batchL2Data": "0xee80843b9aca00830186a094617b3a3528f9cdd6630fd3301b9c8911f7bf063d88016345785d8a0000808203e9808014b2304ca08457f37c4e81284398aa9c511875e47b37b1e6877a26c53c0e7a1c7f2ed42e23e503c446213de2ce077e5cfdc58f0a672dfc0a5d0aa7c0202098c31c",
    "polAmount": "1000000000000000000",
    "fullCallData": "0x06d6490f00000000000000000000000000000000000000000000000000000000000000400000000000000000000000000000000000000000000000000de0b6b3a76400000000000000000000000000000000000000000000000000000000000000000070ee80843b9aca00830186a094617b3a3528f9cdd6630fd3301b9c8911f7bf063d88016345785d8a0000808203e9808014b2304ca08457f37c4e81284398aa9c511875e47b37b1e6877a26c53c0e7a1c7f2ed42e23e503c446213de2ce077e5cfdc58f0a672dfc0a5d0aa7c0202098c31c00000000000000000000000000000000"
  },
  {
    "id": 8,
    "txs": [
      {
        "id": 0,
        "from": "0x4d5Cf5032B2a844602278b01199ED191A86c93ff",
        "to": "0x4d5Cf5032B2a844602278b01199ED191A86c93ff",
        "nonce": 0,
        "value": "100000000000000000",
        "gasLimit": 100000,
        "gasPrice": "47619000000000",
        "chainId": 1001,
        "rawTx": "0xf87080862b4f29945e00830186a0944d5cf5032b2a844602278b01199ed191a86c93ff88016345785d8a0000808207f6a08b562ddfd7ad2d35fd46b4305bc58e0553f765cf57410daa1eb0cb2191f4b3e9a01c5af2233ae0e79eb08e763430bee0fc1582e0452725c8e12190f26f4af286ff",
        "reason": "",
        "customRawTx": "0xf080862b4f29945e00830186a0944d5cf5032b2a844602278b01199ed191a86c93ff88016345785d8a0000808203e980808b562ddfd7ad2d35fd46b4305bc58e0553f765cf57410daa1eb0cb2191f4b3e91c5af2233ae0e79eb08e763430bee0fc1582e0452725c8e12190f26f4af286ff1c"
      },
      {
        "id": 1,
        "from": "0x617b3a3528F9cDd6630fd3301B9c8911F7Bf063D",
        "to": "0x4d5Cf5032B2a844602278b01199ED191A86c93ff",
        "nonce": 0,
        "value": "500000000000000000",
        "gasLimit": 100000,
        "gasPrice": "1000000000",
        "chainId": 1001,
        "rawTx": "0xf86e80843b9aca00830186a0944d5cf5032b2a844602278b01199ed191a86c93ff8806f05b59d3b20000808207f6a0a7ffde488efb26c894235ba05afcdf831c7cde555b10d60806b7949e0078db1ba030d23e94ce621ccd6cca286927fdb18267148bc8d4d5b5abe494fd3ac1f0316b",
        "reason": "",
        "customRawTx": "0xee80843b9aca00830186a0944d5cf5032b2a844602278b01199ed191a86c93ff8806f05b59d3b20000808203e98080a7ffde488efb26c894235ba05afcdf831c7cde555b10d60806b7949e0078db1b30d23e94ce621ccd6cca286927fdb18267148bc8d4d5b5abe494fd3ac1f0316b1c"
      }
    ],
    "batchL2Data": "0xf080862b4f29945e00830186a0944d5cf5032b2a844602278b01199ed191a86c93ff88016345785d8a0000808203e980808b562ddfd7ad2d35fd46b4305bc58e0553f765cf57410daa1eb0cb2191f4b3e91c5af2233ae0e79eb08e763430bee0fc1582e0452725c8e12190f26f4af286ff1cee80843b9aca00830186a0944d5cf5032b2a844602278b01199ed191a86c93ff8806f05b59d3b20000808203e98080a7ffde488efb26c894235ba05afcdf831c7cde555b10d60806b7949e0078db1b30d23e94ce621ccd6cca286927fdb18267148bc8d4d5b5abe494fd3ac1f0316b1c",
    "polAmount": "1000000000000000000",
    "fullCallData": "0x06d6490f00000000000000000000000000000000000000000000000000000000000000400000000000000000000000000000000000000000000000000de0b6b3a764000000000000000000000000000000000000000000000000000000000000000000e2f080862b4f29945e00830186a0944d5cf5032b2a844602278b01199ed191a86c93ff88016345785d8a0000808203e980808b562ddfd7ad2d35fd46b4305bc58e0553f765cf57410daa1eb0cb2191f4b3e91c5af2233ae0e79eb08e763430bee0fc1582e0452725c8e12190f26f4af286ff1cee80843b9aca00830186a0944d5cf5032b2a844602278b01199ed191a86c93ff8806f05b59d3b20000808203e98080a7ffde488efb26c894235ba05afcdf831c7cde555b10d60806b7949e0078db1b30d23e94ce621ccd6cca286927fdb18267148bc8d4d5b5abe494fd3ac1f0316b1c000000000000000000000000000000000000000000000000000000000000"
  },
  {
    "id": 9,
    "txs": [
      {
        "id": 0,
        "from": "0x617b3a3528F9cDd6630fd3301B9c8911F7Bf063D",
        "to": "0x4d5Cf5032B2a844602278b01199ED191A86c93ff",
        "nonce": 0,
        "value": "100000000000000000",
        "gasLimit": 100000,
        "gasPrice": "1000000000",
        "chainId": 1001,
        "customRawTx": "0xee80843b9aca00830186a0944d5cf5032b2a844602278b01199ed191a86c93ff88016345785d8a0000808203e980801186622d03b6b8da7cf111d1ccba5bb185c56deae6a322cebc6dda0556f3cb9700910c26408b64b51c5da36ba2f38ef55ba1cee719d5a6c012259687999074321b",
        "reason": "",
        "rawTx": "0xf86d80843b9aca00830186a0944d5cf5032b2a844602278b01199ed191a86c93ff88016345785d8a0000808207f5a01186622d03b6b8da7cf111d1ccba5bb185c56deae6a322cebc6dda0556f3cb979f910c26408b64b51c5da36ba2f38ef55ba1cee719d5a6c01225968799907432"
      },
      {
        "id": 1,
        "from": "0x617b3a3528F9cDd6630fd3301B9c8911F7Bf063D",
        "to": "0x617b3a3528F9cDd6630fd3301B9c8911F7Bf063D",
        "nonce": 1,
        "value": "500000000000000000",
        "gasLimit": 100000,
        "gasPrice": "1000000000",
        "chainId": 1001,
        "customRawTx": "0xee01843b9aca00830186a094617b3a3528f9cdd6630fd3301b9c8911f7bf063d8806f05b59d3b20000808203e980803b9df6a5fc638613cef0d874774cadaf4629aa953878f952a9003391b42ffc3c051d639656a7e81e9b4b8cbc4f3b41118961f4043b457708f604ecbd05050d4c1b",
        "reason": "",
        "rawTx": "0xf86e01843b9aca00830186a094617b3a3528f9cdd6630fd3301b9c8911f7bf063d8806f05b59d3b20000808207f5a03b9df6a5fc638613cef0d874774cadaf4629aa953878f952a9003391b42ffc3ca0051d639656a7e81e9b4b8cbc4f3b41118961f4043b457708f604ecbd05050d4c"
      },
      {
        "id": 2,
        "from": "0x617b3a3528F9cDd6630fd3301B9c8911F7Bf063D",
        "to": "0x4d5Cf5032B2a844602278b01199ED191A86c93ff",
        "nonce": 2,
        "value": "100000000000000000",
        "gasLimit": 100000,
        "gasPrice": "1000000000",
        "chainId": 1001,
        "customRawTx": "0xee02843b9aca00830186a0944d5cf5032b2a844602278b01199ed191a86c93ff88016345785d8a0000808203e980807d6892a0b642053f641a040c5ba59132983cb41af9887cf01f5b132313d68d0f3c77a17d738c8d850a27fe7276b2c73e006b0e52938d960d7b6931dff1f49c971c",
        "reason": "",
        "rawTx": "0xf86e02843b9aca00830186a0944d5cf5032b2a844602278b01199ed191a86c93ff88016345785d8a0000808207f6a07d6892a0b642053f641a040c5ba59132983cb41af9887cf01f5b132313d68d0fa03c77a17d738c8d850a27fe7276b2c73e006b0e52938d960d7b6931dff1f49c97"
      },
      {
        "id": 3,
        "from": "0x617b3a3528F9cDd6630fd3301B9c8911F7Bf063D",
        "to": "0x617b3a3528F9cDd6630fd3301B9c8911F7Bf063D",
        "nonce": 3,
        "value": "500000000000000000",
        "gasLimit": 100000,
        "gasPrice": "1000000000",
        "chainId": 1001,
        "customRawTx": "0xee03843b9aca00830186a094617b3a3528f9cdd6630fd3301b9c8911f7bf063d8806f05b59d3b20000808203e9808086d551821ed5086f39eb5b882c8d917ceb9fb4c5167f194e1de5489fc184fc0e2bf4b980426e38d7ca6207cee47269e32d999282e94fd87bc346a5f8b3eba7eb1c",
        "reason": "",
        "rawTx": "0xf86e03843b9aca00830186a094617b3a3528f9cdd6630fd3301b9c8911f7bf063d8806f05b59d3b20000808207f6a086d551821ed5086f39eb5b882c8d917ceb9fb4c5167f194e1de5489fc184fc0ea02bf4b980426e38d7ca6207cee47269e32d999282e94fd87bc346a5f8b3eba7eb"
      }
    ],
    "batchL2Data": "0xee80843b9aca00830186a0944d5cf5032b2a844602278b01199ed191a86c93ff88016345785d8a0000808203e980801186622d03b6b8da7cf111d1ccba5bb185c56deae6a322cebc6dda0556f3cb9700910c26408b64b51c5da36ba2f38ef55ba1cee719d5a6c012259687999074321bee01843b9aca00830186a094617b3a3528f9cdd6630fd3301b9c8911f7bf063d8806f05b59d3b20000808203e980803b9df6a5fc638613cef0d874774cadaf4629aa953878f952a9003391b42ffc3c051d639656a7e81e9b4b8cbc4f3b41118961f4043b457708f604ecbd05050d4c1bee02843b9aca00830186a0944d5cf5032b2a844602278b01199ed191a86c93ff88016345785d8a0000808203e980807d6892a0b642053f641a040c5ba59132983cb41af9887cf01f5b132313d68d0f3c77a17d738c8d850a27fe7276b2c73e006b0e52938d960d7b6931dff1f49c971cee03843b9aca00830186a094617b3a3528f9cdd6630fd3301b9c8911f7bf063d8806f05b59d3b20000808203e9808086d551821ed5086f39eb5b882c8d917ceb9fb4c5167f194e1de5489fc184fc0e2bf4b980426e38d7ca6207cee47269e32d999282e94fd87bc346a5f8b3eba7eb1c",
    "polAmount": "1000000000000000000",
    "fullCallData": "0x06d6490f00000000000000000000000000000000000000000000000000000000000000400000000000000000000000000000000000000000000000000de0b6b3a764000000000000000000000000000000000000000000000000000000000000000001c0ee80843b9aca00830186a0944d5cf5032b2a844602278b01199ed191a86c93ff88016345785d8a0000808203e980801186622d03b6b8da7cf111d1ccba5bb185c56deae6a322cebc6dda0556f3cb9700910c26408b64b51c5da36ba2f38ef55ba1cee719d5a6c012259687999074321bee01843b9aca00830186a094617b3a3528f9cdd6630fd3301b9c8911f7bf063d8806f05b59d3b20000808203e980803b9df6a5fc638613cef0d874774cadaf4629aa953878f952a9003391b42ffc3c051d639656a7e81e9b4b8cbc4f3b41118961f4043b457708f604ecbd05050d4c1bee02843b9aca00830186a0944d5cf5032b2a844602278b01199ed191a86c93ff88016345785d8a0000808203e980807d6892a0b642053f641a040c5ba59132983cb41af9887cf01f5b132313d68d0f3c77a17d738c8d850a27fe7276b2c73e006b0e52938d960d7b6931dff1f49c971cee03843b9aca00830186a094617b3a3528f9cdd6630fd3301b9c8911f7bf063d8806f05b59d3b20000808203e9808086d551821ed5086f39eb5b882c8d917ceb9fb4c5167f194e1de5489fc184fc0e2bf4b980426e38d7ca6207cee47269e32d999282e94fd87bc346a5f8b3eba7eb1c"
  }
]