[
  {
    "id": 0,
    "description": "2 accounts and 1 valid transaction.",
    "sequencerAddress": "0x617b3a3528F9cDd6630fd3301B9c8911F7Bf063D",
    "sequencerPvtKey": "0x28b2b0318721be8c8339199172cd7cc8f5e273800a35616ec893083a4b32c02e",
    "genesis": [
      {
        "address": "0x617b3a3528F9cDd6630fd3301B9c8911F7Bf063D",
        "nonce": "0",
        "balance": "100000000000000000000",
        "pvtKey": "0x28b2b0318721be8c8339199172cd7cc8f5e273800a35616ec893083a4b32c02e"
      },
      {
        "address": "0x4d5Cf5032B2a844602278b01199ED191A86c93ff",
        "nonce": "0",
        "balance": "200000000000000000000",
        "pvtKey": "0x4d27a600dce8c29b7bd080e29a26972377dbb04d7a27d919adbb602bf13cfd23"
      }
    ],
    "expectedOldRoot": "0x4a9bfcb163ec91c5beb22e6aca41592433092c8c7821b01d37fd0de483f9265d",
    "txs": [
      {
        "type": 11,
        "deltaTimestamp": 1944498031,
        "l1Info": {
          "globalExitRoot": "0x090bcaf734c4f06c93954a827b45a6e8c67b8e0fd1e0a35a1c5982d6961828f9",
          "blockHash": "0x24a5871d68723340d9eadc674aa8ad75f3e33b61d5a9db7db92af856a19270bb",
          "timestamp": "42"
        },
        "indexL1InfoTree": 0,
        "reason": ""
      },
      {
        "id": 0,
        "from": "0x617b3a3528F9cDd6630fd3301B9c8911F7Bf063D",
        "to": "0x4d5Cf5032B2a844602278b01199ED191A86c93ff",
        "nonce": 0,
        "value": "100000000000000000",
        "gasLimit": 100000,
        "gasPrice": "1000000000",
        "chainId": 1000,
        "rawTx": "0xf86e80843b9aca00830186a0944d5cf5032b2a844602278b01199ed191a86c93ff88016345785d8a0000808207f3a01cee7e01dc62f69a12c3510c6d64de04ee6346d84b6a017f3e786c7d87f963e7a05d8cc91fa983cd6d9cf55fff80d73bd26cd333b0f098acc1e58edb1fd484ad73",
        "customRawTx": "0xee80843b9aca00830186a0944d5cf5032b2a844602278b01199ed191a86c93ff88016345785d8a0000808203e880801cee7e01dc62f69a12c3510c6d64de04ee6346d84b6a017f3e786c7d87f963e75d8cc91fa983cd6d9cf55fff80d73bd26cd333b0f098acc1e58edb1fd484ad731bff",
        "reason": ""
      }
    ],
    "expectedNewRoot": "0x7419a71f9923fca08275c77c2603de4ecec62f37f4c1d00229b38e17424320ba",
    "expectedNewLeafs": {
      "0x617b3a3528F9cDd6630fd3301B9c8911F7Bf063D": {
        "balance": "99900000000000000000",
        "nonce": "1",
        "storage": null,
        "hashBytecode": "0x0000000000000000000000000000000000000000000000000000000000000000",
        "bytecodeLength": 0
      },
      "0x4d5Cf5032B2a844602278b01199ED191A86c93ff": {
        "balance": "200100000000000000000",
        "nonce": "0",
        "storage": null,
        "hashBytecode": "0x0000000000000000000000000000000000000000000000000000000000000000",
        "bytecodeLength": 0
      },
      "0x000000000000000000000000000000005ca1ab1e": {
        "balance": "0",
        "nonce": "0",
        "storage": {
          "0x0000000000000000000000000000000000000000000000000000000000000000": "0x01",
          "0x0000000000000000000000000000000000000000000000000000000000000002": "0x73e6af6f",
          "0xa6eef7e35abe7026729641147f7915573c7e97b47efa546f5f6e3230263bcb49": "0x4a9bfcb163ec91c5beb22e6aca41592433092c8c7821b01d37fd0de483f9265d",
          "0x0000000000000000000000000000000000000000000000000000000000000003": "0x9675adb76a5d1a0776067b07073f74735f2cb4a55732e6396c1322c143c4bc68"
        },
        "hashBytecode": "0x0000000000000000000000000000000000000000000000000000000000000000",
        "bytecodeLength": 0
      }
    },
    "batchL2Data": "0x0b73e6af6f00000000ee80843b9aca00830186a0944d5cf5032b2a844602278b01199ed191a86c93ff88016345785d8a0000808203e880801cee7e01dc62f69a12c3510c6d64de04ee6346d84b6a017f3e786c7d87f963e75d8cc91fa983cd6d9cf55fff80d73bd26cd333b0f098acc1e58edb1fd484ad731bff",
    "newLocalExitRoot": "0x0000000000000000000000000000000000000000000000000000000000000000",
    "batchHashData": "0x9e96eb88cc14329a0af367df4d53937a656d6461b3c02df9122d0eb5678c41a2",
    "chainID": 1000,
    "oldAccInputHash": "0x0000000000000000000000000000000000000000000000000000000000000000",
    "forkID": 7,
    "l1InfoRoot": "0x090bcaf734c4f06c93954a827b45a6e8c67b8e0fd1e0a35a1c5982d6961828f9",
    "timestampLimit": "1944498031",
    "l1InfoTree": {
      "skipVerifyL1InfoRoot": true
    }
  },
  {
    "id": 1,
    "description": "5 accounts. 2 valid tx, 3 invalid tx (same amount as balance, invalid nonce, invalid chain id 3333)",
    "sequencerAddress": "0x617b3a3528F9cDd6630fd3301B9c8911F7Bf063D",
    "sequencerPvtKey": "0x28b2b0318721be8c8339199172cd7cc8f5e273800a35616ec893083a4b32c02e",
    "genesis": [
      {
        "address": "0x617b3a3528F9cDd6630fd3301B9c8911F7Bf063D",
        "nonce": "0",
        "balance": "100000000000000000000",
        "pvtKey": "0x28b2b0318721be8c8339199172cd7cc8f5e273800a35616ec893083a4b32c02e"
      },
      {
        "address": "0x4d5Cf5032B2a844602278b01199ED191A86c93ff",
        "nonce": "0",
        "balance": "200000000000000000000",
        "pvtKey": "0x4d27a600dce8c29b7bd080e29a26972377dbb04d7a27d919adbb602bf13cfd23"
      },
      {
        "address": "0xeB17ce701E9D92724AA2ABAdA7E4B28830597Dd9",
        "nonce": "0",
        "balance": "100000000000000000000",
        "pvtKey": "0x1d0722aff4b29780e9a78e0bf28d5e127fb276cfbb0c3eb6a0e1728401777f17"
      },
      {
        "address": "0x187Bd40226A7073b49163b1f6c2b73d8F2aa8478",
        "nonce": "0",
        "balance": "000000000000000000000",
        "pvtKey": "0xd049e68efa0d85a3824c0b79f6817a986bb0cb3a075bcc2699118eca881d70ce"
      },
      {
        "address": "0xabCcEd19d7f290B84608feC510bEe872CC8F5112",
        "nonce": "0",
        "balance": "000000000000000000000",
        "pvtKey": "0x0b929d50d7fda8155539e6befa96ff297e3e9ebce4d908f570310bdf774cb32b"
      }
    ],
    "expectedOldRoot": "0x76b362a9afd679ea13a456ab103786492c65946be653589c1fd627841d0c6fdd",
    "txs": [
      {
        "type": 11,
        "deltaTimestamp": 1944498031,
        "l1Info": {
          "globalExitRoot": "0x090bcaf734c4f06c93954a827b45a6e8c67b8e0fd1e0a35a1c5982d6961828f9",
          "blockHash": "0x24a5871d68723340d9eadc674aa8ad75f3e33b61d5a9db7db92af856a19270bb",
          "timestamp": "42"
        },
        "indexL1InfoTree": 0,
        "reason": ""
      },
      {
        "id": 0,
        "from": "0x617b3a3528F9cDd6630fd3301B9c8911F7Bf063D",
        "to": "0x4d5Cf5032B2a844602278b01199ED191A86c93ff",
        "nonce": 0,
        "value": "100000000000000000",
        "gasLimit": 100000,
        "gasPrice": "1000000000",
        "chainId": 1000,
        "rawTx": "0xf86e80843b9aca00830186a0944d5cf5032b2a844602278b01199ed191a86c93ff88016345785d8a0000808207f3a01cee7e01dc62f69a12c3510c6d64de04ee6346d84b6a017f3e786c7d87f963e7a05d8cc91fa983cd6d9cf55fff80d73bd26cd333b0f098acc1e58edb1fd484ad73",
        "customRawTx": "0xee80843b9aca00830186a0944d5cf5032b2a844602278b01199ed191a86c93ff88016345785d8a0000808203e880801cee7e01dc62f69a12c3510c6d64de04ee6346d84b6a017f3e786c7d87f963e75d8cc91fa983cd6d9cf55fff80d73bd26cd333b0f098acc1e58edb1fd484ad731bff",
        "reason": "TX INVALID: Not enough funds to pay total transaction cost"
      },
      {
        "id": 1,
        "from": "0xeB17ce701E9D92724AA2ABAdA7E4B28830597Dd9",
        "to": "0x187Bd40226A7073b49163b1f6c2b73d8F2aa8478",
        "nonce": 0,
        "value": "1000000000000000000000",
        "gasLimit": 100000,
        "gasPrice": "1000000000",
        "chainId": 1000,
        "rawTx": "0xf86f80843b9aca00830186a094187bd40226a7073b49163b1f6c2b73d8f2aa8478893635c9adc5dea00000808207f3a06199f98970ea3e0e9a59e32184ea11ae9158b9b93d70906e11f60eb6ce009602a03c1bbbb437e58ea5f7bebd344d61cccd161c6b8accff11b50ea44300d3ab58bd",
        "customRawTx": "0xef80843b9aca00830186a094187bd40226a7073b49163b1f6c2b73d8f2aa8478893635c9adc5dea00000808203e880806199f98970ea3e0e9a59e32184ea11ae9158b9b93d70906e11f60eb6ce0096023c1bbbb437e58ea5f7bebd344d61cccd161c6b8accff11b50ea44300d3ab58bd1bff",
        "reason": ""
      },
      {
        "id": 2,
        "from": "0xeB17ce701E9D92724AA2ABAdA7E4B28830597Dd9",
        "to": "0x187Bd40226A7073b49163b1f6c2b73d8F2aa8478",
        "nonce": 0,
        "value": "1000000000000000000",
        "gasLimit": 100000,
        "gasPrice": "1000000000",
        "chainId": 1000,
        "rawTx": "0xf86e80843b9aca00830186a094187bd40226a7073b49163b1f6c2b73d8f2aa8478880de0b6b3a7640000808207f4a074ecb6abb3d84c322a4905c60199b8f422b79b940e8a853d580869268009ae31a023fb6caa5b3afc410b79d9b68bf851df1fd46fd6923cc481b3e273aeb92ce67d",
        "customRawTx": "0xee80843b9aca00830186a094187bd40226a7073b49163b1f6c2b73d8f2aa8478880de0b6b3a7640000808203e8808074ecb6abb3d84c322a4905c60199b8f422b79b940e8a853d580869268009ae3123fb6caa5b3afc410b79d9b68bf851df1fd46fd6923cc481b3e273aeb92ce67d1cff",
        "reason": "TX INVALID: Invalid nonce"
      },
      {
        "id": 3,
        "from": "0xeB17ce701E9D92724AA2ABAdA7E4B28830597Dd9",
        "to": "0xabCcEd19d7f290B84608feC510bEe872CC8F5112",
        "nonce": 0,
        "value": "1000000000000000000",
        "gasLimit": 100000,
        "gasPrice": "1000000000",
        "chainId": 1000,
        "rawTx": "0xf86e80843b9aca00830186a094abcced19d7f290b84608fec510bee872cc8f5112880de0b6b3a7640000808207f4a0432b1bc18d96dea596edfe17b249a68e42117f738ecfaea4e9f92aa77935fb4da05b9a983a5ba73c27cbaa4de62b1d8ab8b908a941926387927dcd2319d8b4dfb2",
        "customRawTx": "0xee80843b9aca00830186a094abcced19d7f290b84608fec510bee872cc8f5112880de0b6b3a7640000808203e88080432b1bc18d96dea596edfe17b249a68e42117f738ecfaea4e9f92aa77935fb4d5b9a983a5ba73c27cbaa4de62b1d8ab8b908a941926387927dcd2319d8b4dfb21cff",
        "reason": "TX INVALID: Chain ID does not match"
      },
      {
        "id": 4,
        "from": "0xeB17ce701E9D92724AA2ABAdA7E4B28830597Dd9",
        "to": "0xabCcEd19d7f290B84608feC510bEe872CC8F5112",
        "nonce": 0,
        "value": "1000000000000000000",
        "gasLimit": 100000,
        "gasPrice": "1000000000",
        "chainId": 3333,
        "rawTx": "0xf86e80843b9aca00830186a094abcced19d7f290b84608fec510bee872cc8f5112880de0b6b3a764000080821a2da0d78fe650ae7e2f7c909ad72f661bfe72aa2d502f9f2bbfad3880a4a7e0abf898a06b98f2a902dd06a89f948baa64f32d301d3ced92d231ccdea79f909a73aa050f",
        "customRawTx": "0xee80843b9aca00830186a094abcced19d7f290b84608fec510bee872cc8f5112880de0b6b3a764000080820d058080d78fe650ae7e2f7c909ad72f661bfe72aa2d502f9f2bbfad3880a4a7e0abf8986b98f2a902dd06a89f948baa64f32d301d3ced92d231ccdea79f909a73aa050f1bff",
        "reason": "TX INVALID: Chain ID does not match"
      }
    ],
    "expectedNewRoot": "0x4369f0637a7da0ff4c671a84ce53198a8203e697d350dd75ab64f9041ba4e876",
    "expectedNewLeafs": {
      "0x617b3a3528F9cDd6630fd3301B9c8911F7Bf063D": {
        "balance": "99900021000000000000",
        "nonce": "1",
        "storage": null,
        "hashBytecode": "0x0000000000000000000000000000000000000000000000000000000000000000",
        "bytecodeLength": 0
      },
      "0x4d5Cf5032B2a844602278b01199ED191A86c93ff": {
        "balance": "200100000000000000000",
        "nonce": "0",
        "storage": null,
        "hashBytecode": "0x0000000000000000000000000000000000000000000000000000000000000000",
        "bytecodeLength": 0
      },
      "0xeB17ce701E9D92724AA2ABAdA7E4B28830597Dd9": {
        "balance": "98999979000000000000",
        "nonce": "1",
        "storage": null,
        "hashBytecode": "0x0000000000000000000000000000000000000000000000000000000000000000",
        "bytecodeLength": 0
      },
      "0x187Bd40226A7073b49163b1f6c2b73d8F2aa8478": {
        "balance": "1000000000000000000",
        "nonce": "0",
        "storage": null,
        "hashBytecode": "0x0000000000000000000000000000000000000000000000000000000000000000",
        "bytecodeLength": 0
      },
      "0xabCcEd19d7f290B84608feC510bEe872CC8F5112": {
        "balance": "0",
        "nonce": "0",
        "storage": null,
        "hashBytecode": "0x0000000000000000000000000000000000000000000000000000000000000000",
        "bytecodeLength": 0
      },
      "0x000000000000000000000000000000005ca1ab1e": {
        "balance": "0",
        "nonce": "0",
        "storage": {
          "0x0000000000000000000000000000000000000000000000000000000000000000": "0x01",
          "0x0000000000000000000000000000000000000000000000000000000000000002": "0x73e6af6f",
          "0xa6eef7e35abe7026729641147f7915573c7e97b47efa546f5f6e3230263bcb49": "0x76b362a9afd679ea13a456ab103786492c65946be653589c1fd627841d0c6fdd",
          "0x0000000000000000000000000000000000000000000000000000000000000003": "0xad44dbf296830f69ee8c761c6efe3534ee86ee65e0ee70ae532f56d4f1bb7df1"
        },
        "hashBytecode": "0x0000000000000000000000000000000000000000000000000000000000000000",
        "bytecodeLength": 0
      }
    },
    "batchL2Data": "0x0b73e6af6f00000000ee80843b9aca00830186a0944d5cf5032b2a844602278b01199ed191a86c93ff88016345785d8a0000808203e880801cee7e01dc62f69a12c3510c6d64de04ee6346d84b6a017f3e786c7d87f963e75d8cc91fa983cd6d9cf55fff80d73bd26cd333b0f098acc1e58edb1fd484ad731bffef80843b9aca00830186a094187bd40226a7073b49163b1f6c2b73d8f2aa8478893635c9adc5dea00000808203e880806199f98970ea3e0e9a59e32184ea11ae9158b9b93d70906e11f60eb6ce0096023c1bbbb437e58ea5f7bebd344d61cccd161c6b8accff11b50ea44300d3ab58bd1bffee80843b9aca00830186a094187bd40226a7073b49163b1f6c2b73d8f2aa8478880de0b6b3a7640000808203e8808074ecb6abb3d84c322a4905c60199b8f422b79b940e8a853d580869268009ae3123fb6caa5b3afc410b79d9b68bf851df1fd46fd6923cc481b3e273aeb92ce67d1cffee80843b9aca00830186a094abcced19d7f290b84608fec510bee872cc8f5112880de0b6b3a7640000808203e88080432b1bc18d96dea596edfe17b249a68e42117f738ecfaea4e9f92aa77935fb4d5b9a983a5ba73c27cbaa4de62b1d8ab8b908a941926387927dcd2319d8b4dfb21cffee80843b9aca00830186a094abcced19d7f290b84608fec510bee872cc8f5112880de0b6b3a764000080820d058080d78fe650ae7e2f7c909ad72f661bfe72aa2d502f9f2bbfad3880a4a7e0abf8986b98f2a902dd06a89f948baa64f32d301d3ced92d231ccdea79f909a73aa050f1bff",
    "newLocalExitRoot": "0x0000000000000000000000000000000000000000000000000000000000000000",
    "batchHashData": "0x85a409f8bb6ca66beeb21b187568fca3fd01d12ee3e97c1225289fb7a1f4ca65",
    "chainID": 1000,
    "oldAccInputHash": "0x0000000000000000000000000000000000000000000000000000000000000000",
    "forkID": 7,
    "l1InfoRoot": "0x090bcaf734c4f06c93954a827b45a6e8c67b8e0fd1e0a35a1c5982d6961828f9",
    "timestampLimit": "1944498031",
    "l1InfoTree": {
      "skipVerifyL1InfoRoot": true
    }
  },
  {
    "id": 2,
    "description": "2 accounts and 1 invalid tx (tx with more value than balance). Old root equals new root.",
    "sequencerAddress": "0x617b3a3528F9cDd6630fd3301B9c8911F7Bf063D",
    "sequencerPvtKey": "0x28b2b0318721be8c8339199172cd7cc8f5e273800a35616ec893083a4b32c02e",
    "genesis": [
      {
        "address": "0x617b3a3528F9cDd6630fd3301B9c8911F7Bf063D",
        "nonce": "0",
        "balance": "100000000000000000000",
        "pvtKey": "0x28b2b0318721be8c8339199172cd7cc8f5e273800a35616ec893083a4b32c02e"
      },
      {
        "address": "0x4d5Cf5032B2a844602278b01199ED191A86c93ff",
        "nonce": "0",
        "balance": "200000000000000000000",
        "pvtKey": "0x4d27a600dce8c29b7bd080e29a26972377dbb04d7a27d919adbb602bf13cfd23"
      }
    ],
    "expectedOldRoot": "0x4a9bfcb163ec91c5beb22e6aca41592433092c8c7821b01d37fd0de483f9265d",
    "txs": [
      {
        "type": 11,
        "deltaTimestamp": 1944498031,
        "l1Info": {
          "globalExitRoot": "0x090bcaf734c4f06c93954a827b45a6e8c67b8e0fd1e0a35a1c5982d6961828f9",
          "blockHash": "0x24a5871d68723340d9eadc674aa8ad75f3e33b61d5a9db7db92af856a19270bb",
          "timestamp": "42"
        },
        "indexL1InfoTree": 0,
        "reason": "TX INVALID: Not enough funds to pay total transaction cost"
      },
      {
        "id": 0,
        "from": "0x617b3a3528F9cDd6630fd3301B9c8911F7Bf063D",
        "to": "0x4d5Cf5032B2a844602278b01199ED191A86c93ff",
        "nonce": 0,
        "value": "10000000000000000000000",
        "gasLimit": 100000,
        "gasPrice": "1000000000",
        "chainId": 1000,
        "rawTx": "0xf87080843b9aca00830186a0944d5cf5032b2a844602278b01199ed191a86c93ff8a021e19e0c9bab2400000808207f4a069d48cb9ade9de851379987aa0f7f677cdaee1152ec785a3d3009f094c889be9a0368c3d198cdfe5b1e0100fe110ea60e77b1eb65e9363d96f7fb9c2b84a37c9b0",
        "customRawTx": "0xf080843b9aca00830186a0944d5cf5032b2a844602278b01199ed191a86c93ff8a021e19e0c9bab2400000808203e8808069d48cb9ade9de851379987aa0f7f677cdaee1152ec785a3d3009f094c889be9368c3d198cdfe5b1e0100fe110ea60e77b1eb65e9363d96f7fb9c2b84a37c9b01cff",
        "reason": "TX INVALID: Not enough funds to pay total transaction cost"
      }
    ],
    "expectedNewRoot": "0xd1f3634407a983d709cc769c47f73252671b02d3a5ac8d37aed5ef344633bd2d",
    "expectedNewLeafs": {
      "0x617b3a3528F9cDd6630fd3301B9c8911F7Bf063D": {
        "balance": "100000000000000000000",
        "nonce": "0",
        "storage": null,
        "hashBytecode": "0x0000000000000000000000000000000000000000000000000000000000000000",
        "bytecodeLength": 0
      },
      "0x4d5Cf5032B2a844602278b01199ED191A86c93ff": {
        "balance": "200000000000000000000",
        "nonce": "0",
        "storage": null,
        "hashBytecode": "0x0000000000000000000000000000000000000000000000000000000000000000",
        "bytecodeLength": 0
      },
      "0x000000000000000000000000000000005ca1ab1e": {
        "balance": "0",
        "nonce": "0",
        "storage": {
          "0x0000000000000000000000000000000000000000000000000000000000000000": "0x01",
          "0x0000000000000000000000000000000000000000000000000000000000000002": "0x73e6af6f",
          "0xa6eef7e35abe7026729641147f7915573c7e97b47efa546f5f6e3230263bcb49": "0x4a9bfcb163ec91c5beb22e6aca41592433092c8c7821b01d37fd0de483f9265d",
          "0x0000000000000000000000000000000000000000000000000000000000000003": "0x3ebe99d151d7aac9a9b2302d188e0b7751fb3af804eecfbd96e639c25c466778"
        },
        "hashBytecode": "0x0000000000000000000000000000000000000000000000000000000000000000",
        "bytecodeLength": 0
      }
    },
    "batchL2Data": "0x0b73e6af6f00000000f080843b9aca00830186a0944d5cf5032b2a844602278b01199ed191a86c93ff8a021e19e0c9bab2400000808203e8808069d48cb9ade9de851379987aa0f7f677cdaee1152ec785a3d3009f094c889be9368c3d198cdfe5b1e0100fe110ea60e77b1eb65e9363d96f7fb9c2b84a37c9b01cff",
    "newLocalExitRoot": "0x0000000000000000000000000000000000000000000000000000000000000000",
    "batchHashData": "0x2660d636205375354622cf872a95e6681c294053d1df1d402c5b7f95281ff433",
    "chainID": 1000,
    "oldAccInputHash": "0x0000000000000000000000000000000000000000000000000000000000000000",
    "forkID": 7,
    "l1InfoRoot": "0x090bcaf734c4f06c93954a827b45a6e8c67b8e0fd1e0a35a1c5982d6961828f9",
    "timestampLimit": "1944498031",
    "l1InfoTree": {
      "skipVerifyL1InfoRoot": true
    }
  },
  {
    "id": 3,
    "description": "2 accounts and 2 invalid transactions. Tx with same amount than balance and tx with invalid chain id (different chain id than sequencer). Old root equals new root",
    "sequencerAddress": "0x617b3a3528F9cDd6630fd3301B9c8911F7Bf063D",
    "sequencerPvtKey": "0x28b2b0318721be8c8339199172cd7cc8f5e273800a35616ec893083a4b32c02e",
    "genesis": [
      {
        "address": "0x617b3a3528F9cDd6630fd3301B9c8911F7Bf063D",
        "nonce": "0",
        "balance": "100000000000000000000",
        "pvtKey": "0x28b2b0318721be8c8339199172cd7cc8f5e273800a35616ec893083a4b32c02e"
      },
      {
        "address": "0x4d5Cf5032B2a844602278b01199ED191A86c93ff",
        "nonce": "0",
        "balance": "200000000000000000000",
        "pvtKey": "0x4d27a600dce8c29b7bd080e29a26972377dbb04d7a27d919adbb602bf13cfd23"
      }
    ],
    "expectedOldRoot": "0x4a9bfcb163ec91c5beb22e6aca41592433092c8c7821b01d37fd0de483f9265d",
    "txs": [
      {
        "type": 11,
        "deltaTimestamp": 1944498031,
        "l1Info": {
          "globalExitRoot": "0x090bcaf734c4f06c93954a827b45a6e8c67b8e0fd1e0a35a1c5982d6961828f9",
          "blockHash": "0x24a5871d68723340d9eadc674aa8ad75f3e33b61d5a9db7db92af856a19270bb",
          "timestamp": "42"
        },
        "indexL1InfoTree": 0,
        "reason": "TX INVALID: Chain ID does not match"
      },
      {
        "id": 0,
        "from": "0x617b3a3528F9cDd6630fd3301B9c8911F7Bf063D",
        "to": "0x4d5Cf5032B2a844602278b01199ED191A86c93ff",
        "nonce": 0,
        "value": "100000000000000000",
        "gasLimit": 100000,
        "gasPrice": "1000000000",
        "chainId": 401,
        "rawTx": "0xf86e80843b9aca00830186a0944d5cf5032b2a844602278b01199ed191a86c93ff88016345785d8a000080820346a06e209c61ca92c2b980d6197e7ac9ccc3f547bf13be6455dfe682aa5dda9655efa016819a7edcc3fefec81ca97c7a6f3d10ec774440e409adbba693ce8b698d41f1",
        "customRawTx": "0xee80843b9aca00830186a0944d5cf5032b2a844602278b01199ed191a86c93ff88016345785d8a00008082019180806e209c61ca92c2b980d6197e7ac9ccc3f547bf13be6455dfe682aa5dda9655ef16819a7edcc3fefec81ca97c7a6f3d10ec774440e409adbba693ce8b698d41f11cff",
        "reason": "TX INVALID: Not enough funds to pay total transaction cost"
      },
      {
        "id": 3,
        "from": "0x617b3a3528F9cDd6630fd3301B9c8911F7Bf063D",
        "to": "0x4d5Cf5032B2a844602278b01199ED191A86c93ff",
        "nonce": 0,
        "value": "100000000000000000000",
        "gasLimit": 100000,
        "gasPrice": "1000000000",
        "chainId": 1000,
        "rawTx": "0xf86f80843b9aca00830186a0944d5cf5032b2a844602278b01199ed191a86c93ff89056bc75e2d63100000808207f3a06fac51f437890686cea7fc4d478e01f4650284d8b0c447d3a049ad799a938e85a05d76085acbdd3af82e205f070fd3f333d3f069ab3936323ac347003f07d9418a",
        "customRawTx": "0xef80843b9aca00830186a0944d5cf5032b2a844602278b01199ed191a86c93ff89056bc75e2d63100000808203e880806fac51f437890686cea7fc4d478e01f4650284d8b0c447d3a049ad799a938e855d76085acbdd3af82e205f070fd3f333d3f069ab3936323ac347003f07d9418a1bff",
        "reason": "TX INVALID: Not enough funds to pay total transaction cost"
      }
    ],
    "expectedNewRoot": "0xd1f3634407a983d709cc769c47f73252671b02d3a5ac8d37aed5ef344633bd2d",
    "expectedNewLeafs": {
      "0x617b3a3528F9cDd6630fd3301B9c8911F7Bf063D": {
        "balance": "100000000000000000000",
        "nonce": "0",
        "storage": null,
        "hashBytecode": "0x0000000000000000000000000000000000000000000000000000000000000000",
        "bytecodeLength": 0
      },
      "0x4d5Cf5032B2a844602278b01199ED191A86c93ff": {
        "balance": "200000000000000000000",
        "nonce": "0",
        "storage": null,
        "hashBytecode": "0x0000000000000000000000000000000000000000000000000000000000000000",
        "bytecodeLength": 0
      },
      "0x000000000000000000000000000000005ca1ab1e": {
        "balance": "0",
        "nonce": "0",
        "storage": {
          "0x0000000000000000000000000000000000000000000000000000000000000000": "0x01",
          "0x0000000000000000000000000000000000000000000000000000000000000002": "0x73e6af6f",
          "0xa6eef7e35abe7026729641147f7915573c7e97b47efa546f5f6e3230263bcb49": "0x4a9bfcb163ec91c5beb22e6aca41592433092c8c7821b01d37fd0de483f9265d",
          "0x0000000000000000000000000000000000000000000000000000000000000003": "0x3ebe99d151d7aac9a9b2302d188e0b7751fb3af804eecfbd96e639c25c466778"
        },
        "hashBytecode": "0x0000000000000000000000000000000000000000000000000000000000000000",
        "bytecodeLength": 0
      }
    },
    "batchL2Data": "0x0b73e6af6f00000000ee80843b9aca00830186a0944d5cf5032b2a844602278b01199ed191a86c93ff88016345785d8a00008082019180806e209c61ca92c2b980d6197e7ac9ccc3f547bf13be6455dfe682aa5dda9655ef16819a7edcc3fefec81ca97c7a6f3d10ec774440e409adbba693ce8b698d41f11cffef80843b9aca00830186a0944d5cf5032b2a844602278b01199ed191a86c93ff89056bc75e2d63100000808203e880806fac51f437890686cea7fc4d478e01f4650284d8b0c447d3a049ad799a938e855d76085acbdd3af82e205f070fd3f333d3f069ab3936323ac347003f07d9418a1bff",
    "newLocalExitRoot": "0x0000000000000000000000000000000000000000000000000000000000000000",
    "batchHashData": "0xc3d62331ecd1c451c645edf078600c2550f109f9bfd5369abbefdee2f22ce0a3",
    "chainID": 1000,
    "oldAccInputHash": "0x0000000000000000000000000000000000000000000000000000000000000000",
    "forkID": 7,
    "l1InfoRoot": "0x090bcaf734c4f06c93954a827b45a6e8c67b8e0fd1e0a35a1c5982d6961828f9",
    "timestampLimit": "1944498031",
    "l1InfoTree": {
      "skipVerifyL1InfoRoot": true
    }
  },
  {
    "id": 4,
    "description": "2 accounts and 1 invalid transaction. Wrong encode of the tx (invalid signature). Old root equals new root",
    "sequencerAddress": "0x617b3a3528F9cDd6630fd3301B9c8911F7Bf063D",
    "sequencerPvtKey": "0x28b2b0318721be8c8339199172cd7cc8f5e273800a35616ec893083a4b32c02e",
    "genesis": [
      {
        "address": "0x617b3a3528F9cDd6630fd3301B9c8911F7Bf063D",
        "nonce": "0",
        "balance": "100000000000000000000",
        "pvtKey": "0x28b2b0318721be8c8339199172cd7cc8f5e273800a35616ec893083a4b32c02e"
      },
      {
        "address": "0x4d5Cf5032B2a844602278b01199ED191A86c93ff",
        "nonce": "0",
        "balance": "200000000000000000000",
        "pvtKey": "0x4d27a600dce8c29b7bd080e29a26972377dbb04d7a27d919adbb602bf13cfd23"
      }
    ],
    "expectedOldRoot": "0x4a9bfcb163ec91c5beb22e6aca41592433092c8c7821b01d37fd0de483f9265d",
    "txs": [
      {
        "type": 11,
        "deltaTimestamp": 1944498031,
        "l1Info": {
          "globalExitRoot": "0x090bcaf734c4f06c93954a827b45a6e8c67b8e0fd1e0a35a1c5982d6961828f9",
          "blockHash": "0x24a5871d68723340d9eadc674aa8ad75f3e33b61d5a9db7db92af856a19270bb",
          "timestamp": "42"
        },
        "indexL1InfoTree": 0,
        "reason": "TX INVALID: Not enough funds to pay total transaction cost"
      },
      {
        "id": 0,
        "from": "0x617b3a3528F9cDd6630fd3301B9c8911F7Bf063D",
        "to": "0x4d5Cf5032B2a844602278b01199ED191A86c93ff",
        "nonce": 0,
        "value": "100000000000000000",
        "gasLimit": 100000,
        "gasPrice": "1000000000",
        "chainId": 1000,
        "rawTx": "0xf86e80843b9aca00830186a0944d5cf5032b2a844602278b01199ed191a86c93ff88016345785d8a0000808207f3a01cee7e01dc62f69a12c3510c6d64de04ee6346d84b6a017f3e786c7d87f963e7a019683074bcc81dba07fad2ac4015cf2eba4807c1aa1a8d291e77317a45fc2023",
        "overwrite": {
          "s": "0x19683074bcc81dba07fad2ac4015cf2eba4807c1aa1a8d291e77317a45fc2023"
        },
        "customRawTx": "0xee80843b9aca00830186a0944d5cf5032b2a844602278b01199ed191a86c93ff88016345785d8a0000808203e880801cee7e01dc62f69a12c3510c6d64de04ee6346d84b6a017f3e786c7d87f963e719683074bcc81dba07fad2ac4015cf2eba4807c1aa1a8d291e77317a45fc20231bff",
        "reason": "TX INVALID: Not enough funds to pay total transaction cost"
      }
    ],
    "expectedNewRoot": "0xd1f3634407a983d709cc769c47f73252671b02d3a5ac8d37aed5ef344633bd2d",
    "expectedNewLeafs": {
      "0x617b3a3528F9cDd6630fd3301B9c8911F7Bf063D": {
        "balance": "100000000000000000000",
        "nonce": "0",
        "storage": null,
        "hashBytecode": "0x0000000000000000000000000000000000000000000000000000000000000000",
        "bytecodeLength": 0
      },
      "0x4d5Cf5032B2a844602278b01199ED191A86c93ff": {
        "balance": "200000000000000000000",
        "nonce": "0",
        "storage": null,
        "hashBytecode": "0x0000000000000000000000000000000000000000000000000000000000000000",
        "bytecodeLength": 0
      },
      "0x000000000000000000000000000000005ca1ab1e": {
        "balance": "0",
        "nonce": "0",
        "storage": {
          "0x0000000000000000000000000000000000000000000000000000000000000000": "0x01",
          "0x0000000000000000000000000000000000000000000000000000000000000002": "0x73e6af6f",
          "0xa6eef7e35abe7026729641147f7915573c7e97b47efa546f5f6e3230263bcb49": "0x4a9bfcb163ec91c5beb22e6aca41592433092c8c7821b01d37fd0de483f9265d",
          "0x0000000000000000000000000000000000000000000000000000000000000003": "0x3ebe99d151d7aac9a9b2302d188e0b7751fb3af804eecfbd96e639c25c466778"
        },
        "hashBytecode": "0x0000000000000000000000000000000000000000000000000000000000000000",
        "bytecodeLength": 0
      }
    },
    "batchL2Data": "0x0b73e6af6f00000000ee80843b9aca00830186a0944d5cf5032b2a844602278b01199ed191a86c93ff88016345785d8a0000808203e880801cee7e01dc62f69a12c3510c6d64de04ee6346d84b6a017f3e786c7d87f963e719683074bcc81dba07fad2ac4015cf2eba4807c1aa1a8d291e77317a45fc20231bff",
    "newLocalExitRoot": "0x0000000000000000000000000000000000000000000000000000000000000000",
    "batchHashData": "0x274e96c34b03a27919ce3dee97a5bb49d8d0a7277817c501c48aa7d7e5b010dd",
    "chainID": 1000,
    "oldAccInputHash": "0x0000000000000000000000000000000000000000000000000000000000000000",
    "forkID": 7,
    "l1InfoRoot": "0x090bcaf734c4f06c93954a827b45a6e8c67b8e0fd1e0a35a1c5982d6961828f9",
    "timestampLimit": "1944498031",
    "l1InfoTree": {
      "skipVerifyL1InfoRoot": true
    }
  },
  {
    "id": 5,
    "description": "2 accounts and 3 valid transaction.",
    "sequencerAddress": "0x617b3a3528F9cDd6630fd3301B9c8911F7Bf063D",
    "sequencerPvtKey": "0x28b2b0318721be8c8339199172cd7cc8f5e273800a35616ec893083a4b32c02e",
    "genesis": [
      {
        "address": "0x617b3a3528F9cDd6630fd3301B9c8911F7Bf063D",
        "nonce": "0",
        "balance": "100000000000000000000",
        "pvtKey": "0x28b2b0318721be8c8339199172cd7cc8f5e273800a35616ec893083a4b32c02e"
      },
      {
        "address": "0x4d5Cf5032B2a844602278b01199ED191A86c93ff",
        "nonce": "0",
        "balance": "200000000000000000000",
        "pvtKey": "0x4d27a600dce8c29b7bd080e29a26972377dbb04d7a27d919adbb602bf13cfd23"
      }
    ],
    "expectedOldRoot": "0x4a9bfcb163ec91c5beb22e6aca41592433092c8c7821b01d37fd0de483f9265d",
    "txs": [
      {
        "type": 11,
        "deltaTimestamp": 1944498031,
        "l1Info": {
          "globalExitRoot": "0x090bcaf734c4f06c93954a827b45a6e8c67b8e0fd1e0a35a1c5982d6961828f9",
          "blockHash": "0x24a5871d68723340d9eadc674aa8ad75f3e33b61d5a9db7db92af856a19270bb",
          "timestamp": "42"
        },
        "indexL1InfoTree": 0,
        "reason": ""
      },
      {
        "id": 0,
        "from": "0x617b3a3528F9cDd6630fd3301B9c8911F7Bf063D",
        "to": "0x4d5Cf5032B2a844602278b01199ED191A86c93ff",
        "nonce": 0,
        "value": "100000000000000000",
        "gasLimit": 100000,
        "gasPrice": "1000000000",
        "chainId": 1000,
        "rawTx": "0xf86e80843b9aca00830186a0944d5cf5032b2a844602278b01199ed191a86c93ff88016345785d8a0000808207f3a01cee7e01dc62f69a12c3510c6d64de04ee6346d84b6a017f3e786c7d87f963e7a05d8cc91fa983cd6d9cf55fff80d73bd26cd333b0f098acc1e58edb1fd484ad73",
        "customRawTx": "0xee80843b9aca00830186a0944d5cf5032b2a844602278b01199ed191a86c93ff88016345785d8a0000808203e880801cee7e01dc62f69a12c3510c6d64de04ee6346d84b6a017f3e786c7d87f963e75d8cc91fa983cd6d9cf55fff80d73bd26cd333b0f098acc1e58edb1fd484ad731bff",
        "reason": ""
      },
      {
        "id": 1,
        "from": "0x617b3a3528F9cDd6630fd3301B9c8911F7Bf063D",
        "to": "0x4d5Cf5032B2a844602278b01199ED191A86c93ff",
        "nonce": 1,
        "value": "100000000000000000",
        "gasLimit": 100000,
        "gasPrice": "1000000000",
        "chainId": 1000,
        "rawTx": "0xf86e01843b9aca00830186a0944d5cf5032b2a844602278b01199ed191a86c93ff88016345785d8a0000808207f4a03ee20a0764440b016c4a2ee4e7e4eb3a5a97f1e6a6c9f40bf5ecf50f95ff636da063878ddb3e997e519826c7bb26fb7c5950a208e1ec722a9f1c568c4e479b4034",
        "customRawTx": "0xee01843b9aca00830186a0944d5cf5032b2a844602278b01199ed191a86c93ff88016345785d8a0000808203e880803ee20a0764440b016c4a2ee4e7e4eb3a5a97f1e6a6c9f40bf5ecf50f95ff636d63878ddb3e997e519826c7bb26fb7c5950a208e1ec722a9f1c568c4e479b40341cff",
        "reason": ""
      },
      {
        "id": 2,
        "from": "0x617b3a3528F9cDd6630fd3301B9c8911F7Bf063D",
        "to": "0x4d5Cf5032B2a844602278b01199ED191A86c93ff",
        "nonce": 2,
        "value": "100000000000000000",
        "gasLimit": 100000,
        "gasPrice": "1000000000",
        "chainId": 1000,
        "rawTx": "0xf86e02843b9aca00830186a0944d5cf5032b2a844602278b01199ed191a86c93ff88016345785d8a0000808207f3a0bff0e780ba7db409339fd3f71969fa2cbf1b8535f6c725a1499d3318d3ef9c2ba06340ddfab84add2c188f9efddb99771db1fe621c981846394ea4f035c85bcdd5",
        "customRawTx": "0xee02843b9aca00830186a0944d5cf5032b2a844602278b01199ed191a86c93ff88016345785d8a0000808203e88080bff0e780ba7db409339fd3f71969fa2cbf1b8535f6c725a1499d3318d3ef9c2b6340ddfab84add2c188f9efddb99771db1fe621c981846394ea4f035c85bcdd51bff",
        "reason": ""
      }
    ],
    "expectedNewRoot": "0xd1152a73c3849ad6ae615572af23a3ff623401f23d309a597a7e76081e7b0535",
    "expectedNewLeafs": {
      "0x617b3a3528F9cDd6630fd3301B9c8911F7Bf063D": {
        "balance": "99700000000000000000",
        "nonce": "3",
        "storage": null,
        "hashBytecode": "0x0000000000000000000000000000000000000000000000000000000000000000",
        "bytecodeLength": 0
      },
      "0x4d5Cf5032B2a844602278b01199ED191A86c93ff": {
        "balance": "200300000000000000000",
        "nonce": "0",
        "storage": null,
        "hashBytecode": "0x0000000000000000000000000000000000000000000000000000000000000000",
        "bytecodeLength": 0
      },
      "0x000000000000000000000000000000005ca1ab1e": {
        "balance": "0",
        "nonce": "0",
        "storage": {
          "0x0000000000000000000000000000000000000000000000000000000000000000": "0x01",
          "0x0000000000000000000000000000000000000000000000000000000000000002": "0x73e6af6f",
          "0xa6eef7e35abe7026729641147f7915573c7e97b47efa546f5f6e3230263bcb49": "0x4a9bfcb163ec91c5beb22e6aca41592433092c8c7821b01d37fd0de483f9265d",
          "0x0000000000000000000000000000000000000000000000000000000000000003": "0xd71042c20553e93c7e74537a148a683ec1eafffe44ac19d581d73e8abbdac925"
        },
        "hashBytecode": "0x0000000000000000000000000000000000000000000000000000000000000000",
        "bytecodeLength": 0
      }
    },
    "batchL2Data": "0x0b73e6af6f00000000ee80843b9aca00830186a0944d5cf5032b2a844602278b01199ed191a86c93ff88016345785d8a0000808203e880801cee7e01dc62f69a12c3510c6d64de04ee6346d84b6a017f3e786c7d87f963e75d8cc91fa983cd6d9cf55fff80d73bd26cd333b0f098acc1e58edb1fd484ad731bffee01843b9aca00830186a0944d5cf5032b2a844602278b01199ed191a86c93ff88016345785d8a0000808203e880803ee20a0764440b016c4a2ee4e7e4eb3a5a97f1e6a6c9f40bf5ecf50f95ff636d63878ddb3e997e519826c7bb26fb7c5950a208e1ec722a9f1c568c4e479b40341cffee02843b9aca00830186a0944d5cf5032b2a844602278b01199ed191a86c93ff88016345785d8a0000808203e88080bff0e780ba7db409339fd3f71969fa2cbf1b8535f6c725a1499d3318d3ef9c2b6340ddfab84add2c188f9efddb99771db1fe621c981846394ea4f035c85bcdd51bff",
    "newLocalExitRoot": "0x0000000000000000000000000000000000000000000000000000000000000000",
    "batchHashData": "0x24e34a290015d3b1f9f14feb2f3d94e315acac1487021373b0b732ee24e36c5f",
    "chainID": 1000,
    "oldAccInputHash": "0x0000000000000000000000000000000000000000000000000000000000000000",
    "forkID": 7,
    "l1InfoRoot": "0x090bcaf734c4f06c93954a827b45a6e8c67b8e0fd1e0a35a1c5982d6961828f9",
    "timestampLimit": "1944498031",
    "l1InfoTree": {
      "skipVerifyL1InfoRoot": true
    }
  },
  {
    "id": 6,
    "description": "2 accounts and 3 invalid tx (tx with more value than balance). Old root equals new root.",
    "sequencerAddress": "0x617b3a3528F9cDd6630fd3301B9c8911F7Bf063D",
    "sequencerPvtKey": "0x28b2b0318721be8c8339199172cd7cc8f5e273800a35616ec893083a4b32c02e",
    "genesis": [
      {
        "address": "0x617b3a3528F9cDd6630fd3301B9c8911F7Bf063D",
        "nonce": "0",
        "balance": "100000000000000000000",
        "pvtKey": "0x28b2b0318721be8c8339199172cd7cc8f5e273800a35616ec893083a4b32c02e"
      },
      {
        "address": "0x4d5Cf5032B2a844602278b01199ED191A86c93ff",
        "nonce": "0",
        "balance": "200000000000000000000",
        "pvtKey": "0x4d27a600dce8c29b7bd080e29a26972377dbb04d7a27d919adbb602bf13cfd23"
      }
    ],
    "expectedOldRoot": "0x4a9bfcb163ec91c5beb22e6aca41592433092c8c7821b01d37fd0de483f9265d",
    "txs": [
      {
        "type": 11,
        "deltaTimestamp": 1944498031,
        "l1Info": {
          "globalExitRoot": "0x090bcaf734c4f06c93954a827b45a6e8c67b8e0fd1e0a35a1c5982d6961828f9",
          "blockHash": "0x24a5871d68723340d9eadc674aa8ad75f3e33b61d5a9db7db92af856a19270bb",
          "timestamp": "42"
        },
        "indexL1InfoTree": 0,
        "reason": "TX INVALID: Not enough funds to pay total transaction cost"
      },
      {
        "id": 0,
        "from": "0x617b3a3528F9cDd6630fd3301B9c8911F7Bf063D",
        "to": "0x4d5Cf5032B2a844602278b01199ED191A86c93ff",
        "nonce": 0,
        "value": "10000000000000000000000",
        "gasLimit": 100000,
        "gasPrice": "1000000000",
        "chainId": 1000,
        "rawTx": "0xf87080843b9aca00830186a0944d5cf5032b2a844602278b01199ed191a86c93ff8a021e19e0c9bab2400000808207f4a069d48cb9ade9de851379987aa0f7f677cdaee1152ec785a3d3009f094c889be9a0368c3d198cdfe5b1e0100fe110ea60e77b1eb65e9363d96f7fb9c2b84a37c9b0",
        "customRawTx": "0xf080843b9aca00830186a0944d5cf5032b2a844602278b01199ed191a86c93ff8a021e19e0c9bab2400000808203e8808069d48cb9ade9de851379987aa0f7f677cdaee1152ec785a3d3009f094c889be9368c3d198cdfe5b1e0100fe110ea60e77b1eb65e9363d96f7fb9c2b84a37c9b01cff",
        "reason": "TX INVALID: Not enough funds to pay total transaction cost"
      },
      {
        "id": 1,
        "from": "0x617b3a3528F9cDd6630fd3301B9c8911F7Bf063D",
        "to": "0x4d5Cf5032B2a844602278b01199ED191A86c93ff",
        "nonce": 0,
        "value": "10000000000000000000000",
        "gasLimit": 100000,
        "gasPrice": "1000000000",
        "chainId": 1000,
        "rawTx": "0xf87080843b9aca00830186a0944d5cf5032b2a844602278b01199ed191a86c93ff8a021e19e0c9bab2400000808207f4a069d48cb9ade9de851379987aa0f7f677cdaee1152ec785a3d3009f094c889be9a0368c3d198cdfe5b1e0100fe110ea60e77b1eb65e9363d96f7fb9c2b84a37c9b0",
        "customRawTx": "0xf080843b9aca00830186a0944d5cf5032b2a844602278b01199ed191a86c93ff8a021e19e0c9bab2400000808203e8808069d48cb9ade9de851379987aa0f7f677cdaee1152ec785a3d3009f094c889be9368c3d198cdfe5b1e0100fe110ea60e77b1eb65e9363d96f7fb9c2b84a37c9b01cff",
        "reason": "TX INVALID: Not enough funds to pay total transaction cost"
      },
      {
        "id": 2,
        "from": "0x617b3a3528F9cDd6630fd3301B9c8911F7Bf063D",
        "to": "0x4d5Cf5032B2a844602278b01199ED191A86c93ff",
        "nonce": 0,
        "value": "10000000000000000000000",
        "gasLimit": 100000,
        "gasPrice": "1000000000",
        "chainId": 1000,
        "rawTx": "0xf87080843b9aca00830186a0944d5cf5032b2a844602278b01199ed191a86c93ff8a021e19e0c9bab2400000808207f4a069d48cb9ade9de851379987aa0f7f677cdaee1152ec785a3d3009f094c889be9a0368c3d198cdfe5b1e0100fe110ea60e77b1eb65e9363d96f7fb9c2b84a37c9b0",
        "customRawTx": "0xf080843b9aca00830186a0944d5cf5032b2a844602278b01199ed191a86c93ff8a021e19e0c9bab2400000808203e8808069d48cb9ade9de851379987aa0f7f677cdaee1152ec785a3d3009f094c889be9368c3d198cdfe5b1e0100fe110ea60e77b1eb65e9363d96f7fb9c2b84a37c9b01cff",
        "reason": "TX INVALID: Not enough funds to pay total transaction cost"
      }
    ],
    "expectedNewRoot": "0xd1f3634407a983d709cc769c47f73252671b02d3a5ac8d37aed5ef344633bd2d",
    "expectedNewLeafs": {
      "0x617b3a3528F9cDd6630fd3301B9c8911F7Bf063D": {
        "balance": "100000000000000000000",
        "nonce": "0",
        "storage": null,
        "hashBytecode": "0x0000000000000000000000000000000000000000000000000000000000000000",
        "bytecodeLength": 0
      },
      "0x4d5Cf5032B2a844602278b01199ED191A86c93ff": {
        "balance": "200000000000000000000",
        "nonce": "0",
        "storage": null,
        "hashBytecode": "0x0000000000000000000000000000000000000000000000000000000000000000",
        "bytecodeLength": 0
      },
      "0x000000000000000000000000000000005ca1ab1e": {
        "balance": "0",
        "nonce": "0",
        "storage": {
          "0x0000000000000000000000000000000000000000000000000000000000000000": "0x01",
          "0x0000000000000000000000000000000000000000000000000000000000000002": "0x73e6af6f",
          "0xa6eef7e35abe7026729641147f7915573c7e97b47efa546f5f6e3230263bcb49": "0x4a9bfcb163ec91c5beb22e6aca41592433092c8c7821b01d37fd0de483f9265d",
          "0x0000000000000000000000000000000000000000000000000000000000000003": "0x3ebe99d151d7aac9a9b2302d188e0b7751fb3af804eecfbd96e639c25c466778"
        },
        "hashBytecode": "0x0000000000000000000000000000000000000000000000000000000000000000",
        "bytecodeLength": 0
      }
    },
    "batchL2Data": "0x0b73e6af6f00000000f080843b9aca00830186a0944d5cf5032b2a844602278b01199ed191a86c93ff8a021e19e0c9bab2400000808203e8808069d48cb9ade9de851379987aa0f7f677cdaee1152ec785a3d3009f094c889be9368c3d198cdfe5b1e0100fe110ea60e77b1eb65e9363d96f7fb9c2b84a37c9b01cfff080843b9aca00830186a0944d5cf5032b2a844602278b01199ed191a86c93ff8a021e19e0c9bab2400000808203e8808069d48cb9ade9de851379987aa0f7f677cdaee1152ec785a3d3009f094c889be9368c3d198cdfe5b1e0100fe110ea60e77b1eb65e9363d96f7fb9c2b84a37c9b01cfff080843b9aca00830186a0944d5cf5032b2a844602278b01199ed191a86c93ff8a021e19e0c9bab2400000808203e8808069d48cb9ade9de851379987aa0f7f677cdaee1152ec785a3d3009f094c889be9368c3d198cdfe5b1e0100fe110ea60e77b1eb65e9363d96f7fb9c2b84a37c9b01cff",
    "newLocalExitRoot": "0x0000000000000000000000000000000000000000000000000000000000000000",
    "batchHashData": "0x8c051951d96a4edb58055941094da6ff1a3544a554b960164d6a65209335302b",
    "chainID": 1000,
    "oldAccInputHash": "0x0000000000000000000000000000000000000000000000000000000000000000",
    "forkID": 7,
    "l1InfoRoot": "0x090bcaf734c4f06c93954a827b45a6e8c67b8e0fd1e0a35a1c5982d6961828f9",
    "timestampLimit": "1944498031",
    "l1InfoTree": {
      "skipVerifyL1InfoRoot": true
    }
  },
  {
    "id": 7,
    "description": "2 accounts and 0 txs. Old root equals new root.",
    "sequencerAddress": "0x617b3a3528F9cDd6630fd3301B9c8911F7Bf063D",
    "sequencerPvtKey": "0x28b2b0318721be8c8339199172cd7cc8f5e273800a35616ec893083a4b32c02e",
    "autoChangeL2Block": false,
    "genesis": [
      {
        "address": "0x617b3a3528F9cDd6630fd3301B9c8911F7Bf063D",
        "nonce": "0",
        "balance": "100000000000000000000",
        "pvtKey": "0x28b2b0318721be8c8339199172cd7cc8f5e273800a35616ec893083a4b32c02e"
      },
      {
        "address": "0x4d5Cf5032B2a844602278b01199ED191A86c93ff",
        "nonce": "0",
        "balance": "200000000000000000000",
        "pvtKey": "0x4d27a600dce8c29b7bd080e29a26972377dbb04d7a27d919adbb602bf13cfd23"
      }
    ],
    "expectedOldRoot": "0x4a9bfcb163ec91c5beb22e6aca41592433092c8c7821b01d37fd0de483f9265d",
    "txs": [],
    "expectedNewRoot": "0x4a9bfcb163ec91c5beb22e6aca41592433092c8c7821b01d37fd0de483f9265d",
    "expectedNewLeafs": {
      "0x617b3a3528F9cDd6630fd3301B9c8911F7Bf063D": {
        "balance": "100000000000000000000",
        "nonce": "0",
        "storage": null,
        "hashBytecode": "0x0000000000000000000000000000000000000000000000000000000000000000",
        "bytecodeLength": 0
      },
      "0x4d5Cf5032B2a844602278b01199ED191A86c93ff": {
        "balance": "200000000000000000000",
        "nonce": "0",
        "storage": null,
        "hashBytecode": "0x0000000000000000000000000000000000000000000000000000000000000000",
        "bytecodeLength": 0
      },
      "0x000000000000000000000000000000005ca1ab1e": {
        "balance": "0",
        "nonce": "0",
        "storage": {},
        "hashBytecode": "0x0000000000000000000000000000000000000000000000000000000000000000",
        "bytecodeLength": 0
      }
    },
    "batchL2Data": "0x",
    "newLocalExitRoot": "0x0000000000000000000000000000000000000000000000000000000000000000",
    "batchHashData": "0xc5d2460186f7233c927e7db2dcc703c0e500b653ca82273b7bfad8045d85a470",
    "chainID": 1000,
    "oldAccInputHash": "0x0000000000000000000000000000000000000000000000000000000000000000",
    "forkID": 7,
    "l1InfoRoot": "0x090bcaf734c4f06c93954a827b45a6e8c67b8e0fd1e0a35a1c5982d6961828f9",
    "timestampLimit": "1944498031",
    "l1InfoTree": {
      "skipVerifyL1InfoRoot": true
    }
  }
]
