{
  "expectedOldStateRoot": "0x4a9bfcb163ec91c5beb22e6aca41592433092c8c7821b01d37fd0de483f9265d",
  "expectedNewStateRoot": "0x4a9bfcb163ec91c5beb22e6aca41592433092c8c7821b01d37fd0de483f9265d",
  "batchL2Data": "0xf85880843b9aca00830186a0944d5cf5032b2a844602278b01199ed191a86c93ff8a021e19e0c9bab240000080aa4e8ba596e7607400000000000000000000000000000000000000000000000000000000000000808203e98080510a8a10721e65bf2913889751f3b32de1cb4733a667e06b708f122965da598e75ca7d27cb4c3846490b4c446605d0120b0720b70dfe5a07f865a161c37263221b",
  "genesis": [
    {
      "address": "0x617b3a3528F9cDd6630fd3301B9c8911F7Bf063D",
      "nonce": "0",
      "balance": "100000000000000000000",
      "pvtKey": "0x28b2b0318721be8c8339199172cd7cc8f5e273800a35616ec893083a4b32c02e",
      "isSmartContract": false
    },
    {
      "address": "0x4d5Cf5032B2a844602278b01199ED191A86c93ff",
      "nonce": "0",
      "balance": "200000000000000000000",
      "pvtKey": "0x4d27a600dce8c29b7bd080e29a26972377dbb04d7a27d919adbb602bf13cfd23",
      "isSmartContract": false
    },
    {
      "address": "0x617b3a3528F9cDd6630fd3301B9c8911F7Bf063D",
      "nonce": "0",
      "balance": "100000000000000000000",
      "pvtKey": "0x28b2b0318721be8c8339199172cd7cc8f5e273800a35616ec893083a4b32c02e",
      "isSmartContract": false
    },
    {
      "address": "0x4d5Cf5032B2a844602278b01199ED191A86c93ff",
      "nonce": "0",
      "balance": "200000000000000000000",
      "pvtKey": "0x4d27a600dce8c29b7bd080e29a26972377dbb04d7a27d919adbb602bf13cfd23",
      "isSmartContract": false
    }
  ],
  "expectedNewLeafs": []
}