{
  "expectedOldStateRoot": "0x4a31d576b3ca0e6d7c9f6b89833ec267ab114efb8a96d6cea558660643b195aa",
  "expectedNewStateRoot": "0x1611b5d11287c7e2d8e1f0449c098ef414fd130886fd97e805c4e059e0d42973",
  "batchL2Data": "0xf847010a8401c9c38094cccccccccccccccccccccccccccccccccccccccc80a4693c613900000000000000000000000000000000000000000000000000000000000000208203e8808030b1c4defe2a890d03a5e8324f9c23d6c9768c6a1e4b072327badd4563cbab884ae325fcf9a8676a31f0b488c93e403c5b73d3c08f340ccbc7db2afcd50b2dc71b",
  "genesis": [
    {
      "address": "0x000000000000000000000000000000000000ca11",
      "nonce": "1",
      "balance": "838137708091124174",
      "storage": {},
      "isSmartContract": true,
      "bytecode": "0x00"
    },
    {
      "address": "0x0000000000000000000000000000000000c0de20",
      "nonce": "1",
      "balance": "838137708091124174",
      "storage": {},
      "isSmartContract": true,
      "bytecode": "0x61beef60002050"
    },
    {
      "address": "0x0000000000000000000000000000000000c0de3b",
      "nonce": "1",
      "balance": "838137708091124174",
      "storage": {},
      "isSmartContract": true,
      "bytecode": "0x61ca11803b60006000833c50"
    },
    {
      "address": "0x0000000000000000000000000000000000c0de51",
      "nonce": "1",
      "balance": "838137708091124174",
      "storage": {},
      "isSmartContract": true,
      "bytecode": "0x61b0005150"
    },
    {
      "address": "0x0000000000000000000000000000000000c0de52",
      "nonce": "1",
      "balance": "838137708091124174",
      "storage": {},
      "isSmartContract": true,
      "bytecode": "0x60ff61b00052"
    },
    {
      "address": "0x0000000000000000000000000000000000c0de53",
      "nonce": "1",
      "balance": "838137708091124174",
      "storage": {},
      "isSmartContract": true,
      "bytecode": "0x60ff61b00053"
    },
    {
      "address": "0x0000000000000000000000000000000000c0def0",
      "nonce": "1",
      "balance": "838137708091124174",
      "storage": {},
      "isSmartContract": true,
      "bytecode": "0x61020060006000f050"
    },
    {
      "address": "0x0000000000000000000000000000000000c0def1",
      "nonce": "1",
      "balance": "838137708091124174",
      "storage": {},
      "isSmartContract": true,
      "bytecode": "0x61010060006101006000600061ca115af150"
    },
    {
      "address": "0x0000000000000000000000000000000000c0def2",
      "nonce": "1",
      "balance": "838137708091124174",
      "storage": {},
      "isSmartContract": true,
      "bytecode": "0x61010060006101006000600061ca115af250"
    },
    {
      "address": "0x0000000000000000000000000000000000c0def4",
      "nonce": "1",
      "balance": "838137708091124174",
      "storage": {},
      "isSmartContract": true,
      "bytecode": "0x6101006000610100600061ca115af450"
    },
    {
      "address": "0x0000000000000000000000000000000000c0def5",
      "nonce": "1",
      "balance": "838137708091124174",
      "storage": {},
      "isSmartContract": true,
      "bytecode": "0x5a615a170161020060006000f550"
    },
    {
      "address": "0x0000000000000000000000000000000000c0defa",
      "nonce": "1",
      "balance": "838137708091124174",
      "storage": {},
      "isSmartContract": true,
      "bytecode": "0x6101006000610100600061ca115afa50"
    },
    {
      "address": "0xa94f5374fce5edbc8e2a8697c15331677e6ebf0b",
      "nonce": "1",
      "balance": "838137708091124174",
      "storage": {},
      "isSmartContract": false,
      "bytecode": "0x"
    },
    {
      "address": "0xcccccccccccccccccccccccccccccccccccccccc",
      "nonce": "1",
      "balance": "838137708091124174",
      "storage": {},
      "isSmartContract": true,
      "bytecode": "0x600061ea6060043562c0de00015b60018383031115604957600282840104600060006000600060008686f160008114156036578194505b60018114156042578193505b50505b600d565b81600055505050"
    }
  ],
  "expectedNewLeafs": [
    {
      "address": "0x000000000000000000000000000000000000ca11",
      "nonce": "1",
      "balance": "838137708091124174",
      "storage": {},
      "isSmartContract": true,
      "bytecode": "0x00"
    },
    {
      "address": "0x0000000000000000000000000000000000c0de20",
      "nonce": "1",
      "balance": "838137708091124174",
      "storage": {},
      "isSmartContract": true,
      "bytecode": "0x61beef60002050"
    },
    {
      "address": "0x0000000000000000000000000000000000c0de3b",
      "nonce": "1",
      "balance": "838137708091124174",
      "storage": {},
      "isSmartContract": true,
      "bytecode": "0x61ca11803b60006000833c50"
    },
    {
      "address": "0x0000000000000000000000000000000000c0de51",
      "nonce": "1",
      "balance": "838137708091124174",
      "storage": {},
      "isSmartContract": true,
      "bytecode": "0x61b0005150"
    },
    {
      "address": "0x0000000000000000000000000000000000c0de52",
      "nonce": "1",
      "balance": "838137708091124174",
      "storage": {},
      "isSmartContract": true,
      "bytecode": "0x60ff61b00052"
    },
    {
      "address": "0x0000000000000000000000000000000000c0de53",
      "nonce": "1",
      "balance": "838137708091124174",
      "storage": {},
      "isSmartContract": true,
      "bytecode": "0x60ff61b00053"
    },
    {
      "address": "0x0000000000000000000000000000000000c0def0",
      "nonce": "1",
      "balance": "838137708091124174",
      "storage": {},
      "isSmartContract": true,
      "bytecode": "0x61020060006000f050"
    },
    {
      "address": "0x0000000000000000000000000000000000c0def1",
      "nonce": "1",
      "balance": "838137708091124174",
      "storage": {},
      "isSmartContract": true,
      "bytecode": "0x61010060006101006000600061ca115af150"
    },
    {
      "address": "0x0000000000000000000000000000000000c0def2",
      "nonce": "1",
      "balance": "838137708091124174",
      "storage": {},
      "isSmartContract": true,
      "bytecode": "0x61010060006101006000600061ca115af250"
    },
    {
      "address": "0x0000000000000000000000000000000000c0def4",
      "nonce": "1",
      "balance": "838137708091124174",
      "storage": {},
      "isSmartContract": true,
      "bytecode": "0x6101006000610100600061ca115af450"
    },
    {
      "address": "0x0000000000000000000000000000000000c0def5",
      "nonce": "1",
      "balance": "838137708091124174",
      "storage": {},
      "isSmartContract": true,
      "bytecode": "0x5a615a170161020060006000f550"
    },
    {
      "address": "0x0000000000000000000000000000000000c0defa",
      "nonce": "1",
      "balance": "838137708091124174",
      "storage": {},
      "isSmartContract": true,
      "bytecode": "0x6101006000610100600061ca115afa50"
    },
    {
      "address": "0x2adc25665018aa1fe0e6bc666dac8fc2697ff9ba",
      "nonce": "0",
      "balance": "2000000000003379550",
      "storage": {},
      "isSmartContract": false,
      "bytecode": "0x"
    },
    {
      "address": "0xa94f5374fce5edbc8e2a8697c15331677e6ebf0b",
      "nonce": "2",
      "balance": "838137708087744624",
      "storage": {},
      "isSmartContract": false,
      "bytecode": "0x"
    },
    {
      "address": "0xcccccccccccccccccccccccccccccccccccccccc",
      "nonce": "1",
      "balance": "838137708091124174",
      "storage": {
        "0x00": "0x47ae"
      },
      "isSmartContract": true,
      "bytecode": "0x600061ea6060043562c0de00015b60018383031115604957600282840104600060006000600060008686f160008114156036578194505b60018114156042578193505b50505b600d565b81600055505050"
    }
  ]
}