{
  "expectedOldStateRoot": "0x0e121b6224758159d9043035cec07bb08dc718a77920ecc6cb219e2c301cadb4",
  "expectedNewStateRoot": "0x133ed16a772375e9b267166fe326ea4929d71e00ca59fe7b153c52280502e1d5",
  "batchL2Data": "0xf8ab80843b9aca00830249f0941275fbb540c8efc58b812ba83b0d0b8b9917ae9880b884eacabe14000000000000000000000000617b3a3528f9cdd6630fd3301b9c8911f7bf063d0000000000000000000000000000000000000000000000000000000000000040000000000000000000000000000000000000000000000000000000000000000375726900000000000000000000000000000000000000000000000000000000008203e88080f21404028c2510bf6200749dfba70b800bd7f9f9cfc62f2036d92917dd1b69af720bd8993f2ee32e9bb4d68142fc7a9b152e01694d25da9dc989388e4b90c67d1c",
  "genesis": [
    {
      "address": "0x617b3a3528F9cDd6630fd3301B9c8911F7Bf063D",
      "nonce": "0",
      "balance": "100000000000000000000",
      "pvtKey": "0x28b2b0318721be8c8339199172cd7cc8f5e273800a35616ec893083a4b32c02e",
      "isSmartContract": false
    },
    {
      "address": "0x4d5Cf5032B2a844602278b01199ED191A86c93ff",
      "nonce": "0",
      "balance": "200000000000000000000",
      "pvtKey": "0x4d27a600dce8c29b7bd080e29a26972377dbb04d7a27d919adbb602bf13cfd23",
      "isSmartContract": false
    },
    {
      "address": "0x1275fbb540c8efc58b812ba83b0d0b8b9917ae98",
      "nonce": "1",
      "balance": "0",
      "storage": {
        "0x0000000000000000000000000000000000000000000000000000000000000007": "0x617b3a3528f9cdd6630fd3301b9c8911f7bf063d",
        "0x0000000000000000000000000000000000000000000000000000000000000000": "0x4d794e465400000000000000000000000000000000000000000000000000000a",
        "0x0000000000000000000000000000000000000000000000000000000000000001": "0x4e46540000000000000000000000000000000000000000000000000000000006"
      },
      "isSmartContract": true,
      "bytecode": "0x608060405234801561001057600080fd5b506004361061010b5760003560e01c8063715018a6116100a2578063b88d4fde11610071578063b88d4fde146102a4578063c87b56dd146102c0578063e985e9c5146102f0578063eacabe1414610320578063f2fde38b146103505761010b565b8063715018a6146102425780638da5cb5b1461024c57806395d89b411461026a578063a22cb465146102885761010b565b806323b872dd116100de57806323b872dd146101aa57806342842e0e146101c65780636352211e146101e257806370a08231146102125761010b565b806301ffc9a71461011057806306fdde0314610140578063081812fc1461015e578063095ea7b31461018e575b600080fd5b61012a60048036038101906101259190612091565b61036c565b604051610137919061245d565b60405180910390f35b61014861044e565b6040516101559190612478565b60405180910390f35b610178600480360381019061017391906120eb565b6104e0565b60405161018591906123f6565b60405180910390f35b6101a860048036038101906101a39190612051565b610526565b005b6101c460048036038101906101bf9190611edf565b61063e565b005b6101e060048036038101906101db9190611edf565b61069e565b005b6101fc60048036038101906101f791906120eb565b6106be565b60405161020991906123f6565b60405180910390f35b61022c60048036038101906102279190611e72565b610745565b604051610239919061265a565b60405180910390f35b61024a6107fd565b005b610254610811565b60405161026191906123f6565b60405180910390f35b61027261083b565b60405161027f9190612478565b60405180910390f35b6102a2600480360381019061029d9190611fb5565b6108cd565b005b6102be60048036038101906102b99190611f32565b6108e3565b005b6102da60048036038101906102d591906120eb565b610945565b6040516102e79190612478565b60405180910390f35b61030a60048036038101906103059190611e9f565b610a58565b604051610317919061245d565b60405180910390f35b61033a60048036038101906103359190611ff5565b610aec565b604051610347919061265a565b60405180910390f35b61036a60048036038101906103659190611e72565b610b2c565b005b60007f80ac58cd000000000000000000000000000000000000000000000000000000007bffffffffffffffffffffffffffffffffffffffffffffffffffffffff1916827bffffffffffffffffffffffffffffffffffffffffffffffffffffffff1916148061043757507f5b5e139f000000000000000000000000000000000000000000000000000000007bffffffffffffffffffffffffffffffffffffffffffffffffffffffff1916827bffffffffffffffffffffffffffffffffffffffffffffffffffffffff1916145b80610447575061044682610bb0565b5b9050919050565b60606000805461045d9061287f565b80601f01602080910402602001604051908101604052809291908181526020018280546104899061287f565b80156104d65780601f106104ab576101008083540402835291602001916104d6565b820191906000526020600020905b8154815290600101906020018083116104b957829003601f168201915b5050505050905090565b60006104eb82610c1a565b6004600083815260200190815260200160002060009054906101000a900473ffffffffffffffffffffffffffffffffffffffff169050919050565b6000610531826106be565b90508073ffffffffffffffffffffffffffffffffffffffff168373ffffffffffffffffffffffffffffffffffffffff1614156105a2576040517f08c379a00000000000000000000000000000000000000000000000000000000081526004016105999061261a565b60405180910390fd5b8073ffffffffffffffffffffffffffffffffffffffff166105c1610c65565b73ffffffffffffffffffffffffffffffffffffffff1614806105f057506105ef816105ea610c65565b610a58565b5b61062f576040517f08c379a00000000000000000000000000000000000000000000000000000000081526004016106269061263a565b60405180910390fd5b6106398383610c6d565b505050565b61064f610649610c65565b82610d26565b61068e576040517f08c379a00000000000000000000000000000000000000000000000000000000081526004016106859061249a565b60405180910390fd5b610699838383610dbb565b505050565b6106b9838383604051806020016040528060008152506108e3565b505050565b6000806106ca836110b5565b9050600073ffffffffffffffffffffffffffffffffffffffff168173ffffffffffffffffffffffffffffffffffffffff16141561073c576040517f08c379a0000000000000000000000000000000000000000000000000000000008152600401610733906125fa565b60405180910390fd5b80915050919050565b60008073ffffffffffffffffffffffffffffffffffffffff168273ffffffffffffffffffffffffffffffffffffffff1614156107b6576040517f08c379a00000000000000000000000000000000000000000000000000000000081526004016107ad9061257a565b60405180910390fd5b600360008373ffffffffffffffffffffffffffffffffffffffff1673ffffffffffffffffffffffffffffffffffffffff168152602001908152602001600020549050919050565b6108056110f2565b61080f6000611170565b565b6000600760009054906101000a900473ffffffffffffffffffffffffffffffffffffffff16905090565b60606001805461084a9061287f565b80601f01602080910402602001604051908101604052809291908181526020018280546108769061287f565b80156108c35780601f10610898576101008083540402835291602001916108c3565b820191906000526020600020905b8154815290600101906020018083116108a657829003601f168201915b5050505050905090565b6108df6108d8610c65565b8383611236565b5050565b6108f46108ee610c65565b83610d26565b610933576040517f08c379a000000000000000000000000000000000000000000000000000000000815260040161092a9061249a565b60405180910390fd5b61093f848484846113a3565b50505050565b606061095082610c1a565b60006006600084815260200190815260200160002080546109709061287f565b80601f016020809104026020016040519081016040528092919081815260200182805461099c9061287f565b80156109e95780601f106109be576101008083540402835291602001916109e9565b820191906000526020600020905b8154815290600101906020018083116109cc57829003601f168201915b5050505050905060006109fa6113ff565b9050600081511415610a10578192505050610a53565b600082511115610a45578082604051602001610a2d9291906123d2565b60405160208183030381529060405292505050610a53565b610a4e84611416565b925050505b919050565b6000600560008473ffffffffffffffffffffffffffffffffffffffff1673ffffffffffffffffffffffffffffffffffffffff16815260200190815260200160002060008373ffffffffffffffffffffffffffffffffffffffff1673ffffffffffffffffffffffffffffffffffffffff16815260200190815260200160002060009054906101000a900460ff16905092915050565b6000610af66110f2565b610b00600861147e565b6000610b0c6008611494565b9050610b1884826114a2565b610b2281846116c0565b8091505092915050565b610b346110f2565b600073ffffffffffffffffffffffffffffffffffffffff168173ffffffffffffffffffffffffffffffffffffffff161415610ba4576040517f08c379a0000000000000000000000000000000000000000000000000000000008152600401610b9b906124da565b60405180910390fd5b610bad81611170565b50565b60007f01ffc9a7000000000000000000000000000000000000000000000000000000007bffffffffffffffffffffffffffffffffffffffffffffffffffffffff1916827bffffffffffffffffffffffffffffffffffffffffffffffffffffffff1916149050919050565b610c2381611734565b610c62576040517f08c379a0000000000000000000000000000000000000000000000000000000008152600401610c59906125fa565b60405180910390fd5b50565b600033905090565b816004600083815260200190815260200160002060006101000a81548173ffffffffffffffffffffffffffffffffffffffff021916908373ffffffffffffffffffffffffffffffffffffffff160217905550808273ffffffffffffffffffffffffffffffffffffffff16610ce0836106be565b73ffffffffffffffffffffffffffffffffffffffff167f8c5be1e5ebec7d5bd14f71427d1e84f3dd0314c0f7b2291e5b200ac8c7c3b92560405160405180910390a45050565b600080610d32836106be565b90508073ffffffffffffffffffffffffffffffffffffffff168473ffffffffffffffffffffffffffffffffffffffff161480610d745750610d738185610a58565b5b80610db257508373ffffffffffffffffffffffffffffffffffffffff16610d9a846104e0565b73ffffffffffffffffffffffffffffffffffffffff16145b91505092915050565b8273ffffffffffffffffffffffffffffffffffffffff16610ddb826106be565b73ffffffffffffffffffffffffffffffffffffffff1614610e31576040517f08c379a0000000000000000000000000000000000000000000000000000000008152600401610e28906124fa565b60405180910390fd5b600073ffffffffffffffffffffffffffffffffffffffff168273ffffffffffffffffffffffffffffffffffffffff161415610ea1576040517f08c379a0000000000000000000000000000000000000000000000000000000008152600401610e989061253a565b60405180910390fd5b610eae8383836001611775565b8273ffffffffffffffffffffffffffffffffffffffff16610ece826106be565b73ffffffffffffffffffffffffffffffffffffffff1614610f24576040517f08c379a0000000000000000000000000000000000000000000000000000000008152600401610f1b906124fa565b60405180910390fd5b6004600082815260200190815260200160002060006101000a81549073ffffffffffffffffffffffffffffffffffffffff02191690556001600360008573ffffffffffffffffffffffffffffffffffffffff1673ffffffffffffffffffffffffffffffffffffffff168152602001908152602001600020600082825403925050819055506001600360008473ffffffffffffffffffffffffffffffffffffffff1673ffffffffffffffffffffffffffffffffffffffff16815260200190815260200160002060008282540192505081905550816002600083815260200190815260200160002060006101000a81548173ffffffffffffffffffffffffffffffffffffffff021916908373ffffffffffffffffffffffffffffffffffffffff160217905550808273ffffffffffffffffffffffffffffffffffffffff168473ffffffffffffffffffffffffffffffffffffffff167fddf252ad1be2c89b69c2b068fc378daa952ba7f163c4a11628f55a4df523b3ef60405160405180910390a46110b0838383600161189b565b505050565b60006002600083815260200190815260200160002060009054906101000a900473ffffffffffffffffffffffffffffffffffffffff169050919050565b6110fa610c65565b73ffffffffffffffffffffffffffffffffffffffff16611118610811565b73ffffffffffffffffffffffffffffffffffffffff161461116e576040517f08c379a0000000000000000000000000000000000000000000000000000000008152600401611165906125da565b60405180910390fd5b565b6000600760009054906101000a900473ffffffffffffffffffffffffffffffffffffffff16905081600760006101000a81548173ffffffffffffffffffffffffffffffffffffffff021916908373ffffffffffffffffffffffffffffffffffffffff1602179055508173ffffffffffffffffffffffffffffffffffffffff168173ffffffffffffffffffffffffffffffffffffffff167f8be0079c531659141344cd1fd0a4f28419497f9722a3daafe3b4186f6b6457e060405160405180910390a35050565b8173ffffffffffffffffffffffffffffffffffffffff168373ffffffffffffffffffffffffffffffffffffffff1614156112a5576040517f08c379a000000000000000000000000000000000000000000000000000000000815260040161129c9061255a565b60405180910390fd5b80600560008573ffffffffffffffffffffffffffffffffffffffff1673ffffffffffffffffffffffffffffffffffffffff16815260200190815260200160002060008473ffffffffffffffffffffffffffffffffffffffff1673ffffffffffffffffffffffffffffffffffffffff16815260200190815260200160002060006101000a81548160ff0219169083151502179055508173ffffffffffffffffffffffffffffffffffffffff168373ffffffffffffffffffffffffffffffffffffffff167f17307eab39ab6107e8899845ad3d59bd9653f200f220920489ca2b5937696c3183604051611396919061245d565b60405180910390a3505050565b6113ae848484610dbb565b6113ba848484846118a1565b6113f9576040517f08c379a00000000000000000000000000000000000000000000000000000000081526004016113f0906124ba565b60405180910390fd5b50505050565b606060405180602001604052806000815250905090565b606061142182610c1a565b600061142b6113ff565b9050600081511161144b5760405180602001604052806000815250611476565b8061145584611a38565b6040516020016114669291906123d2565b6040516020818303038152906040525b915050919050565b6001816000016000828254019250508190555050565b600081600001549050919050565b600073ffffffffffffffffffffffffffffffffffffffff168273ffffffffffffffffffffffffffffffffffffffff161415611512576040517f08c379a0000000000000000000000000000000000000000000000000000000008152600401611509906125ba565b60405180910390fd5b61151b81611734565b1561155b576040517f08c379a00000000000000000000000000000000000000000000000000000000081526004016115529061251a565b60405180910390fd5b611569600083836001611775565b61157281611734565b156115b2576040517f08c379a00000000000000000000000000000000000000000000000000000000081526004016115a99061251a565b60405180910390fd5b6001600360008473ffffffffffffffffffffffffffffffffffffffff1673ffffffffffffffffffffffffffffffffffffffff16815260200190815260200160002060008282540192505081905550816002600083815260200190815260200160002060006101000a81548173ffffffffffffffffffffffffffffffffffffffff021916908373ffffffffffffffffffffffffffffffffffffffff160217905550808273ffffffffffffffffffffffffffffffffffffffff16600073ffffffffffffffffffffffffffffffffffffffff167fddf252ad1be2c89b69c2b068fc378daa952ba7f163c4a11628f55a4df523b3ef60405160405180910390a46116bc60008383600161189b565b5050565b6116c982611734565b611708576040517f08c379a00000000000000000000000000000000000000000000000000000000081526004016116ff9061259a565b60405180910390fd5b8060066000848152602001908152602001600020908051906020019061172f929190611c86565b505050565b60008073ffffffffffffffffffffffffffffffffffffffff16611756836110b5565b73ffffffffffffffffffffffffffffffffffffffff1614159050919050565b600181111561189557600073ffffffffffffffffffffffffffffffffffffffff168473ffffffffffffffffffffffffffffffffffffffff16146118095780600360008673ffffffffffffffffffffffffffffffffffffffff1673ffffffffffffffffffffffffffffffffffffffff16815260200190815260200160002060008282546118019190612795565b925050819055505b600073ffffffffffffffffffffffffffffffffffffffff168373ffffffffffffffffffffffffffffffffffffffff16146118945780600360008573ffffffffffffffffffffffffffffffffffffffff1673ffffffffffffffffffffffffffffffffffffffff168152602001908152602001600020600082825461188c919061273f565b925050819055505b5b50505050565b50505050565b60006118c28473ffffffffffffffffffffffffffffffffffffffff16611b10565b15611a2b578373ffffffffffffffffffffffffffffffffffffffff1663150b7a026118eb610c65565b8786866040518563ffffffff1660e01b815260040161190d9493929190612411565b602060405180830381600087803b15801561192757600080fd5b505af192505050801561195857506040513d601f19601f8201168201806040525081019061195591906120be565b60015b6119db573d8060008114611988576040519150601f19603f3d011682016040523d82523d6000602084013e61198d565b606091505b506000815114156119d3576040517f08c379a00000000000000000000000000000000000000000000000000000000081526004016119ca906124ba565b60405180910390fd5b805181602001fd5b63150b7a0260e01b7bffffffffffffffffffffffffffffffffffffffffffffffffffffffff1916817bffffffffffffffffffffffffffffffffffffffffffffffffffffffff191614915050611a30565b600190505b949350505050565b606060006001611a4784611b33565b01905060008167ffffffffffffffff811115611a6657611a6561296f565b5b6040519080825280601f01601f191660200182016040528015611a985781602001600182028036833780820191505090505b509050600082602001820190505b600115611b05578080600190039150507f3031323334353637383961626364656600000000000000000000000000000000600a86061a8153600a8581611aef57611aee612911565b5b0494506000851415611b0057611b05565b611aa6565b819350505050919050565b6000808273ffffffffffffffffffffffffffffffffffffffff163b119050919050565b600080600090507a184f03e93ff9f4daa797ed6e38ed64bf6a1f0100000000000000008310611b91577a184f03e93ff9f4daa797ed6e38ed64bf6a1f0100000000000000008381611b8757611b86612911565b5b0492506040810190505b6d04ee2d6d415b85acef81000000008310611bce576d04ee2d6d415b85acef81000000008381611bc457611bc3612911565b5b0492506020810190505b662386f26fc100008310611bfd57662386f26fc100008381611bf357611bf2612911565b5b0492506010810190505b6305f5e1008310611c26576305f5e1008381611c1c57611c1b612911565b5b0492506008810190505b6127108310611c4b576127108381611c4157611c40612911565b5b0492506004810190505b60648310611c6e5760648381611c6457611c63612911565b5b0492506002810190505b600a8310611c7d576001810190505b80915050919050565b828054611c929061287f565b90600052602060002090601f016020900481019282611cb45760008555611cfb565b82601f10611ccd57805160ff1916838001178555611cfb565b82800160010185558215611cfb579182015b82811115611cfa578251825591602001919060010190611cdf565b5b509050611d089190611d0c565b5090565b5b80821115611d25576000816000905550600101611d0d565b5090565b6000611d3c611d378461269a565b612675565b905082815260208101848484011115611d5857611d576129a3565b5b611d6384828561283d565b509392505050565b6000611d7e611d79846126cb565b612675565b905082815260208101848484011115611d9a57611d996129a3565b5b611da584828561283d565b509392505050565b600081359050611dbc81612d57565b92915050565b600081359050611dd181612d6e565b92915050565b600081359050611de681612d85565b92915050565b600081519050611dfb81612d85565b92915050565b600082601f830112611e1657611e1561299e565b5b8135611e26848260208601611d29565b91505092915050565b600082601f830112611e4457611e4361299e565b5b8135611e54848260208601611d6b565b91505092915050565b600081359050611e6c81612d9c565b92915050565b600060208284031215611e8857611e876129ad565b5b6000611e9684828501611dad565b91505092915050565b60008060408385031215611eb657611eb56129ad565b5b6000611ec485828601611dad565b9250506020611ed585828601611dad565b9150509250929050565b600080600060608486031215611ef857611ef76129ad565b5b6000611f0686828701611dad565b9350506020611f1786828701611dad565b9250506040611f2886828701611e5d565b9150509250925092565b60008060008060808587031215611f4c57611f4b6129ad565b5b6000611f5a87828801611dad565b9450506020611f6b87828801611dad565b9350506040611f7c87828801611e5d565b925050606085013567ffffffffffffffff811115611f9d57611f9c6129a8565b5b611fa987828801611e01565b91505092959194509250565b60008060408385031215611fcc57611fcb6129ad565b5b6000611fda85828601611dad565b9250506020611feb85828601611dc2565b9150509250929050565b6000806040838503121561200c5761200b6129ad565b5b600061201a85828601611dad565b925050602083013567ffffffffffffffff81111561203b5761203a6129a8565b5b61204785828601611e2f565b9150509250929050565b60008060408385031215612068576120676129ad565b5b600061207685828601611dad565b925050602061208785828601611e5d565b9150509250929050565b6000602082840312156120a7576120a66129ad565b5b60006120b584828501611dd7565b91505092915050565b6000602082840312156120d4576120d36129ad565b5b60006120e284828501611dec565b91505092915050565b600060208284031215612101576121006129ad565b5b600061210f84828501611e5d565b91505092915050565b612121816127c9565b82525050565b612130816127db565b82525050565b6000612141826126fc565b61214b8185612712565b935061215b81856020860161284c565b612164816129b2565b840191505092915050565b600061217a82612707565b6121848185612723565b935061219481856020860161284c565b61219d816129b2565b840191505092915050565b60006121b382612707565b6121bd8185612734565b93506121cd81856020860161284c565b80840191505092915050565b60006121e6602d83612723565b91506121f1826129c3565b604082019050919050565b6000612209603283612723565b915061221482612a12565b604082019050919050565b600061222c602683612723565b915061223782612a61565b604082019050919050565b600061224f602583612723565b915061225a82612ab0565b604082019050919050565b6000612272601c83612723565b915061227d82612aff565b602082019050919050565b6000612295602483612723565b91506122a082612b28565b604082019050919050565b60006122b8601983612723565b91506122c382612b77565b602082019050919050565b60006122db602983612723565b91506122e682612ba0565b604082019050919050565b60006122fe602e83612723565b915061230982612bef565b604082019050919050565b6000612321602083612723565b915061232c82612c3e565b602082019050919050565b6000612344602083612723565b915061234f82612c67565b602082019050919050565b6000612367601883612723565b915061237282612c90565b602082019050919050565b600061238a602183612723565b915061239582612cb9565b604082019050919050565b60006123ad603d83612723565b91506123b882612d08565b604082019050919050565b6123cc81612833565b82525050565b60006123de82856121a8565b91506123ea82846121a8565b91508190509392505050565b600060208201905061240b6000830184612118565b92915050565b60006080820190506124266000830187612118565b6124336020830186612118565b61244060408301856123c3565b81810360608301526124528184612136565b905095945050505050565b60006020820190506124726000830184612127565b92915050565b60006020820190508181036000830152612492818461216f565b905092915050565b600060208201905081810360008301526124b3816121d9565b9050919050565b600060208201905081810360008301526124d3816121fc565b9050919050565b600060208201905081810360008301526124f38161221f565b9050919050565b6000602082019050818103600083015261251381612242565b9050919050565b6000602082019050818103600083015261253381612265565b9050919050565b6000602082019050818103600083015261255381612288565b9050919050565b60006020820190508181036000830152612573816122ab565b9050919050565b60006020820190508181036000830152612593816122ce565b9050919050565b600060208201905081810360008301526125b3816122f1565b9050919050565b600060208201905081810360008301526125d381612314565b9050919050565b600060208201905081810360008301526125f381612337565b9050919050565b600060208201905081810360008301526126138161235a565b9050919050565b600060208201905081810360008301526126338161237d565b9050919050565b60006020820190508181036000830152612653816123a0565b9050919050565b600060208201905061266f60008301846123c3565b92915050565b600061267f612690565b905061268b82826128b1565b919050565b6000604051905090565b600067ffffffffffffffff8211156126b5576126b461296f565b5b6126be826129b2565b9050602081019050919050565b600067ffffffffffffffff8211156126e6576126e561296f565b5b6126ef826129b2565b9050602081019050919050565b600081519050919050565b600081519050919050565b600082825260208201905092915050565b600082825260208201905092915050565b600081905092915050565b600061274a82612833565b915061275583612833565b9250827fffffffffffffffffffffffffffffffffffffffffffffffffffffffffffffffff0382111561278a576127896128e2565b5b828201905092915050565b60006127a082612833565b91506127ab83612833565b9250828210156127be576127bd6128e2565b5b828203905092915050565b60006127d482612813565b9050919050565b60008115159050919050565b60007fffffffff0000000000000000000000000000000000000000000000000000000082169050919050565b600073ffffffffffffffffffffffffffffffffffffffff82169050919050565b6000819050919050565b82818337600083830152505050565b60005b8381101561286a57808201518184015260208101905061284f565b83811115612879576000848401525b50505050565b6000600282049050600182168061289757607f821691505b602082108114156128ab576128aa612940565b5b50919050565b6128ba826129b2565b810181811067ffffffffffffffff821117156128d9576128d861296f565b5b80604052505050565b7f4e487b7100000000000000000000000000000000000000000000000000000000600052601160045260246000fd5b7f4e487b7100000000000000000000000000000000000000000000000000000000600052601260045260246000fd5b7f4e487b7100000000000000000000000000000000000000000000000000000000600052602260045260246000fd5b7f4e487b7100000000000000000000000000000000000000000000000000000000600052604160045260246000fd5b600080fd5b600080fd5b600080fd5b600080fd5b6000601f19601f8301169050919050565b7f4552433732313a2063616c6c6572206973206e6f7420746f6b656e206f776e6560008201527f72206f7220617070726f76656400000000000000000000000000000000000000602082015250565b7f4552433732313a207472616e7366657220746f206e6f6e20455243373231526560008201527f63656976657220696d706c656d656e7465720000000000000000000000000000602082015250565b7f4f776e61626c653a206e6577206f776e657220697320746865207a65726f206160008201527f6464726573730000000000000000000000000000000000000000000000000000602082015250565b7f4552433732313a207472616e736665722066726f6d20696e636f72726563742060008201527f6f776e6572000000000000000000000000000000000000000000000000000000602082015250565b7f4552433732313a20746f6b656e20616c7265616479206d696e74656400000000600082015250565b7f4552433732313a207472616e7366657220746f20746865207a65726f2061646460008201527f7265737300000000000000000000000000000000000000000000000000000000602082015250565b7f4552433732313a20617070726f766520746f2063616c6c657200000000000000600082015250565b7f4552433732313a2061646472657373207a65726f206973206e6f74206120766160008201527f6c6964206f776e65720000000000000000000000000000000000000000000000602082015250565b7f45524337323155524953746f726167653a2055524920736574206f66206e6f6e60008201527f6578697374656e7420746f6b656e000000000000000000000000000000000000602082015250565b7f4552433732313a206d696e7420746f20746865207a65726f2061646472657373600082015250565b7f4f776e61626c653a2063616c6c6572206973206e6f7420746865206f776e6572600082015250565b7f4552433732313a20696e76616c696420746f6b656e2049440000000000000000600082015250565b7f4552433732313a20617070726f76616c20746f2063757272656e74206f776e6560008201527f7200000000000000000000000000000000000000000000000000000000000000602082015250565b7f4552433732313a20617070726f76652063616c6c6572206973206e6f7420746f60008201527f6b656e206f776e6572206f7220617070726f76656420666f7220616c6c000000602082015250565b612d60816127c9565b8114612d6b57600080fd5b50565b612d77816127db565b8114612d8257600080fd5b50565b612d8e816127e7565b8114612d9957600080fd5b50565b612da581612833565b8114612db057600080fd5b5056fea2646970667358221220c5e6fc8c1b8c9c5fbdaf46bff1b96aa59b4e8f6bf257095ac2d89398740fd1ee64736f6c63430008070033",
      "abi": [
        {
          "inputs": [],
          "stateMutability": "nonpayable",
          "type": "constructor"
        },
        {
          "anonymous": false,
          "inputs": [
            {
              "indexed": true,
              "internalType": "address",
              "name": "owner",
              "type": "address"
            },
            {
              "indexed": true,
              "internalType": "address",
              "name": "approved",
              "type": "address"
            },
            {
              "indexed": true,
              "internalType": "uint256",
              "name": "tokenId",
              "type": "uint256"
            }
          ],
          "name": "Approval",
          "type": "event"
        },
        {
          "anonymous": false,
          "inputs": [
            {
              "indexed": true,
              "internalType": "address",
              "name": "owner",
              "type": "address"
            },
            {
              "indexed": true,
              "internalType": "address",
              "name": "operator",
              "type": "address"
            },
            {
              "indexed": false,
              "internalType": "bool",
              "name": "approved",
              "type": "bool"
            }
          ],
          "name": "ApprovalForAll",
          "type": "event"
        },
        {
          "anonymous": false,
          "inputs": [
            {
              "indexed": true,
              "internalType": "address",
              "name": "previousOwner",
              "type": "address"
            },
            {
              "indexed": true,
              "internalType": "address",
              "name": "newOwner",
              "type": "address"
            }
          ],
          "name": "OwnershipTransferred",
          "type": "event"
        },
        {
          "anonymous": false,
          "inputs": [
            {
              "indexed": true,
              "internalType": "address",
              "name": "from",
              "type": "address"
            },
            {
              "indexed": true,
              "internalType": "address",
              "name": "to",
              "type": "address"
            },
            {
              "indexed": true,
              "internalType": "uint256",
              "name": "tokenId",
              "type": "uint256"
            }
          ],
          "name": "Transfer",
          "type": "event"
        },
        {
          "inputs": [
            {
              "internalType": "address",
              "name": "to",
              "type": "address"
            },
            {
              "internalType": "uint256",
              "name": "tokenId",
              "type": "uint256"
            }
          ],
          "name": "approve",
          "outputs": [],
          "stateMutability": "nonpayable",
          "type": "function"
        },
        {
          "inputs": [
            {
              "internalType": "address",
              "name": "owner",
              "type": "address"
            }
          ],
          "name": "balanceOf",
          "outputs": [
            {
              "internalType": "uint256",
              "name": "",
              "type": "uint256"
            }
          ],
          "stateMutability": "view",
          "type": "function"
        },
        {
          "inputs": [
            {
              "internalType": "uint256",
              "name": "tokenId",
              "type": "uint256"
            }
          ],
          "name": "getApproved",
          "outputs": [
            {
              "internalType": "address",
              "name": "",
              "type": "address"
            }
          ],
          "stateMutability": "view",
          "type": "function"
        },
        {
          "inputs": [
            {
              "internalType": "address",
              "name": "owner",
              "type": "address"
            },
            {
              "internalType": "address",
              "name": "operator",
              "type": "address"
            }
          ],
          "name": "isApprovedForAll",
          "outputs": [
            {
              "internalType": "bool",
              "name": "",
              "type": "bool"
            }
          ],
          "stateMutability": "view",
          "type": "function"
        },
        {
          "inputs": [
            {
              "internalType": "address",
              "name": "recipient",
              "type": "address"
            },
            {
              "internalType": "string",
              "name": "tokenURI",
              "type": "string"
            }
          ],
          "name": "mintNFT",
          "outputs": [
            {
              "internalType": "uint256",
              "name": "",
              "type": "uint256"
            }
          ],
          "stateMutability": "nonpayable",
          "type": "function"
        },
        {
          "inputs": [],
          "name": "name",
          "outputs": [
            {
              "internalType": "string",
              "name": "",
              "type": "string"
            }
          ],
          "stateMutability": "view",
          "type": "function"
        },
        {
          "inputs": [],
          "name": "owner",
          "outputs": [
            {
              "internalType": "address",
              "name": "",
              "type": "address"
            }
          ],
          "stateMutability": "view",
          "type": "function"
        },
        {
          "inputs": [
            {
              "internalType": "uint256",
              "name": "tokenId",
              "type": "uint256"
            }
          ],
          "name": "ownerOf",
          "outputs": [
            {
              "internalType": "address",
              "name": "",
              "type": "address"
            }
          ],
          "stateMutability": "view",
          "type": "function"
        },
        {
          "inputs": [],
          "name": "renounceOwnership",
          "outputs": [],
          "stateMutability": "nonpayable",
          "type": "function"
        },
        {
          "inputs": [
            {
              "internalType": "address",
              "name": "from",
              "type": "address"
            },
            {
              "internalType": "address",
              "name": "to",
              "type": "address"
            },
            {
              "internalType": "uint256",
              "name": "tokenId",
              "type": "uint256"
            }
          ],
          "name": "safeTransferFrom",
          "outputs": [],
          "stateMutability": "nonpayable",
          "type": "function"
        },
        {
          "inputs": [
            {
              "internalType": "address",
              "name": "from",
              "type": "address"
            },
            {
              "internalType": "address",
              "name": "to",
              "type": "address"
            },
            {
              "internalType": "uint256",
              "name": "tokenId",
              "type": "uint256"
            },
            {
              "internalType": "bytes",
              "name": "data",
              "type": "bytes"
            }
          ],
          "name": "safeTransferFrom",
          "outputs": [],
          "stateMutability": "nonpayable",
          "type": "function"
        },
        {
          "inputs": [
            {
              "internalType": "address",
              "name": "operator",
              "type": "address"
            },
            {
              "internalType": "bool",
              "name": "approved",
              "type": "bool"
            }
          ],
          "name": "setApprovalForAll",
          "outputs": [],
          "stateMutability": "nonpayable",
          "type": "function"
        },
        {
          "inputs": [
            {
              "internalType": "bytes4",
              "name": "interfaceId",
              "type": "bytes4"
            }
          ],
          "name": "supportsInterface",
          "outputs": [
            {
              "internalType": "bool",
              "name": "",
              "type": "bool"
            }
          ],
          "stateMutability": "view",
          "type": "function"
        },
        {
          "inputs": [],
          "name": "symbol",
          "outputs": [
            {
              "internalType": "string",
              "name": "",
              "type": "string"
            }
          ],
          "stateMutability": "view",
          "type": "function"
        },
        {
          "inputs": [
            {
              "internalType": "uint256",
              "name": "tokenId",
              "type": "uint256"
            }
          ],
          "name": "tokenURI",
          "outputs": [
            {
              "internalType": "string",
              "name": "",
              "type": "string"
            }
          ],
          "stateMutability": "view",
          "type": "function"
        },
        {
          "inputs": [
            {
              "internalType": "address",
              "name": "from",
              "type": "address"
            },
            {
              "internalType": "address",
              "name": "to",
              "type": "address"
            },
            {
              "internalType": "uint256",
              "name": "tokenId",
              "type": "uint256"
            }
          ],
          "name": "transferFrom",
          "outputs": [],
          "stateMutability": "nonpayable",
          "type": "function"
        },
        {
          "inputs": [
            {
              "internalType": "address",
              "name": "newOwner",
              "type": "address"
            }
          ],
          "name": "transferOwnership",
          "outputs": [],
          "stateMutability": "nonpayable",
          "type": "function"
        }
      ]
    }
  ],
  "expectedNewLeafs": [
    {
      "address": "0x617b3a3528F9cDd6630fd3301B9c8911F7Bf063D",
      "nonce": "1",
      "balance": "100000000000000000000",
      "storage": null,
      "isSmartContract": false,
      "hashBytecode": "0x0000000000000000000000000000000000000000000000000000000000000000",
      "bytecodeLength": 0
    },
    {
      "address": "0x4d5Cf5032B2a844602278b01199ED191A86c93ff",
      "nonce": "0",
      "balance": "200000000000000000000",
      "storage": null,
      "isSmartContract": false,
      "hashBytecode": "0x0000000000000000000000000000000000000000000000000000000000000000",
      "bytecodeLength": 0
    },
    {
      "address": "0x1275fbb540c8efc58b812ba83b0d0b8b9917ae98",
      "nonce": "1",
      "balance": "0",
      "storage": {
        "0x3e5fec24aa4dc4e5aee2e025e51e1392c72a2500577559fae9665c6d52bd6a31": "0x7572690000000000000000000000000000000000000000000000000000000006",
        "0xd7c9590abf8c97a7db41f8f2fa12fae115b69950a8904317b51ca0576697a942": "0x01",
        "0xe90b7bceb6e7df5418fb78d8ee546e97c83a08bbccc01a0644d599ccd2a7c2e0": "0x617b3a3528f9cdd6630fd3301b9c8911f7bf063d",
        "0x0000000000000000000000000000000000000000000000000000000000000007": "0x617b3a3528f9cdd6630fd3301b9c8911f7bf063d",
        "0x0000000000000000000000000000000000000000000000000000000000000008": "0x01",
        "0x0000000000000000000000000000000000000000000000000000000000000000": "0x4d794e465400000000000000000000000000000000000000000000000000000a",
        "0x0000000000000000000000000000000000000000000000000000000000000001": "0x4e46540000000000000000000000000000000000000000000000000000000006"
      },
      "isSmartContract": true,
      "hashBytecode": "0xfede18370e578a62caed988abdea67fec5dcc5a75bbe2cd183bacbe5153e7c00",
      "bytecodeLength": 11753
    }
  ]
}