{
  "expectedOldStateRoot": "0x8048cecbd2ad46fe5f502fc41b4947e56ce0bf2d48afa196cc7a9509f4f4f0ab",
  "expectedNewStateRoot": "0x82b39f9548d6c038d934fe365499a64be02c11da9dbc52fa7c8670febe0a3bb8",
  "batchL2Data": "0xf847800a8401c9c38094cccccccccccccccccccccccccccccccccccccccc80a4c6c2ea1700000000000000000000000000000000000000000000000000000000000000108203e880801fe3a5a59867780e342a079ea1cb0911cda75fb9de5eb680155faf5086f4b42f62fd372becc08623713ff2cdabf7c1b2b4f3edee51bdbd9eb79ffc3c28e4abd91c",
  "genesis": [
    {
      "address": "0xa94f5374fce5edbc8e2a8697c15331677e6ebf0b",
      "nonce": "0",
      "balance": "838137708091124174",
      "storage": {},
      "isSmartContract": false,
      "bytecode": "0x"
    },
    {
      "address": "0xcccccccccccccccccccccccccccccccccccccccc",
      "nonce": "1",
      "balance": "838137708091124174",
      "storage": {},
      "isSmartContract": true,
      "bytecode": "0x608060405234801561001057600080fd5b506004361061004c5760003560e01c80632839e9281461005157806361047ff414610081578063c6c2ea17146100b1578063faa073f8146100e1575b600080fd5b61006b6004803603810190610066919061025d565b610111565b60405161007891906102ac565b60405180910390f35b61009b60048036038101906100969190610230565b61018a565b6040516100a891906102ac565b60405180910390f35b6100cb60048036038101906100c69190610230565b6101e3565b6040516100d891906102ac565b60405180910390f35b6100fb60048036038101906100f6919061025d565b6101fe565b60405161010891906102ac565b60405180910390f35b60008083141561012f5760018261012891906102c7565b9050610184565b60008214156101565761014f600184610148919061031d565b6001610111565b9050610184565b610181600184610166919061031d565b61017c85600186610177919061031d565b610111565b610111565b90505b92915050565b60008082148061019a5750600182145b156101a7578190506101de565b6101bc6002836101b7919061031d565b61018a565b6101d16001846101cc919061031d565b61018a565b6101db91906102c7565b90505b919050565b60006101ee8261018a565b6000819055506160a79050919050565b600061020a8383610111565b600081905550600054905092915050565b60008135905061022a8161038f565b92915050565b6000602082840312156102465761024561038a565b5b60006102548482850161021b565b91505092915050565b600080604083850312156102745761027361038a565b5b60006102828582860161021b565b92505060206102938582860161021b565b9150509250929050565b6102a681610351565b82525050565b60006020820190506102c1600083018461029d565b92915050565b60006102d282610351565b91506102dd83610351565b9250827fffffffffffffffffffffffffffffffffffffffffffffffffffffffffffffffff038211156103125761031161035b565b5b828201905092915050565b600061032882610351565b915061033383610351565b9250828210156103465761034561035b565b5b828203905092915050565b6000819050919050565b7f4e487b7100000000000000000000000000000000000000000000000000000000600052601160045260246000fd5b600080fd5b61039881610351565b81146103a357600080fd5b5056fea26469706673582212206d24ddf9f98c9b4ed54d93b8160e88e630b37183c42794abd8a4e89434915f2364736f6c63430008050033"
    }
  ],
  "expectedNewLeafs": [
    {
      "address": "0x2adc25665018aa1fe0e6bc666dac8fc2697ff9ba",
      "nonce": "0",
      "balance": "2000000000012758360",
      "storage": {},
      "isSmartContract": false,
      "bytecode": "0x"
    },
    {
      "address": "0xa94f5374fce5edbc8e2a8697c15331677e6ebf0b",
      "nonce": "1",
      "balance": "838137708078365814",
      "storage": {},
      "isSmartContract": false,
      "bytecode": "0x"
    },
    {
      "address": "0xcccccccccccccccccccccccccccccccccccccccc",
      "nonce": "1",
      "balance": "838137708091124174",
      "storage": {
        "0x00": "0x03db"
      },
      "isSmartContract": true,
      "bytecode": "0x608060405234801561001057600080fd5b506004361061004c5760003560e01c80632839e9281461005157806361047ff414610081578063c6c2ea17146100b1578063faa073f8146100e1575b600080fd5b61006b6004803603810190610066919061025d565b610111565b60405161007891906102ac565b60405180910390f35b61009b60048036038101906100969190610230565b61018a565b6040516100a891906102ac565b60405180910390f35b6100cb60048036038101906100c69190610230565b6101e3565b6040516100d891906102ac565b60405180910390f35b6100fb60048036038101906100f6919061025d565b6101fe565b60405161010891906102ac565b60405180910390f35b60008083141561012f5760018261012891906102c7565b9050610184565b60008214156101565761014f600184610148919061031d565b6001610111565b9050610184565b610181600184610166919061031d565b61017c85600186610177919061031d565b610111565b610111565b90505b92915050565b60008082148061019a5750600182145b156101a7578190506101de565b6101bc6002836101b7919061031d565b61018a565b6101d16001846101cc919061031d565b61018a565b6101db91906102c7565b90505b919050565b60006101ee8261018a565b6000819055506160a79050919050565b600061020a8383610111565b600081905550600054905092915050565b60008135905061022a8161038f565b92915050565b6000602082840312156102465761024561038a565b5b60006102548482850161021b565b91505092915050565b600080604083850312156102745761027361038a565b5b60006102828582860161021b565b92505060206102938582860161021b565b9150509250929050565b6102a681610351565b82525050565b60006020820190506102c1600083018461029d565b92915050565b60006102d282610351565b91506102dd83610351565b9250827fffffffffffffffffffffffffffffffffffffffffffffffffffffffffffffffff038211156103125761031161035b565b5b828201905092915050565b600061032882610351565b915061033383610351565b9250828210156103465761034561035b565b5b828203905092915050565b6000819050919050565b7f4e487b7100000000000000000000000000000000000000000000000000000000600052601160045260246000fd5b600080fd5b61039881610351565b81146103a357600080fd5b5056fea26469706673582212206d24ddf9f98c9b4ed54d93b8160e88e630b37183c42794abd8a4e89434915f2364736f6c63430008050033"
    }
  ]
}