[
  {
    "id": 0,
    "description": "2 accounts and 1 valid transaction (chainIdSequencer).",
    "arity": 4,
    "chainIdSequencer": 1001,
    "defaultChainId": 1000,
    "sequencerAddress": "0x617b3a3528F9cDd6630fd3301B9c8911F7Bf063D",
    "sequencerPvtKey": "0x28b2b0318721be8c8339199172cd7cc8f5e273800a35616ec893083a4b32c02e",
    "genesis": [
      {
        "address": "0x617b3a3528F9cDd6630fd3301B9c8911F7Bf063D",
        "nonce": "0",
        "balance": "100000000000000000000",
        "pvtKey": "0x28b2b0318721be8c8339199172cd7cc8f5e273800a35616ec893083a4b32c02e"
      },
      {
        "address": "0x4d5Cf5032B2a844602278b01199ED191A86c93ff",
        "nonce": "0",
        "balance": "200000000000000000000",
        "pvtKey": "0x4d27a600dce8c29b7bd080e29a26972377dbb04d7a27d919adbb602bf13cfd23"
      }
    ],
    "expectedOldRoot": "0x4a9bfcb163ec91c5beb22e6aca41592433092c8c7821b01d37fd0de483f9265d",
    "txs": [
      {
        "id": 0,
        "from": "0x617b3a3528F9cDd6630fd3301B9c8911F7Bf063D",
        "to": "0x4d5Cf5032B2a844602278b01199ED191A86c93ff",
        "nonce": 0,
        "value": "100000000000000000",
        "gasLimit": 100000,
        "gasPrice": "1000000000",
        "chainId": 1001,
        "rawTx": "0xf86d80843b9aca00830186a0944d5cf5032b2a844602278b01199ed191a86c93ff88016345785d8a0000808207f5a01186622d03b6b8da7cf111d1ccba5bb185c56deae6a322cebc6dda0556f3cb979f910c26408b64b51c5da36ba2f38ef55ba1cee719d5a6c01225968799907432",
        "customRawTx": "0xee80843b9aca00830186a0944d5cf5032b2a844602278b01199ed191a86c93ff88016345785d8a0000808203e980801186622d03b6b8da7cf111d1ccba5bb185c56deae6a322cebc6dda0556f3cb9700910c26408b64b51c5da36ba2f38ef55ba1cee719d5a6c012259687999074321b",
        "reason": ""
      }
    ],
    "expectedNewRoot": "0x2aa02f4e58dc165ceeaac1d4ea5333246d3e5114301b22ce1996d0888e35227e",
    "expectedNewLeafs": {
      "0x617b3a3528F9cDd6630fd3301B9c8911F7Bf063D": {
        "balance": "99900000000000000000",
        "nonce": "1"
      },
      "0x4d5Cf5032B2a844602278b01199ED191A86c93ff": {
        "balance": "200100000000000000000",
        "nonce": "0"
      }
    },
    "batchL2Data": "0xee80843b9aca00830186a0944d5cf5032b2a844602278b01199ed191a86c93ff88016345785d8a0000808203e980801186622d03b6b8da7cf111d1ccba5bb185c56deae6a322cebc6dda0556f3cb9700910c26408b64b51c5da36ba2f38ef55ba1cee719d5a6c012259687999074321b",
    "globalExitRoot": "0x090bcaf734c4f06c93954a827b45a6e8c67b8e0fd1e0a35a1c5982d6961828f9",
    "newLocalExitRoot": "0x0000000000000000000000000000000000000000000000000000000000000000",
    "inputHash": "0xb655a49d568db121b9e31f132a41d54b0c98166eca9da0b0adfec0a21e0adf9b",
    "batchHashData": "0x3d53e7e5be04b00f66af647512af6d17e4e767a5e41fa1293010b885c9fe06db",
    "oldLocalExitRoot": "0x0000000000000000000000000000000000000000000000000000000000000000",
    "timestamp": 1944498031
  },
  {
    "id": 1,
    "description": "2 accounts and 2 valid transaction. (1 chainIdSequencer, 1 defaultChainId)",
    "arity": 4,
    "chainIdSequencer": 1001,
    "defaultChainId": 1000,
    "sequencerAddress": "0x617b3a3528F9cDd6630fd3301B9c8911F7Bf063D",
    "sequencerPvtKey": "0x28b2b0318721be8c8339199172cd7cc8f5e273800a35616ec893083a4b32c02e",
    "genesis": [
      {
        "address": "0x617b3a3528F9cDd6630fd3301B9c8911F7Bf063D",
        "nonce": "0",
        "balance": "100000000000000000000",
        "pvtKey": "0x28b2b0318721be8c8339199172cd7cc8f5e273800a35616ec893083a4b32c02e"
      },
      {
        "address": "0x4d5Cf5032B2a844602278b01199ED191A86c93ff",
        "nonce": "0",
        "balance": "200000000000000000000",
        "pvtKey": "0x4d27a600dce8c29b7bd080e29a26972377dbb04d7a27d919adbb602bf13cfd23"
      }
    ],
    "expectedOldRoot": "0x4a9bfcb163ec91c5beb22e6aca41592433092c8c7821b01d37fd0de483f9265d",
    "txs": [
      {
        "id": 0,
        "from": "0x617b3a3528F9cDd6630fd3301B9c8911F7Bf063D",
        "to": "0x4d5Cf5032B2a844602278b01199ED191A86c93ff",
        "nonce": 0,
        "value": "100000000000000000",
        "gasLimit": 100000,
        "gasPrice": "1000000000",
        "chainId": 1001,
        "rawTx": "0xf86d80843b9aca00830186a0944d5cf5032b2a844602278b01199ed191a86c93ff88016345785d8a0000808207f5a01186622d03b6b8da7cf111d1ccba5bb185c56deae6a322cebc6dda0556f3cb979f910c26408b64b51c5da36ba2f38ef55ba1cee719d5a6c01225968799907432",
        "customRawTx": "0xee80843b9aca00830186a0944d5cf5032b2a844602278b01199ed191a86c93ff88016345785d8a0000808203e980801186622d03b6b8da7cf111d1ccba5bb185c56deae6a322cebc6dda0556f3cb9700910c26408b64b51c5da36ba2f38ef55ba1cee719d5a6c012259687999074321b",
        "reason": ""
      },
      {
        "id": 1,
        "from": "0x617b3a3528F9cDd6630fd3301B9c8911F7Bf063D",
        "to": "0x4d5Cf5032B2a844602278b01199ED191A86c93ff",
        "nonce": 1,
        "value": "100000000000000000",
        "gasLimit": 100000,
        "gasPrice": "1000000000",
        "chainId": 1000,
        "rawTx": "0xf86e01843b9aca00830186a0944d5cf5032b2a844602278b01199ed191a86c93ff88016345785d8a0000808207f4a03ee20a0764440b016c4a2ee4e7e4eb3a5a97f1e6a6c9f40bf5ecf50f95ff636da063878ddb3e997e519826c7bb26fb7c5950a208e1ec722a9f1c568c4e479b4034",
        "customRawTx": "0xee01843b9aca00830186a0944d5cf5032b2a844602278b01199ed191a86c93ff88016345785d8a0000808203e880803ee20a0764440b016c4a2ee4e7e4eb3a5a97f1e6a6c9f40bf5ecf50f95ff636d63878ddb3e997e519826c7bb26fb7c5950a208e1ec722a9f1c568c4e479b40341c",
        "reason": ""
      }
    ],
    "expectedNewRoot": "0xf6099a58b0e5d46636d8cbe01e9ec67711e1ada47b06bf088d5e5701ed734d86",
    "expectedNewLeafs": {
      "0x617b3a3528F9cDd6630fd3301B9c8911F7Bf063D": {
        "balance": "99800000000000000000",
        "nonce": "2"
      },
      "0x4d5Cf5032B2a844602278b01199ED191A86c93ff": {
        "balance": "200200000000000000000",
        "nonce": "0"
      }
    },
    "batchL2Data": "0xee80843b9aca00830186a0944d5cf5032b2a844602278b01199ed191a86c93ff88016345785d8a0000808203e980801186622d03b6b8da7cf111d1ccba5bb185c56deae6a322cebc6dda0556f3cb9700910c26408b64b51c5da36ba2f38ef55ba1cee719d5a6c012259687999074321bee01843b9aca00830186a0944d5cf5032b2a844602278b01199ed191a86c93ff88016345785d8a0000808203e880803ee20a0764440b016c4a2ee4e7e4eb3a5a97f1e6a6c9f40bf5ecf50f95ff636d63878ddb3e997e519826c7bb26fb7c5950a208e1ec722a9f1c568c4e479b40341c",
    "globalExitRoot": "0x090bcaf734c4f06c93954a827b45a6e8c67b8e0fd1e0a35a1c5982d6961828f9",
    "newLocalExitRoot": "0x0000000000000000000000000000000000000000000000000000000000000000",
    "inputHash": "0xde8dac2f02ee60821b280ba4b26be6046490a8ab64625b5016ff5cfa9ab677d9",
    "batchHashData": "0x849031c03b08edbb4303f74a8b981606690443c90b8b121308650a70b448367e",
    "oldLocalExitRoot": "0x0000000000000000000000000000000000000000000000000000000000000000",
    "timestamp": 1944498031
  },
  {
    "id": 2,
    "description": "2 accounts. 1 valid transaction (chainIdSequencer). 1 invalid (invalid chainId).",
    "arity": 4,
    "chainIdSequencer": 1001,
    "defaultChainId": 1000,
    "sequencerAddress": "0x617b3a3528F9cDd6630fd3301B9c8911F7Bf063D",
    "sequencerPvtKey": "0x28b2b0318721be8c8339199172cd7cc8f5e273800a35616ec893083a4b32c02e",
    "genesis": [
      {
        "address": "0x617b3a3528F9cDd6630fd3301B9c8911F7Bf063D",
        "nonce": "0",
        "balance": "100000000000000000000",
        "pvtKey": "0x28b2b0318721be8c8339199172cd7cc8f5e273800a35616ec893083a4b32c02e"
      },
      {
        "address": "0x4d5Cf5032B2a844602278b01199ED191A86c93ff",
        "nonce": "0",
        "balance": "200000000000000000000",
        "pvtKey": "0x4d27a600dce8c29b7bd080e29a26972377dbb04d7a27d919adbb602bf13cfd23"
      }
    ],
    "expectedOldRoot": "0x4a9bfcb163ec91c5beb22e6aca41592433092c8c7821b01d37fd0de483f9265d",
    "txs": [
      {
        "id": 0,
        "from": "0x617b3a3528F9cDd6630fd3301B9c8911F7Bf063D",
        "to": "0x4d5Cf5032B2a844602278b01199ED191A86c93ff",
        "nonce": 0,
        "value": "100000000000000000",
        "gasLimit": 100000,
        "gasPrice": "1000000000",
        "chainId": 1001,
        "rawTx": "0xf86d80843b9aca00830186a0944d5cf5032b2a844602278b01199ed191a86c93ff88016345785d8a0000808207f5a01186622d03b6b8da7cf111d1ccba5bb185c56deae6a322cebc6dda0556f3cb979f910c26408b64b51c5da36ba2f38ef55ba1cee719d5a6c01225968799907432",
        "customRawTx": "0xee80843b9aca00830186a0944d5cf5032b2a844602278b01199ed191a86c93ff88016345785d8a0000808203e980801186622d03b6b8da7cf111d1ccba5bb185c56deae6a322cebc6dda0556f3cb9700910c26408b64b51c5da36ba2f38ef55ba1cee719d5a6c012259687999074321b",
        "reason": ""
      },
      {
        "id": 1,
        "from": "0x617b3a3528F9cDd6630fd3301B9c8911F7Bf063D",
        "to": "0x4d5Cf5032B2a844602278b01199ED191A86c93ff",
        "nonce": 1,
        "value": "100000000000000000",
        "gasLimit": 100000,
        "gasPrice": "1000000000",
        "chainId": 4,
        "rawTx": "0xf86c01843b9aca00830186a0944d5cf5032b2a844602278b01199ed191a86c93ff88016345785d8a0000802ca0ac20136cfb02cecc8996d76f1f3c268ddcd926e805bf0ec23ff8fe1dee31e48aa05c4cd07d11427350f2f312f0d0b6bd020196b656a6bc24fb70d26aed2e2b27d6",
        "customRawTx": "0xec01843b9aca00830186a0944d5cf5032b2a844602278b01199ed191a86c93ff88016345785d8a000080048080ac20136cfb02cecc8996d76f1f3c268ddcd926e805bf0ec23ff8fe1dee31e48a5c4cd07d11427350f2f312f0d0b6bd020196b656a6bc24fb70d26aed2e2b27d61c",
        "reason": "TX INVALID: Chain ID does not match"
      }
    ],
    "expectedNewRoot": "0x2aa02f4e58dc165ceeaac1d4ea5333246d3e5114301b22ce1996d0888e35227e",
    "expectedNewLeafs": {
      "0x617b3a3528F9cDd6630fd3301B9c8911F7Bf063D": {
        "balance": "99900000000000000000",
        "nonce": "1"
      },
      "0x4d5Cf5032B2a844602278b01199ED191A86c93ff": {
        "balance": "200100000000000000000",
        "nonce": "0"
      }
    },
    "batchL2Data": "0xee80843b9aca00830186a0944d5cf5032b2a844602278b01199ed191a86c93ff88016345785d8a0000808203e980801186622d03b6b8da7cf111d1ccba5bb185c56deae6a322cebc6dda0556f3cb9700910c26408b64b51c5da36ba2f38ef55ba1cee719d5a6c012259687999074321bec01843b9aca00830186a0944d5cf5032b2a844602278b01199ed191a86c93ff88016345785d8a000080048080ac20136cfb02cecc8996d76f1f3c268ddcd926e805bf0ec23ff8fe1dee31e48a5c4cd07d11427350f2f312f0d0b6bd020196b656a6bc24fb70d26aed2e2b27d61c",
    "globalExitRoot": "0x090bcaf734c4f06c93954a827b45a6e8c67b8e0fd1e0a35a1c5982d6961828f9",
    "newLocalExitRoot": "0x0000000000000000000000000000000000000000000000000000000000000000",
    "inputHash": "0xe0f944213c73134e6e2e0f23ce8d6ab12c3eec477cc71e68dff51c8ecadded96",
    "batchHashData": "0xea8b5d4d7622878fef4549864d5827214f0b1bd8ea5b6fa458ff4c2a99724644",
    "oldLocalExitRoot": "0x0000000000000000000000000000000000000000000000000000000000000000",
    "timestamp": 1944498031
  },
  {
    "id": 3,
    "description": "2 accounts. 1 valid transaction (chainIdSequencer). 1 invalid (invalid chainId). 1 valid transaction (defaultChainId).",
    "arity": 4,
    "chainIdSequencer": 1001,
    "defaultChainId": 1000,
    "sequencerAddress": "0x617b3a3528F9cDd6630fd3301B9c8911F7Bf063D",
    "sequencerPvtKey": "0x28b2b0318721be8c8339199172cd7cc8f5e273800a35616ec893083a4b32c02e",
    "genesis": [
      {
        "address": "0x617b3a3528F9cDd6630fd3301B9c8911F7Bf063D",
        "nonce": "0",
        "balance": "100000000000000000000",
        "pvtKey": "0x28b2b0318721be8c8339199172cd7cc8f5e273800a35616ec893083a4b32c02e"
      },
      {
        "address": "0x4d5Cf5032B2a844602278b01199ED191A86c93ff",
        "nonce": "0",
        "balance": "200000000000000000000",
        "pvtKey": "0x4d27a600dce8c29b7bd080e29a26972377dbb04d7a27d919adbb602bf13cfd23"
      }
    ],
    "expectedOldRoot": "0x4a9bfcb163ec91c5beb22e6aca41592433092c8c7821b01d37fd0de483f9265d",
    "txs": [
      {
        "id": 0,
        "from": "0x617b3a3528F9cDd6630fd3301B9c8911F7Bf063D",
        "to": "0x4d5Cf5032B2a844602278b01199ED191A86c93ff",
        "nonce": 0,
        "value": "100000000000000000",
        "gasLimit": 100000,
        "gasPrice": "1000000000",
        "chainId": 1001,
        "rawTx": "0xf86d80843b9aca00830186a0944d5cf5032b2a844602278b01199ed191a86c93ff88016345785d8a0000808207f5a01186622d03b6b8da7cf111d1ccba5bb185c56deae6a322cebc6dda0556f3cb979f910c26408b64b51c5da36ba2f38ef55ba1cee719d5a6c01225968799907432",
        "customRawTx": "0xee80843b9aca00830186a0944d5cf5032b2a844602278b01199ed191a86c93ff88016345785d8a0000808203e980801186622d03b6b8da7cf111d1ccba5bb185c56deae6a322cebc6dda0556f3cb9700910c26408b64b51c5da36ba2f38ef55ba1cee719d5a6c012259687999074321b",
        "reason": ""
      },
      {
        "id": 1,
        "from": "0x617b3a3528F9cDd6630fd3301B9c8911F7Bf063D",
        "to": "0x4d5Cf5032B2a844602278b01199ED191A86c93ff",
        "nonce": 1,
        "value": "100000000000000000",
        "gasLimit": 100000,
        "gasPrice": "1000000000",
        "chainId": 4,
        "rawTx": "0xf86c01843b9aca00830186a0944d5cf5032b2a844602278b01199ed191a86c93ff88016345785d8a0000802ca0ac20136cfb02cecc8996d76f1f3c268ddcd926e805bf0ec23ff8fe1dee31e48aa05c4cd07d11427350f2f312f0d0b6bd020196b656a6bc24fb70d26aed2e2b27d6",
        "customRawTx": "0xec01843b9aca00830186a0944d5cf5032b2a844602278b01199ed191a86c93ff88016345785d8a000080048080ac20136cfb02cecc8996d76f1f3c268ddcd926e805bf0ec23ff8fe1dee31e48a5c4cd07d11427350f2f312f0d0b6bd020196b656a6bc24fb70d26aed2e2b27d61c",
        "reason": "TX INVALID: Chain ID does not match"
      },
      {
        "id": 2,
        "from": "0x617b3a3528F9cDd6630fd3301B9c8911F7Bf063D",
        "to": "0x4d5Cf5032B2a844602278b01199ED191A86c93ff",
        "nonce": 1,
        "value": "100000000000000000",
        "gasLimit": 100000,
        "gasPrice": "1000000000",
        "chainId": 1000,
        "rawTx": "0xf86e01843b9aca00830186a0944d5cf5032b2a844602278b01199ed191a86c93ff88016345785d8a0000808207f4a03ee20a0764440b016c4a2ee4e7e4eb3a5a97f1e6a6c9f40bf5ecf50f95ff636da063878ddb3e997e519826c7bb26fb7c5950a208e1ec722a9f1c568c4e479b4034",
        "customRawTx": "0xee01843b9aca00830186a0944d5cf5032b2a844602278b01199ed191a86c93ff88016345785d8a0000808203e880803ee20a0764440b016c4a2ee4e7e4eb3a5a97f1e6a6c9f40bf5ecf50f95ff636d63878ddb3e997e519826c7bb26fb7c5950a208e1ec722a9f1c568c4e479b40341c",
        "reason": ""
      }
    ],
    "expectedNewRoot": "0xf6099a58b0e5d46636d8cbe01e9ec67711e1ada47b06bf088d5e5701ed734d86",
    "expectedNewLeafs": {
      "0x617b3a3528F9cDd6630fd3301B9c8911F7Bf063D": {
        "balance": "99800000000000000000",
        "nonce": "2"
      },
      "0x4d5Cf5032B2a844602278b01199ED191A86c93ff": {
        "balance": "200200000000000000000",
        "nonce": "0"
      }
    },
    "batchL2Data": "0xee80843b9aca00830186a0944d5cf5032b2a844602278b01199ed191a86c93ff88016345785d8a0000808203e980801186622d03b6b8da7cf111d1ccba5bb185c56deae6a322cebc6dda0556f3cb9700910c26408b64b51c5da36ba2f38ef55ba1cee719d5a6c012259687999074321bec01843b9aca00830186a0944d5cf5032b2a844602278b01199ed191a86c93ff88016345785d8a000080048080ac20136cfb02cecc8996d76f1f3c268ddcd926e805bf0ec23ff8fe1dee31e48a5c4cd07d11427350f2f312f0d0b6bd020196b656a6bc24fb70d26aed2e2b27d61cee01843b9aca00830186a0944d5cf5032b2a844602278b01199ed191a86c93ff88016345785d8a0000808203e880803ee20a0764440b016c4a2ee4e7e4eb3a5a97f1e6a6c9f40bf5ecf50f95ff636d63878ddb3e997e519826c7bb26fb7c5950a208e1ec722a9f1c568c4e479b40341c",
    "globalExitRoot": "0x090bcaf734c4f06c93954a827b45a6e8c67b8e0fd1e0a35a1c5982d6961828f9",
    "newLocalExitRoot": "0x0000000000000000000000000000000000000000000000000000000000000000",
    "inputHash": "0xbf5d91833338f0aa0feab6a47591a761f970d4677c3faf6dcc4c0f9587425817",
    "batchHashData": "0xf4402ce1043598b122a75eb75d20a46657b38f1581a3ce28bfbfe7550be8d175",
    "oldLocalExitRoot": "0x0000000000000000000000000000000000000000000000000000000000000000",
    "timestamp": 1944498031
  }
]