[
  {
    "id": 0,
    "description": "2 accounts and 1 valid transaction, from, to and sequencer are the same",
    "arity": 4,
    "chainIdSequencer": 1001,
    "defaultChainId": 1000,
    "sequencerAddress": "0x617b3a3528F9cDd6630fd3301B9c8911F7Bf063D",
    "sequencerPvtKey": "0x28b2b0318721be8c8339199172cd7cc8f5e273800a35616ec893083a4b32c02e",
    "genesis": [
      {
        "address": "0x617b3a3528F9cDd6630fd3301B9c8911F7Bf063D",
        "nonce": "0",
        "balance": "100000000000000000000",
        "pvtKey": "0x28b2b0318721be8c8339199172cd7cc8f5e273800a35616ec893083a4b32c02e"
      },
      {
        "address": "0x4d5Cf5032B2a844602278b01199ED191A86c93ff",
        "nonce": "0",
        "balance": "200000000000000000000",
        "pvtKey": "0x4d27a600dce8c29b7bd080e29a26972377dbb04d7a27d919adbb602bf13cfd23"
      }
    ],
    "expectedOldRoot": "0x4a9bfcb163ec91c5beb22e6aca41592433092c8c7821b01d37fd0de483f9265d",
    "txs": [
      {
        "from": "0x617b3a3528F9cDd6630fd3301B9c8911F7Bf063D",
        "to": "0x617b3a3528F9cDd6630fd3301B9c8911F7Bf063D",
        "nonce": 0,
        "value": "100000000000000000",
        "gasLimit": 100000,
        "gasPrice": "1000000000",
        "chainId": 1000,
        "rawTx": "0xf86e80843b9aca00830186a094617b3a3528f9cdd6630fd3301b9c8911f7bf063d88016345785d8a0000808207f3a0cca9bd00c0a9af18cdc17e693951b88b293bae8ed236ff7dcf2684c478bc0b6aa019cc9ed09ee5e1e2750abbea7ec8d2ed31df90c7d364d4e2f36c31eb410c1045",
        "customRawTx": "0xee80843b9aca00830186a094617b3a3528f9cdd6630fd3301b9c8911f7bf063d88016345785d8a0000808203e88080cca9bd00c0a9af18cdc17e693951b88b293bae8ed236ff7dcf2684c478bc0b6a19cc9ed09ee5e1e2750abbea7ec8d2ed31df90c7d364d4e2f36c31eb410c10451b",
        "reason": ""
      }
    ],
    "expectedNewRoot": "0xcbcec05248845b79355514270b0713a5e268c85c061dedb8a59bf3282758a1ae",
    "expectedNewLeafs": {
      "0x617b3a3528F9cDd6630fd3301B9c8911F7Bf063D": {
        "balance": "100000000000000000000",
        "nonce": "1"
      },
      "0x4d5Cf5032B2a844602278b01199ED191A86c93ff": {
        "balance": "200000000000000000000",
        "nonce": "0"
      }
    },
    "batchL2Data": "0xee80843b9aca00830186a094617b3a3528f9cdd6630fd3301b9c8911f7bf063d88016345785d8a0000808203e88080cca9bd00c0a9af18cdc17e693951b88b293bae8ed236ff7dcf2684c478bc0b6a19cc9ed09ee5e1e2750abbea7ec8d2ed31df90c7d364d4e2f36c31eb410c10451b",
    "globalExitRoot": "0x090bcaf734c4f06c93954a827b45a6e8c67b8e0fd1e0a35a1c5982d6961828f9",
    "newLocalExitRoot": "0x0000000000000000000000000000000000000000000000000000000000000000",
    "inputHash": "0xdba05a3bdfefe2b4815a3655672800211b1e4825e91f6d2aaf60529fa075bfc3",
    "batchHashData": "0x6f70724ce6f47451d23b55925247248d9425b1e36e759ed8108535bfb58fa2b9",
    "oldLocalExitRoot": "0x0000000000000000000000000000000000000000000000000000000000000000",
    "timestamp": 1944498031
  },
  {
    "id": 1,
    "description": "2 accounts and 2 valid transaction, sequencer is able to do the transaction because the fees are payed at the end of every tx",
    "arity": 4,
    "chainIdSequencer": 1001,
    "defaultChainId": 1000,
    "sequencerAddress": "0x617b3a3528F9cDd6630fd3301B9c8911F7Bf063D",
    "sequencerPvtKey": "0x28b2b0318721be8c8339199172cd7cc8f5e273800a35616ec893083a4b32c02e",
    "genesis": [
      {
        "address": "0x617b3a3528F9cDd6630fd3301B9c8911F7Bf063D",
        "nonce": "0",
        "balance": "0",
        "pvtKey": "0x28b2b0318721be8c8339199172cd7cc8f5e273800a35616ec893083a4b32c02e"
      },
      {
        "address": "0x4d5Cf5032B2a844602278b01199ED191A86c93ff",
        "nonce": "0",
        "balance": "200000000000000000000",
        "pvtKey": "0x4d27a600dce8c29b7bd080e29a26972377dbb04d7a27d919adbb602bf13cfd23"
      }
    ],
    "expectedOldRoot": "0x8397a02db0909df274170a8a1a4e45f6d7f24e66606976cd00960d8c6c850c97",
    "txs": [
      {
        "id": 0,
        "from": "0x4d5Cf5032B2a844602278b01199ED191A86c93ff",
        "to": "0x4d5Cf5032B2a844602278b01199ED191A86c93ff",
        "nonce": 0,
        "value": "100000000000000000",
        "gasLimit": 100000,
        "gasPrice": "1000000000",
        "chainId": 1000,
        "rawTx": "0xf86e80843b9aca00830186a0944d5cf5032b2a844602278b01199ed191a86c93ff88016345785d8a0000808207f4a08a3387921cb3ec5d05a26e7783f45245c201009765616dc08ad37e99867bfe6aa076fb8bf07c725864808e3717f5f30aa2b8760bde347610f9c3a6de04cb30539c",
        "reason": "",
        "customRawTx": "0xee80843b9aca00830186a0944d5cf5032b2a844602278b01199ed191a86c93ff88016345785d8a0000808203e880808a3387921cb3ec5d05a26e7783f45245c201009765616dc08ad37e99867bfe6a76fb8bf07c725864808e3717f5f30aa2b8760bde347610f9c3a6de04cb30539c1c"
      },
      {
        "id": 1,
        "from": "0x617b3a3528F9cDd6630fd3301B9c8911F7Bf063D",
        "to": "0x4d5Cf5032B2a844602278b01199ED191A86c93ff",
        "nonce": 0,
        "value": "20000000000000",
        "gasLimit": 100000,
        "gasPrice": "1",
        "chainId": 1000,
        "rawTx": "0xf8688001830186a0944d5cf5032b2a844602278b01199ed191a86c93ff8612309ce54000808207f3a0d888c8279ee16a7089a1365d72d86590ce9693b9cfe245c3f929197845085b27a03b8c51009f0bd7d1fbdcd7f91e3397e27bf263437fc0b097afefb1040cc63523",
        "reason": "",
        "customRawTx": "0xe88001830186a0944d5cf5032b2a844602278b01199ed191a86c93ff8612309ce54000808203e88080d888c8279ee16a7089a1365d72d86590ce9693b9cfe245c3f929197845085b273b8c51009f0bd7d1fbdcd7f91e3397e27bf263437fc0b097afefb1040cc635231b"
      }
    ],
    "expectedNewRoot": "0x797bea48b67017a344e523d08264e50b2aca1cd39a7bfb21415302074603d8de",
    "expectedNewLeafs": {
      "0x617b3a3528F9cDd6630fd3301B9c8911F7Bf063D": {
        "balance": "1000000000000",
        "nonce": "1"
      },
      "0x4d5Cf5032B2a844602278b01199ED191A86c93ff": {
        "balance": "199999999000000000000",
        "nonce": "1"
      }
    },
    "batchL2Data": "0xee80843b9aca00830186a0944d5cf5032b2a844602278b01199ed191a86c93ff88016345785d8a0000808203e880808a3387921cb3ec5d05a26e7783f45245c201009765616dc08ad37e99867bfe6a76fb8bf07c725864808e3717f5f30aa2b8760bde347610f9c3a6de04cb30539c1ce88001830186a0944d5cf5032b2a844602278b01199ed191a86c93ff8612309ce54000808203e88080d888c8279ee16a7089a1365d72d86590ce9693b9cfe245c3f929197845085b273b8c51009f0bd7d1fbdcd7f91e3397e27bf263437fc0b097afefb1040cc635231b",
    "globalExitRoot": "0x090bcaf734c4f06c93954a827b45a6e8c67b8e0fd1e0a35a1c5982d6961828f9",
    "newLocalExitRoot": "0x0000000000000000000000000000000000000000000000000000000000000000",
    "inputHash": "0x8c768b62268edbaa1c2bd59dd1657a3b541badbfe6d2787f0b30b31f8697c402",
    "batchHashData": "0x1128519258f59d81b64fe274921ef126a71b92588e58c6894fdfdd1d9dae6631",
    "oldLocalExitRoot": "0x0000000000000000000000000000000000000000000000000000000000000000",
    "timestamp": 1944498031
  }
]