{
  "expectedOldStateRoot": "0x7cbb2ff921d59f51a554189352655ce2262bf905ca398f539bf97f5818aab9f8",
  "expectedNewStateRoot": "0xe88c12a21164cf02f2ab0deaf6e2be5052d95d3f40559569c3731171fac56a8d",
  "batchL2Data": "0xf8ab80843b9aca00830249f0941275fbb540c8efc58b812ba83b0d0b8b9917ae9880b884eacabe14000000000000000000000000617b3a3528f9cdd6630fd3301b9c8911f7bf063d0000000000000000000000000000000000000000000000000000000000000040000000000000000000000000000000000000000000000000000000000000000375726900000000000000000000000000000000000000000000000000000000008203e980806b5b5346d51deb488f85cdee036ac2c09d9ce735725eea0f0a1bdf5eb366caa47934d76d85914ea13a15577d18550e207eae1d43ca5ed58be0ca74f0748d69911bff",
  "genesis": [
    {
      "address": "0x617b3a3528F9cDd6630fd3301B9c8911F7Bf063D",
      "nonce": "0",
      "balance": "100000000000000000000",
      "pvtKey": "0x28b2b0318721be8c8339199172cd7cc8f5e273800a35616ec893083a4b32c02e",
      "isSmartContract": false
    },
    {
      "address": "0x4d5Cf5032B2a844602278b01199ED191A86c93ff",
      "nonce": "0",
      "balance": "200000000000000000000",
      "pvtKey": "0x4d27a600dce8c29b7bd080e29a26972377dbb04d7a27d919adbb602bf13cfd23",
      "isSmartContract": false
    },
    {
      "address": "0x1275fbb540c8efc58b812ba83b0d0b8b9917ae98",
      "nonce": "1",
      "balance": "0",
      "storage": {
        "0x0000000000000000000000000000000000000000000000000000000000000007": "0x617b3a3528f9cdd6630fd3301b9c8911f7bf063d",
        "0x0000000000000000000000000000000000000000000000000000000000000000": "0x4d794e465400000000000000000000000000000000000000000000000000000a",
        "0x0000000000000000000000000000000000000000000000000000000000000001": "0x4e46540000000000000000000000000000000000000000000000000000000006"
      },
      "isSmartContract": true,
      "bytecode": "0x608060405234801561001057600080fd5b506004361061010b5760003560e01c8063715018a6116100a2578063b88d4fde11610071578063b88d4fde146102a4578063c87b56dd146102c0578063e985e9c5146102f0578063eacabe1414610320578063f2fde38b146103505761010b565b8063715018a6146102425780638da5cb5b1461024c57806395d89b411461026a578063a22cb465146102885761010b565b806323b872dd116100de57806323b872dd146101aa57806342842e0e146101c65780636352211e146101e257806370a08231146102125761010b565b806301ffc9a71461011057806306fdde0314610140578063081812fc1461015e578063095ea7b31461018e575b600080fd5b61012a60048036038101906101259190612009565b61036c565b60405161013791906123d5565b60405180910390f35b6101486103cd565b60405161015591906123f0565b60405180910390f35b61017860048036038101906101739190612063565b61045f565b604051610185919061236e565b60405180910390f35b6101a860048036038101906101a39190611fc9565b6104a5565b005b6101c460048036038101906101bf9190611e57565b6105bd565b005b6101e060048036038101906101db9190611e57565b61061d565b005b6101fc60048036038101906101f79190612063565b61063d565b604051610209919061236e565b60405180910390f35b61022c60048036038101906102279190611dea565b6106c4565b60405161023991906125d2565b60405180910390f35b61024a61077c565b005b610254610790565b604051610261919061236e565b60405180910390f35b6102726107ba565b60405161027f91906123f0565b60405180910390f35b6102a2600480360381019061029d9190611f2d565b61084c565b005b6102be60048036038101906102b99190611eaa565b610862565b005b6102da60048036038101906102d59190612063565b6108c4565b6040516102e791906123f0565b60405180910390f35b61030a60048036038101906103059190611e17565b6109d7565b60405161031791906123d5565b60405180910390f35b61033a60048036038101906103359190611f6d565b610a6b565b60405161034791906125d2565b60405180910390f35b61036a60048036038101906103659190611dea565b610aab565b005b6000634906490660e01b7bffffffffffffffffffffffffffffffffffffffffffffffffffffffff1916827bffffffffffffffffffffffffffffffffffffffffffffffffffffffff191614806103c657506103c582610b2f565b5b9050919050565b6060600080546103dc9061276d565b80601f01602080910402602001604051908101604052809291908181526020018280546104089061276d565b80156104555780601f1061042a57610100808354040283529160200191610455565b820191906000526020600020905b81548152906001019060200180831161043857829003601f168201915b5050505050905090565b600061046a82610c11565b6004600083815260200190815260200160002060009054906101000a900473ffffffffffffffffffffffffffffffffffffffff169050919050565b60006104b08261063d565b90508073ffffffffffffffffffffffffffffffffffffffff168373ffffffffffffffffffffffffffffffffffffffff161415610521576040517f08c379a000000000000000000000000000000000000000000000000000000000815260040161051890612592565b60405180910390fd5b8073ffffffffffffffffffffffffffffffffffffffff16610540610c5c565b73ffffffffffffffffffffffffffffffffffffffff16148061056f575061056e81610569610c5c565b6109d7565b5b6105ae576040517f08c379a00000000000000000000000000000000000000000000000000000000081526004016105a5906125b2565b60405180910390fd5b6105b88383610c64565b505050565b6105ce6105c8610c5c565b82610d1d565b61060d576040517f08c379a000000000000000000000000000000000000000000000000000000000815260040161060490612412565b60405180910390fd5b610618838383610db2565b505050565b61063883838360405180602001604052806000815250610862565b505050565b600080610649836110ac565b9050600073ffffffffffffffffffffffffffffffffffffffff168173ffffffffffffffffffffffffffffffffffffffff1614156106bb576040517f08c379a00000000000000000000000000000000000000000000000000000000081526004016106b290612572565b60405180910390fd5b80915050919050565b60008073ffffffffffffffffffffffffffffffffffffffff168273ffffffffffffffffffffffffffffffffffffffff161415610735576040517f08c379a000000000000000000000000000000000000000000000000000000000815260040161072c906124f2565b60405180910390fd5b600360008373ffffffffffffffffffffffffffffffffffffffff1673ffffffffffffffffffffffffffffffffffffffff168152602001908152602001600020549050919050565b6107846110e9565b61078e6000611167565b565b6000600760009054906101000a900473ffffffffffffffffffffffffffffffffffffffff16905090565b6060600180546107c99061276d565b80601f01602080910402602001604051908101604052809291908181526020018280546107f59061276d565b80156108425780601f1061081757610100808354040283529160200191610842565b820191906000526020600020905b81548152906001019060200180831161082557829003601f168201915b5050505050905090565b61085e610857610c5c565b838361122d565b5050565b61087361086d610c5c565b83610d1d565b6108b2576040517f08c379a00000000000000000000000000000000000000000000000000000000081526004016108a990612412565b60405180910390fd5b6108be8484848461139a565b50505050565b60606108cf82610c11565b60006006600084815260200190815260200160002080546108ef9061276d565b80601f016020809104026020016040519081016040528092919081815260200182805461091b9061276d565b80156109685780601f1061093d57610100808354040283529160200191610968565b820191906000526020600020905b81548152906001019060200180831161094b57829003601f168201915b5050505050905060006109796113f6565b905060008151141561098f5781925050506109d2565b6000825111156109c45780826040516020016109ac92919061234a565b604051602081830303815290604052925050506109d2565b6109cd8461140d565b925050505b919050565b6000600560008473ffffffffffffffffffffffffffffffffffffffff1673ffffffffffffffffffffffffffffffffffffffff16815260200190815260200160002060008373ffffffffffffffffffffffffffffffffffffffff1673ffffffffffffffffffffffffffffffffffffffff16815260200190815260200160002060009054906101000a900460ff16905092915050565b6000610a756110e9565b610a7f6008611475565b6000610a8b600861148b565b9050610a978482611499565b610aa181846116b7565b8091505092915050565b610ab36110e9565b600073ffffffffffffffffffffffffffffffffffffffff168173ffffffffffffffffffffffffffffffffffffffff161415610b23576040517f08c379a0000000000000000000000000000000000000000000000000000000008152600401610b1a90612452565b60405180910390fd5b610b2c81611167565b50565b60007f80ac58cd000000000000000000000000000000000000000000000000000000007bffffffffffffffffffffffffffffffffffffffffffffffffffffffff1916827bffffffffffffffffffffffffffffffffffffffffffffffffffffffff19161480610bfa57507f5b5e139f000000000000000000000000000000000000000000000000000000007bffffffffffffffffffffffffffffffffffffffffffffffffffffffff1916827bffffffffffffffffffffffffffffffffffffffffffffffffffffffff1916145b80610c0a5750610c0982611762565b5b9050919050565b610c1a816117cc565b610c59576040517f08c379a0000000000000000000000000000000000000000000000000000000008152600401610c5090612572565b60405180910390fd5b50565b600033905090565b816004600083815260200190815260200160002060006101000a81548173ffffffffffffffffffffffffffffffffffffffff021916908373ffffffffffffffffffffffffffffffffffffffff160217905550808273ffffffffffffffffffffffffffffffffffffffff16610cd78361063d565b73ffffffffffffffffffffffffffffffffffffffff167f8c5be1e5ebec7d5bd14f71427d1e84f3dd0314c0f7b2291e5b200ac8c7c3b92560405160405180910390a45050565b600080610d298361063d565b90508073ffffffffffffffffffffffffffffffffffffffff168473ffffffffffffffffffffffffffffffffffffffff161480610d6b5750610d6a81856109d7565b5b80610da957508373ffffffffffffffffffffffffffffffffffffffff16610d918461045f565b73ffffffffffffffffffffffffffffffffffffffff16145b91505092915050565b8273ffffffffffffffffffffffffffffffffffffffff16610dd28261063d565b73ffffffffffffffffffffffffffffffffffffffff1614610e28576040517f08c379a0000000000000000000000000000000000000000000000000000000008152600401610e1f90612472565b60405180910390fd5b600073ffffffffffffffffffffffffffffffffffffffff168273ffffffffffffffffffffffffffffffffffffffff161415610e98576040517f08c379a0000000000000000000000000000000000000000000000000000000008152600401610e8f906124b2565b60405180910390fd5b610ea5838383600161180d565b8273ffffffffffffffffffffffffffffffffffffffff16610ec58261063d565b73ffffffffffffffffffffffffffffffffffffffff1614610f1b576040517f08c379a0000000000000000000000000000000000000000000000000000000008152600401610f1290612472565b60405180910390fd5b6004600082815260200190815260200160002060006101000a81549073ffffffffffffffffffffffffffffffffffffffff02191690556001600360008573ffffffffffffffffffffffffffffffffffffffff1673ffffffffffffffffffffffffffffffffffffffff168152602001908152602001600020600082825403925050819055506001600360008473ffffffffffffffffffffffffffffffffffffffff1673ffffffffffffffffffffffffffffffffffffffff16815260200190815260200160002060008282540192505081905550816002600083815260200190815260200160002060006101000a81548173ffffffffffffffffffffffffffffffffffffffff021916908373ffffffffffffffffffffffffffffffffffffffff160217905550808273ffffffffffffffffffffffffffffffffffffffff168473ffffffffffffffffffffffffffffffffffffffff167fddf252ad1be2c89b69c2b068fc378daa952ba7f163c4a11628f55a4df523b3ef60405160405180910390a46110a78383836001611813565b505050565b60006002600083815260200190815260200160002060009054906101000a900473ffffffffffffffffffffffffffffffffffffffff169050919050565b6110f1610c5c565b73ffffffffffffffffffffffffffffffffffffffff1661110f610790565b73ffffffffffffffffffffffffffffffffffffffff1614611165576040517f08c379a000000000000000000000000000000000000000000000000000000000815260040161115c90612552565b60405180910390fd5b565b6000600760009054906101000a900473ffffffffffffffffffffffffffffffffffffffff16905081600760006101000a81548173ffffffffffffffffffffffffffffffffffffffff021916908373ffffffffffffffffffffffffffffffffffffffff1602179055508173ffffffffffffffffffffffffffffffffffffffff168173ffffffffffffffffffffffffffffffffffffffff167f8be0079c531659141344cd1fd0a4f28419497f9722a3daafe3b4186f6b6457e060405160405180910390a35050565b8173ffffffffffffffffffffffffffffffffffffffff168373ffffffffffffffffffffffffffffffffffffffff16141561129c576040517f08c379a0000000000000000000000000000000000000000000000000000000008152600401611293906124d2565b60405180910390fd5b80600560008573ffffffffffffffffffffffffffffffffffffffff1673ffffffffffffffffffffffffffffffffffffffff16815260200190815260200160002060008473ffffffffffffffffffffffffffffffffffffffff1673ffffffffffffffffffffffffffffffffffffffff16815260200190815260200160002060006101000a81548160ff0219169083151502179055508173ffffffffffffffffffffffffffffffffffffffff168373ffffffffffffffffffffffffffffffffffffffff167f17307eab39ab6107e8899845ad3d59bd9653f200f220920489ca2b5937696c318360405161138d91906123d5565b60405180910390a3505050565b6113a5848484610db2565b6113b184848484611819565b6113f0576040517f08c379a00000000000000000000000000000000000000000000000000000000081526004016113e790612432565b60405180910390fd5b50505050565b606060405180602001604052806000815250905090565b606061141882610c11565b60006114226113f6565b90506000815111611442576040518060200160405280600081525061146d565b8061144c846119b0565b60405160200161145d92919061234a565b6040516020818303038152906040525b915050919050565b6001816000016000828254019250508190555050565b600081600001549050919050565b600073ffffffffffffffffffffffffffffffffffffffff168273ffffffffffffffffffffffffffffffffffffffff161415611509576040517f08c379a000000000000000000000000000000000000000000000000000000000815260040161150090612532565b60405180910390fd5b611512816117cc565b15611552576040517f08c379a000000000000000000000000000000000000000000000000000000000815260040161154990612492565b60405180910390fd5b61156060008383600161180d565b611569816117cc565b156115a9576040517f08c379a00000000000000000000000000000000000000000000000000000000081526004016115a090612492565b60405180910390fd5b6001600360008473ffffffffffffffffffffffffffffffffffffffff1673ffffffffffffffffffffffffffffffffffffffff16815260200190815260200160002060008282540192505081905550816002600083815260200190815260200160002060006101000a81548173ffffffffffffffffffffffffffffffffffffffff021916908373ffffffffffffffffffffffffffffffffffffffff160217905550808273ffffffffffffffffffffffffffffffffffffffff16600073ffffffffffffffffffffffffffffffffffffffff167fddf252ad1be2c89b69c2b068fc378daa952ba7f163c4a11628f55a4df523b3ef60405160405180910390a46116b3600083836001611813565b5050565b6116c0826117cc565b6116ff576040517f08c379a00000000000000000000000000000000000000000000000000000000081526004016116f690612512565b60405180910390fd5b80600660008481526020019081526020016000209080519060200190611726929190611bfe565b507ff8e1a15aba9398e019f0b49df1a4fde98ee17ae345cb5f6b5e2c27f5033e8ce78260405161175691906125d2565b60405180910390a15050565b60007f01ffc9a7000000000000000000000000000000000000000000000000000000007bffffffffffffffffffffffffffffffffffffffffffffffffffffffff1916827bffffffffffffffffffffffffffffffffffffffffffffffffffffffff1916149050919050565b60008073ffffffffffffffffffffffffffffffffffffffff166117ee836110ac565b73ffffffffffffffffffffffffffffffffffffffff1614159050919050565b50505050565b50505050565b600061183a8473ffffffffffffffffffffffffffffffffffffffff16611a88565b156119a3578373ffffffffffffffffffffffffffffffffffffffff1663150b7a02611863610c5c565b8786866040518563ffffffff1660e01b81526004016118859493929190612389565b602060405180830381600087803b15801561189f57600080fd5b505af19250505080156118d057506040513d601f19601f820116820180604052508101906118cd9190612036565b60015b611953573d8060008114611900576040519150601f19603f3d011682016040523d82523d6000602084013e611905565b606091505b5060008151141561194b576040517f08c379a000000000000000000000000000000000000000000000000000000000815260040161194290612432565b60405180910390fd5b805181602001fd5b63150b7a0260e01b7bffffffffffffffffffffffffffffffffffffffffffffffffffffffff1916817bffffffffffffffffffffffffffffffffffffffffffffffffffffffff1916149150506119a8565b600190505b949350505050565b6060600060016119bf84611aab565b01905060008167ffffffffffffffff8111156119de576119dd61282e565b5b6040519080825280601f01601f191660200182016040528015611a105781602001600182028036833780820191505090505b509050600082602001820190505b600115611a7d578080600190039150507f3031323334353637383961626364656600000000000000000000000000000000600a86061a8153600a8581611a6757611a666127d0565b5b0494506000851415611a7857611a7d565b611a1e565b819350505050919050565b6000808273ffffffffffffffffffffffffffffffffffffffff163b119050919050565b600080600090507a184f03e93ff9f4daa797ed6e38ed64bf6a1f0100000000000000008310611b09577a184f03e93ff9f4daa797ed6e38ed64bf6a1f0100000000000000008381611aff57611afe6127d0565b5b0492506040810190505b6d04ee2d6d415b85acef81000000008310611b46576d04ee2d6d415b85acef81000000008381611b3c57611b3b6127d0565b5b0492506020810190505b662386f26fc100008310611b7557662386f26fc100008381611b6b57611b6a6127d0565b5b0492506010810190505b6305f5e1008310611b9e576305f5e1008381611b9457611b936127d0565b5b0492506008810190505b6127108310611bc3576127108381611bb957611bb86127d0565b5b0492506004810190505b60648310611be65760648381611bdc57611bdb6127d0565b5b0492506002810190505b600a8310611bf5576001810190505b80915050919050565b828054611c0a9061276d565b90600052602060002090601f016020900481019282611c2c5760008555611c73565b82601f10611c4557805160ff1916838001178555611c73565b82800160010185558215611c73579182015b82811115611c72578251825591602001919060010190611c57565b5b509050611c809190611c84565b5090565b5b80821115611c9d576000816000905550600101611c85565b5090565b6000611cb4611caf84612612565b6125ed565b905082815260208101848484011115611cd057611ccf612862565b5b611cdb84828561272b565b509392505050565b6000611cf6611cf184612643565b6125ed565b905082815260208101848484011115611d1257611d11612862565b5b611d1d84828561272b565b509392505050565b600081359050611d3481612c16565b92915050565b600081359050611d4981612c2d565b92915050565b600081359050611d5e81612c44565b92915050565b600081519050611d7381612c44565b92915050565b600082601f830112611d8e57611d8d61285d565b5b8135611d9e848260208601611ca1565b91505092915050565b600082601f830112611dbc57611dbb61285d565b5b8135611dcc848260208601611ce3565b91505092915050565b600081359050611de481612c5b565b92915050565b600060208284031215611e0057611dff61286c565b5b6000611e0e84828501611d25565b91505092915050565b60008060408385031215611e2e57611e2d61286c565b5b6000611e3c85828601611d25565b9250506020611e4d85828601611d25565b9150509250929050565b600080600060608486031215611e7057611e6f61286c565b5b6000611e7e86828701611d25565b9350506020611e8f86828701611d25565b9250506040611ea086828701611dd5565b9150509250925092565b60008060008060808587031215611ec457611ec361286c565b5b6000611ed287828801611d25565b9450506020611ee387828801611d25565b9350506040611ef487828801611dd5565b925050606085013567ffffffffffffffff811115611f1557611f14612867565b5b611f2187828801611d79565b91505092959194509250565b60008060408385031215611f4457611f4361286c565b5b6000611f5285828601611d25565b9250506020611f6385828601611d3a565b9150509250929050565b60008060408385031215611f8457611f8361286c565b5b6000611f9285828601611d25565b925050602083013567ffffffffffffffff811115611fb357611fb2612867565b5b611fbf85828601611da7565b9150509250929050565b60008060408385031215611fe057611fdf61286c565b5b6000611fee85828601611d25565b9250506020611fff85828601611dd5565b9150509250929050565b60006020828403121561201f5761201e61286c565b5b600061202d84828501611d4f565b91505092915050565b60006020828403121561204c5761204b61286c565b5b600061205a84828501611d64565b91505092915050565b6000602082840312156120795761207861286c565b5b600061208784828501611dd5565b91505092915050565b612099816126b7565b82525050565b6120a8816126c9565b82525050565b60006120b982612674565b6120c3818561268a565b93506120d381856020860161273a565b6120dc81612871565b840191505092915050565b60006120f28261267f565b6120fc818561269b565b935061210c81856020860161273a565b61211581612871565b840191505092915050565b600061212b8261267f565b61213581856126ac565b935061214581856020860161273a565b80840191505092915050565b600061215e602d8361269b565b915061216982612882565b604082019050919050565b600061218160328361269b565b915061218c826128d1565b604082019050919050565b60006121a460268361269b565b91506121af82612920565b604082019050919050565b60006121c760258361269b565b91506121d28261296f565b604082019050919050565b60006121ea601c8361269b565b91506121f5826129be565b602082019050919050565b600061220d60248361269b565b9150612218826129e7565b604082019050919050565b600061223060198361269b565b915061223b82612a36565b602082019050919050565b600061225360298361269b565b915061225e82612a5f565b604082019050919050565b6000612276602e8361269b565b915061228182612aae565b604082019050919050565b600061229960208361269b565b91506122a482612afd565b602082019050919050565b60006122bc60208361269b565b91506122c782612b26565b602082019050919050565b60006122df60188361269b565b91506122ea82612b4f565b602082019050919050565b600061230260218361269b565b915061230d82612b78565b604082019050919050565b6000612325603d8361269b565b915061233082612bc7565b604082019050919050565b61234481612721565b82525050565b60006123568285612120565b91506123628284612120565b91508190509392505050565b60006020820190506123836000830184612090565b92915050565b600060808201905061239e6000830187612090565b6123ab6020830186612090565b6123b8604083018561233b565b81810360608301526123ca81846120ae565b905095945050505050565b60006020820190506123ea600083018461209f565b92915050565b6000602082019050818103600083015261240a81846120e7565b905092915050565b6000602082019050818103600083015261242b81612151565b9050919050565b6000602082019050818103600083015261244b81612174565b9050919050565b6000602082019050818103600083015261246b81612197565b9050919050565b6000602082019050818103600083015261248b816121ba565b9050919050565b600060208201905081810360008301526124ab816121dd565b9050919050565b600060208201905081810360008301526124cb81612200565b9050919050565b600060208201905081810360008301526124eb81612223565b9050919050565b6000602082019050818103600083015261250b81612246565b9050919050565b6000602082019050818103600083015261252b81612269565b9050919050565b6000602082019050818103600083015261254b8161228c565b9050919050565b6000602082019050818103600083015261256b816122af565b9050919050565b6000602082019050818103600083015261258b816122d2565b9050919050565b600060208201905081810360008301526125ab816122f5565b9050919050565b600060208201905081810360008301526125cb81612318565b9050919050565b60006020820190506125e7600083018461233b565b92915050565b60006125f7612608565b9050612603828261279f565b919050565b6000604051905090565b600067ffffffffffffffff82111561262d5761262c61282e565b5b61263682612871565b9050602081019050919050565b600067ffffffffffffffff82111561265e5761265d61282e565b5b61266782612871565b9050602081019050919050565b600081519050919050565b600081519050919050565b600082825260208201905092915050565b600082825260208201905092915050565b600081905092915050565b60006126c282612701565b9050919050565b60008115159050919050565b60007fffffffff0000000000000000000000000000000000000000000000000000000082169050919050565b600073ffffffffffffffffffffffffffffffffffffffff82169050919050565b6000819050919050565b82818337600083830152505050565b60005b8381101561275857808201518184015260208101905061273d565b83811115612767576000848401525b50505050565b6000600282049050600182168061278557607f821691505b60208210811415612799576127986127ff565b5b50919050565b6127a882612871565b810181811067ffffffffffffffff821117156127c7576127c661282e565b5b80604052505050565b7f4e487b7100000000000000000000000000000000000000000000000000000000600052601260045260246000fd5b7f4e487b7100000000000000000000000000000000000000000000000000000000600052602260045260246000fd5b7f4e487b7100000000000000000000000000000000000000000000000000000000600052604160045260246000fd5b600080fd5b600080fd5b600080fd5b600080fd5b6000601f19601f8301169050919050565b7f4552433732313a2063616c6c6572206973206e6f7420746f6b656e206f776e6560008201527f72206f7220617070726f76656400000000000000000000000000000000000000602082015250565b7f4552433732313a207472616e7366657220746f206e6f6e20455243373231526560008201527f63656976657220696d706c656d656e7465720000000000000000000000000000602082015250565b7f4f776e61626c653a206e6577206f776e657220697320746865207a65726f206160008201527f6464726573730000000000000000000000000000000000000000000000000000602082015250565b7f4552433732313a207472616e736665722066726f6d20696e636f72726563742060008201527f6f776e6572000000000000000000000000000000000000000000000000000000602082015250565b7f4552433732313a20746f6b656e20616c7265616479206d696e74656400000000600082015250565b7f4552433732313a207472616e7366657220746f20746865207a65726f2061646460008201527f7265737300000000000000000000000000000000000000000000000000000000602082015250565b7f4552433732313a20617070726f766520746f2063616c6c657200000000000000600082015250565b7f4552433732313a2061646472657373207a65726f206973206e6f74206120766160008201527f6c6964206f776e65720000000000000000000000000000000000000000000000602082015250565b7f45524337323155524953746f726167653a2055524920736574206f66206e6f6e60008201527f6578697374656e7420746f6b656e000000000000000000000000000000000000602082015250565b7f4552433732313a206d696e7420746f20746865207a65726f2061646472657373600082015250565b7f4f776e61626c653a2063616c6c6572206973206e6f7420746865206f776e6572600082015250565b7f4552433732313a20696e76616c696420746f6b656e2049440000000000000000600082015250565b7f4552433732313a20617070726f76616c20746f2063757272656e74206f776e6560008201527f7200000000000000000000000000000000000000000000000000000000000000602082015250565b7f4552433732313a20617070726f76652063616c6c6572206973206e6f7420746f60008201527f6b656e206f776e6572206f7220617070726f76656420666f7220616c6c000000602082015250565b612c1f816126b7565b8114612c2a57600080fd5b50565b612c36816126c9565b8114612c4157600080fd5b50565b612c4d816126d5565b8114612c5857600080fd5b50565b612c6481612721565b8114612c6f57600080fd5b5056fea2646970667358221220359108388858441fb88d033aa44d4f8f4ba1d26ff496a710bc19e3feb04ee2f264736f6c63430008070033",
      "abi": [
        {
          "inputs": [],
          "stateMutability": "nonpayable",
          "type": "constructor"
        },
        {
          "anonymous": false,
          "inputs": [
            {
              "indexed": true,
              "internalType": "address",
              "name": "owner",
              "type": "address"
            },
            {
              "indexed": true,
              "internalType": "address",
              "name": "approved",
              "type": "address"
            },
            {
              "indexed": true,
              "internalType": "uint256",
              "name": "tokenId",
              "type": "uint256"
            }
          ],
          "name": "Approval",
          "type": "event"
        },
        {
          "anonymous": false,
          "inputs": [
            {
              "indexed": true,
              "internalType": "address",
              "name": "owner",
              "type": "address"
            },
            {
              "indexed": true,
              "internalType": "address",
              "name": "operator",
              "type": "address"
            },
            {
              "indexed": false,
              "internalType": "bool",
              "name": "approved",
              "type": "bool"
            }
          ],
          "name": "ApprovalForAll",
          "type": "event"
        },
        {
          "anonymous": false,
          "inputs": [
            {
              "indexed": false,
              "internalType": "uint256",
              "name": "_fromTokenId",
              "type": "uint256"
            },
            {
              "indexed": false,
              "internalType": "uint256",
              "name": "_toTokenId",
              "type": "uint256"
            }
          ],
          "name": "BatchMetadataUpdate",
          "type": "event"
        },
        {
          "anonymous": false,
          "inputs": [
            {
              "indexed": false,
              "internalType": "uint256",
              "name": "_tokenId",
              "type": "uint256"
            }
          ],
          "name": "MetadataUpdate",
          "type": "event"
        },
        {
          "anonymous": false,
          "inputs": [
            {
              "indexed": true,
              "internalType": "address",
              "name": "previousOwner",
              "type": "address"
            },
            {
              "indexed": true,
              "internalType": "address",
              "name": "newOwner",
              "type": "address"
            }
          ],
          "name": "OwnershipTransferred",
          "type": "event"
        },
        {
          "anonymous": false,
          "inputs": [
            {
              "indexed": true,
              "internalType": "address",
              "name": "from",
              "type": "address"
            },
            {
              "indexed": true,
              "internalType": "address",
              "name": "to",
              "type": "address"
            },
            {
              "indexed": true,
              "internalType": "uint256",
              "name": "tokenId",
              "type": "uint256"
            }
          ],
          "name": "Transfer",
          "type": "event"
        },
        {
          "inputs": [
            {
              "internalType": "address",
              "name": "to",
              "type": "address"
            },
            {
              "internalType": "uint256",
              "name": "tokenId",
              "type": "uint256"
            }
          ],
          "name": "approve",
          "outputs": [],
          "stateMutability": "nonpayable",
          "type": "function"
        },
        {
          "inputs": [
            {
              "internalType": "address",
              "name": "owner",
              "type": "address"
            }
          ],
          "name": "balanceOf",
          "outputs": [
            {
              "internalType": "uint256",
              "name": "",
              "type": "uint256"
            }
          ],
          "stateMutability": "view",
          "type": "function"
        },
        {
          "inputs": [
            {
              "internalType": "uint256",
              "name": "tokenId",
              "type": "uint256"
            }
          ],
          "name": "getApproved",
          "outputs": [
            {
              "internalType": "address",
              "name": "",
              "type": "address"
            }
          ],
          "stateMutability": "view",
          "type": "function"
        },
        {
          "inputs": [
            {
              "internalType": "address",
              "name": "owner",
              "type": "address"
            },
            {
              "internalType": "address",
              "name": "operator",
              "type": "address"
            }
          ],
          "name": "isApprovedForAll",
          "outputs": [
            {
              "internalType": "bool",
              "name": "",
              "type": "bool"
            }
          ],
          "stateMutability": "view",
          "type": "function"
        },
        {
          "inputs": [
            {
              "internalType": "address",
              "name": "recipient",
              "type": "address"
            },
            {
              "internalType": "string",
              "name": "tokenURI",
              "type": "string"
            }
          ],
          "name": "mintNFT",
          "outputs": [
            {
              "internalType": "uint256",
              "name": "",
              "type": "uint256"
            }
          ],
          "stateMutability": "nonpayable",
          "type": "function"
        },
        {
          "inputs": [],
          "name": "name",
          "outputs": [
            {
              "internalType": "string",
              "name": "",
              "type": "string"
            }
          ],
          "stateMutability": "view",
          "type": "function"
        },
        {
          "inputs": [],
          "name": "owner",
          "outputs": [
            {
              "internalType": "address",
              "name": "",
              "type": "address"
            }
          ],
          "stateMutability": "view",
          "type": "function"
        },
        {
          "inputs": [
            {
              "internalType": "uint256",
              "name": "tokenId",
              "type": "uint256"
            }
          ],
          "name": "ownerOf",
          "outputs": [
            {
              "internalType": "address",
              "name": "",
              "type": "address"
            }
          ],
          "stateMutability": "view",
          "type": "function"
        },
        {
          "inputs": [],
          "name": "renounceOwnership",
          "outputs": [],
          "stateMutability": "nonpayable",
          "type": "function"
        },
        {
          "inputs": [
            {
              "internalType": "address",
              "name": "from",
              "type": "address"
            },
            {
              "internalType": "address",
              "name": "to",
              "type": "address"
            },
            {
              "internalType": "uint256",
              "name": "tokenId",
              "type": "uint256"
            }
          ],
          "name": "safeTransferFrom",
          "outputs": [],
          "stateMutability": "nonpayable",
          "type": "function"
        },
        {
          "inputs": [
            {
              "internalType": "address",
              "name": "from",
              "type": "address"
            },
            {
              "internalType": "address",
              "name": "to",
              "type": "address"
            },
            {
              "internalType": "uint256",
              "name": "tokenId",
              "type": "uint256"
            },
            {
              "internalType": "bytes",
              "name": "data",
              "type": "bytes"
            }
          ],
          "name": "safeTransferFrom",
          "outputs": [],
          "stateMutability": "nonpayable",
          "type": "function"
        },
        {
          "inputs": [
            {
              "internalType": "address",
              "name": "operator",
              "type": "address"
            },
            {
              "internalType": "bool",
              "name": "approved",
              "type": "bool"
            }
          ],
          "name": "setApprovalForAll",
          "outputs": [],
          "stateMutability": "nonpayable",
          "type": "function"
        },
        {
          "inputs": [
            {
              "internalType": "bytes4",
              "name": "interfaceId",
              "type": "bytes4"
            }
          ],
          "name": "supportsInterface",
          "outputs": [
            {
              "internalType": "bool",
              "name": "",
              "type": "bool"
            }
          ],
          "stateMutability": "view",
          "type": "function"
        },
        {
          "inputs": [],
          "name": "symbol",
          "outputs": [
            {
              "internalType": "string",
              "name": "",
              "type": "string"
            }
          ],
          "stateMutability": "view",
          "type": "function"
        },
        {
          "inputs": [
            {
              "internalType": "uint256",
              "name": "tokenId",
              "type": "uint256"
            }
          ],
          "name": "tokenURI",
          "outputs": [
            {
              "internalType": "string",
              "name": "",
              "type": "string"
            }
          ],
          "stateMutability": "view",
          "type": "function"
        },
        {
          "inputs": [
            {
              "internalType": "address",
              "name": "from",
              "type": "address"
            },
            {
              "internalType": "address",
              "name": "to",
              "type": "address"
            },
            {
              "internalType": "uint256",
              "name": "tokenId",
              "type": "uint256"
            }
          ],
          "name": "transferFrom",
          "outputs": [],
          "stateMutability": "nonpayable",
          "type": "function"
        },
        {
          "inputs": [
            {
              "internalType": "address",
              "name": "newOwner",
              "type": "address"
            }
          ],
          "name": "transferOwnership",
          "outputs": [],
          "stateMutability": "nonpayable",
          "type": "function"
        }
      ]
    }
  ],
  "expectedNewLeafs": [
    {
      "address": "0x617b3a3528F9cDd6630fd3301B9c8911F7Bf063D",
      "nonce": "1",
      "balance": "99999880687000000000",
      "storage": null,
      "isSmartContract": false,
      "hashBytecode": "0x0000000000000000000000000000000000000000000000000000000000000000",
      "bytecodeLength": 0
    },
    {
      "address": "0x4d5Cf5032B2a844602278b01199ED191A86c93ff",
      "nonce": "0",
      "balance": "200000000000000000000",
      "storage": null,
      "isSmartContract": false,
      "hashBytecode": "0x0000000000000000000000000000000000000000000000000000000000000000",
      "bytecodeLength": 0
    },
    {
      "address": "0x1275fbb540c8efc58b812ba83b0d0b8b9917ae98",
      "nonce": "1",
      "balance": "0",
      "storage": {
        "0x3e5fec24aa4dc4e5aee2e025e51e1392c72a2500577559fae9665c6d52bd6a31": "0x7572690000000000000000000000000000000000000000000000000000000006",
        "0xd7c9590abf8c97a7db41f8f2fa12fae115b69950a8904317b51ca0576697a942": "0x01",
        "0xe90b7bceb6e7df5418fb78d8ee546e97c83a08bbccc01a0644d599ccd2a7c2e0": "0x617b3a3528f9cdd6630fd3301b9c8911f7bf063d",
        "0x0000000000000000000000000000000000000000000000000000000000000007": "0x617b3a3528f9cdd6630fd3301b9c8911f7bf063d",
        "0x0000000000000000000000000000000000000000000000000000000000000008": "0x01",
        "0x0000000000000000000000000000000000000000000000000000000000000000": "0x4d794e465400000000000000000000000000000000000000000000000000000a",
        "0x0000000000000000000000000000000000000000000000000000000000000001": "0x4e46540000000000000000000000000000000000000000000000000000000006"
      },
      "isSmartContract": true,
      "hashBytecode": "0x3c82501cde45b16284170de4827ca58773191367950c99620aa45a8196d0c76c",
      "bytecodeLength": 11432
    },
    {
      "address": "0xa40D5f56745a118D0906a34E69aeC8C0Db1cB8fA",
      "nonce": "0",
      "balance": "0",
      "storage": {
        "0x97c92adf8a3a4d220916a89b87a4e05eb2114733ecdcebc33348042b58dc1c3d": "0x73e6af6f"
      },
      "isSmartContract": false,
      "hashBytecode": "0x0000000000000000000000000000000000000000000000000000000000000000",
      "bytecodeLength": 0
    }
  ]
}